:020000040800F2
:100000000050002001110008A5100008B1100008E0
:10001000B9100008C1100008C91000080000000055
:10002000000000000000000000000000D1100008E7
:10003000DD10000800000000E9100008F5100008BD
:1000400059110008591100085911000859110008E8
:1000500059110008591100085911000859110008D8
:1000600059110008591100085911000859110008C8
:1000700059110008591100085911000859110008B8
:1000800059110008591100085911000859110008A8
:10009000591100085911000859110008BD24000821
:1000A0005911000859110008591100085911000888
:1000B0005911000859110008591100085911000878
:1000C0005911000859110008591100085911000868
:1000D0005911000859110008591100085911000858
:1000E00031250008591100085911000800000000CE
:1000F0000000000000000000000000000000000000
:0C01000000000000000000005FF808F1A3
:10010C0010B5054C237833B9044B13B10448AFF345
:10011C0000800123237010BD80000020000000002F
:10012C00B448000808B5034B1BB103480349AFF3AF
:10013C00008008BD00000000B448000884000020C6
:10014C0081F0004102E000BF83F0004330B54FEA7C
:10015C0041044FEA430594EA050F08BF90EA020FE9
:10016C001FBF54EA000C55EA020C7FEA645C7FEA7C
:10017C00655C00F0E2804FEA5454D4EB5555B8BF9F
:10018C006D420CDD2C4480EA020281EA030382EA10
:10019C00000083EA010180EA020281EA0303362DA2
:1001AC0088BF30BD11F0004F4FEA01314FF4801C75
:1001BC004CEA113102D0404261EB410113F0004F87
:1001CC004FEA03334CEA133302D0524263EB43033E
:1001DC0094EA050F00F0A780A4F10104D5F1200EDC
:1001EC000DDB02FA0EFC22FA05F2801841F1000137
:1001FC0003FA0EF2801843FA05F359410EE0A5F10B
:10020C0020050EF1200E012A03FA0EFC28BF4CF03B
:10021C00020C43FA05F3C01851EBE37101F00045F1
:10022C0007D54FF0000EDCF1000C7EEB00006EEBFE
:10023C000101B1F5801F1BD3B1F5001F0CD3490888
:10024C005FEA30004FEA3C0C04F101044FEA4452DF
:10025C0012F5800F80F09A80BCF1004F08BF5FEA66
:10026C00500C50F1000041EB045141EA050130BD46
:10027C005FEA4C0C404141EB010111F4801FA4F1E9
:10028C000104E9D191F0000F04BF01460020B1FA3E
:10029C0081F308BF2033A3F10B03B3F120020CDA76
:1002AC000C3208DD02F1140CC2F10C0201FA0CF054
:1002BC0021FA02F10CE002F11402D8BFC2F1200CB9
:1002CC0001FA02F120FA0CFCDCBF41EA0C0190406F
:1002DC00E41AA2BF01EB0451294330BD6FEA0404B8
:1002EC001F3C1CDA0C340EDC04F11404C4F12002A3
:1002FC0020FA04F001FA02F340EA030021FA04F3B5
:10030C0045EA030130BDC4F10C04C4F1200220FA0B
:10031C0002F001FA04F340EA0300294630BD21FA49
:10032C0004F0294630BD94F0000F83F4801306BF0F
:10033C0081F480110134013D4EE77FEA645C18BF03
:10034C007FEA655C29D094EA050F08BF90EA020F9A
:10035C0005D054EA000C04BF1946104630BD91EA92
:10036C00030F1EBF0021002030BD5FEA545C05D195
:10037C004000494128BF41F0004130BD14F58004D4
:10038C003CBF01F5801130BD01F0004545F0FE4148
:10039C0041F470014FF0000030BD7FEA645C1ABF7D
:1003AC00194610467FEA655C1CBF0B46024650EAB4
:1003BC00013406BF52EA033591EA030F41F40021E0
:1003CC0030BD00BF90F0000F04BF0021704730B566
:1003DC004FF4806404F132044FF000054FF000013B
:1003EC0050E700BF90F0000F04BF0021704730B5FC
:1003FC004FF4806404F1320410F0004548BF4042D1
:10040C004FF000013EE700BF42004FEAE2014FEA25
:10041C0031014FEA02701FBF12F07F4393F07F4F00
:10042C0081F06051704792F0000F14BF93F07F4F32
:10043C00704730B54FF4607401F0004521F0004175
:10044C0020E700BF50EA010208BF704730B54FF0FB
:10045C0000050AE050EA010208BF704730B511F000
:10046C00004502D5404261EB41014FF4806404F138
:10047C0032045FEA915C3FF4DCAE4FF003025FEABA
:10048C00DC0C18BF03325FEADC0C18BF033202EB42
:10049C00DC02C2F1200300FA03FC20FA02F001FA9C
:1004AC0003FE40EA0E0021FA02F11444C1E600BF3B
:1004BC0070B54FF0FF0C4CF4E06C1CEA11541DBFEE
:1004CC001CEA135594EA0C0F95EA0C0F00F0DEF8B9
:1004DC002C4481EA030621EA4C5123EA4C5350EA9E
:1004EC00013518BF52EA033541F4801143F48013EF
:1004FC0038D0A0FB02CE4FF00005E1FB02E506F080
:10050C000042E0FB03E54FF00006E1FB03569CF0D4
:10051C00000F18BF4EF0010EA4F1FF04B6F5007FDA
:10052C0064F5407404D25FEA4E0E6D4146EB06064C
:10053C0042EAC62141EA55514FEAC52040EA5E50D5
:10054C004FEACE2EB4F1FD0C88BFBCF5E06F1ED87F
:10055C00BEF1004F08BF5FEA500E50F1000041EBB6
:10056C00045170BD06F0004646EA010140EA020063
:10057C0081EA0301B4EB5C04C2BFD4EB0C0541EA85
:10058C00045170BD41F480114FF0000E013C00F39A
:10059C00AB8014F1360FDEBF002001F0004170BDBE
:1005AC00C4F10004203C35DA0C341BDC04F11404D7
:1005BC00C4F1200500FA05F320FA04F001FA05F263
:1005CC0040EA020001F0004221F0004110EBD37030
:1005DC0021FA04F642EB06015EEA430E08BF20EA5C
:1005EC00D37070BDC4F10C04C4F1200500FA04F3FF
:1005FC0020FA05F001FA04F240EA020001F0004191
:10060C0010EBD37041F100015EEA430E08BF20EA03
:10061C00D37070BDC4F1200500FA05F24EEA020E4B
:10062C0020FA04F301FA05F243EA020321FA04F07A
:10063C0001F0004121FA04F220EA020000EBD37031
:10064C005EEA430E08BF20EAD37070BD94F0000F31
:10065C000FD101F00046400041EB010111F4801F65
:10066C0008BF013CF7D041EA060195F0000F18BF16
:10067C00704703F00046520043EB030313F4801F52
:10068C0008BF013DF7D043EA0603704794EA0C0F0C
:10069C000CEA135518BF95EA0C0F0CD050EA410622
:1006AC0018BF52EA4306D1D181EA030101F000419F
:1006BC004FF0000070BD50EA410606BF10461946C7
:1006CC0052EA430619D094EA0C0F02D150EA0136D3
:1006DC0013D195EA0C0F05D152EA03361CBF104614
:1006EC0019460AD181EA030101F0004141F0FE41B3
:1006FC0041F470014FF0000070BD41F0FE4141F437
:10070C00780170BD70B54FF0FF0C4CF4E06C1CEA36
:10071C0011541DBF1CEA135594EA0C0F95EA0C0FEB
:10072C0000F0A7F8A4EB050481EA030E52EA0335A6
:10073C004FEA013100F088804FEA03334FF08055C7
:10074C0045EA131343EA12634FEA022245EA1115F4
:10075C0045EA10654FEA00260EF000419D4208BFA5
:10076C00964244F1FD0404F5407402D25B084FEA52
:10077C003202B61A65EB03055B084FEA32024FF4FE
:10078C0080104FF4002CB6EB020E75EB030E22BF5B
:10079C00B61A754640EA0C005B084FEA3202B6EB1B
:1007AC00020E75EB030E22BFB61A754640EA5C00CA
:1007BC005B084FEA3202B6EB020E75EB030E22BF5A
:1007CC00B61A754640EA9C005B084FEA3202B6EB5B
:1007DC00020E75EB030E22BFB61A754640EADC001A
:1007EC0055EA060E18D04FEA051545EA16754FEA7C
:1007FC0006164FEAC30343EA52734FEAC2025FEA9A
:10080C001C1CC0D111F4801F0BD141EA00014FF028
:10081C0000004FF0004CB6E711F4801F04BF0143F9
:10082C000020B4F1FD0C88BFBCF5E06F3FF6AFAE15
:10083C00B5EB030C04BFB6EB020C5FEA500C50F1A5
:10084C00000041EB045170BD0EF0004E4EEA113128
:10085C0014EB5C04C2BFD4EB0C0541EA045170BD2F
:10086C0041F480114FF0000E013C90E645EA060E73
:10087C008DE60CEA135594EA0C0F08BF95EA0C0FA1
:10088C003FF43BAF94EA0C0F0AD150EA01347FF4E9
:10089C0034AF95EA0C0F7FF425AF104619462CE7C0
:1008AC0095EA0C0F06D152EA03353FF4FDAE104623
:1008BC00194622E750EA410618BF52EA43067FF474
:1008CC00C5AE50EA41047FF40DAF52EA43057FF404
:1008DC00EBAE12E74FEA410212F5001215D211D518
:1008EC006FF47873B3EB625212D94FEAC12343F021
:1008FC00004343EA505311F0004F23FA02F018BFA3
:10090C00404270474FF00000704750EA013005D16B
:10091C0011F0004008BF6FF0004070474FF000002E
:10092C00704700BF4A0011D212F5001211D20DD53A
:10093C006FF47873B3EB62520ED44FEAC12343F0D9
:10094C00004343EA505323FA02F070474FF0000083
:10095C00704750EA013002D14FF0FF3070474FF032
:10096C00000070474BB942B9002908BF002802D0DB
:10097C004FF0FF31084600F03BB882B0EC462DE951
:10098C00005000F01DF8DDF804E002B00CBC70471C
:10099C002DE9704F089E14461D468046894600F08E
:1009AC0029F804FB01F3A4FB00AB00FB05329344D4
:1009BC00B8EB0A0869EB0B09C6E90089BDE8708F32
:1009CC002DE9704F089E14461D468046894600F05E
:1009DC0061F900FB05F5A0FB04AB04FB0154A34437
:1009EC00B8EB0A0869EB0B09C6E90089BDE8708F02
:1009FC00704700BF00292DE9F00FC0F2A180002440
:100A0C00002BC0F29880154606460F46002B3FD1AE
:100A1C008A4258D9B2FA82F34BB1C3F1200201FADF
:100A2C0003F720FA02F29D4000FA03F61743290C53
:100A3C00B7FBF1F201FB1277A8B200FB02F34FEA0D
:100A4C00164C4CEA0747BB4209D97F1902F1FF3C0F
:100A5C0080F00581BB4240F20281023A2F44FF1A1A
:100A6C00B7FBF1F301FB137100FB03F0B6B246EADE
:100A7C000141884208D9491903F1FF3780F0F18010
:100A8C00884240F2EE80023B43EA0242002303E03C
:100A9C008B420AD900231A461046194614B140421B
:100AAC0061EB4101BDE8F00F7047B3FA83F8B8F180
:100ABC00000F40F088808B4202D3824200F2E28029
:100ACC0000230122E8E712B90123B3FBF2F5B5FAD2
:100ADC0085F2002A3AD17F1B280C1FFA85FC0123D2
:100AEC00B7FBF0F100FB11770CFB01F24FEA164853
:100AFC0048EA0747BA4207D97F1901F1FF3802D2F9
:100B0C00BA4200F2C4804146BF1AB7FBF0F200FBB8
:100B1C0012700CFB02FCB6B246EA0040844507D9C1
:100B2C00401902F1FF3702D2844500F2AE803A46FA
:100B3C0042EA0142B0E7E443524263EB430362E70B
:100B4C00404261EB41014FF0FF3459E79540C2F14F
:100B5C00200927FA09F126FA09F99740280CB1FB6C
:100B6C00F0F800FB18111FFA85FC0CFB08F349EA9E
:100B7C0007094FEA194747EA01418B4206FA02F688
:100B8C0008D9491908F1FF327AD28B4278D9A8F1E9
:100B9C0002082944C91AB1FBF0F300FB13170CFB34
:100BAC0003F21FFA89F949EA0747BA4207D97F19B4
:100BBC0003F1FF3160D2BA425ED9023B2F44BF1A17
:100BCC0043EA08438CE7C8F1200225FA02F103FA44
:100BDC0008FC27FA02F320FA02F207FA08F741EAB6
:100BEC000C0C4FEA1C49B3FBF9F109FB11331FFA4A
:100BFC008CFA0AFB01FB17433A0C42EA03439B4570
:100C0C0005FA08F008D913EB0C0301F1FF3235D2C9
:100C1C009B4533D902396344CBEB0303B3FBF9F2A5
:100C2C0009FB12330AFB02FABFB247EA0347BA4583
:100C3C0008D917EB0C0702F1FF331BD2BA4519D9AF
:100C4C00023A674442EA0145A5FB0001CAEB0707DB
:100C5C008F424FF000030AD305D02A461CE76246A8
:100C6C00FDE63B4610E706FA08F68642F5D26A1E08
:100C7C00002311E71A46E5E70B46A0E71146CBE740
:100C8C00904687E74346424606E7023A50E7023968
:100C9C002F4439E72DE9F00F144605460E46002B7C
:100CAC0043D18A4253D9B2FA82F757B1C7F1200621
:100CBC0020FA06F601FA07F302FA07F400FA07F530
:100CCC001E43210CB6FBF1F201FB1266A0B200FB35
:100CDC0002F32F0C47EA0646B34209D9361902F142
:100CEC00FF3780F0FD80B34240F2FA80023A26448E
:100CFC00F61AB6FBF1F301FB136100FB03F0ADB286
:100D0C0045EA0141884208D9091903F1FF3680F000
:100D1C00E980884240F2E680023B43EA024200232B
:100D2C0010461946BDE8F00F70478B424CD8B3FA09
:100D3C0083F6002E4FD18B4202D3824200F2DD802B
:100D4C00BDE8F00F0023012210461946704712B976
:100D5C000124B4FBF2F4B4FA84F2002A40F082804D
:100D6C00091B260CA7B20123B1FBF6F006FB1011F0
:100D7C0007FB00F24FEA154C4CEA01418A4207D9B5
:100D8C00091900F1FF3C02D28A4200F2C880604689
:100D9C00891AB1FBF6F206FB121107FB02F7ADB292
:100DAC0045EA0145AF4208D92C1902F1FF3180F018
:100DBC009B80A74240F29880023A42EA00421046D9
:100DCC001946BDE8F00F704700231A461046194625
:100DDC00BDE8F00F7047C6F1200522FA05F703FABB
:100DEC0006F421FA05F301FA06FB20FA05F53C435B
:100DFC004FEA1448B3FBF8FC08FB1C331FFA84F9C8
:100E0C0009FB0CFA45EA0B0B4FEA1B4545EA034379
:100E1C009A4502FA06F204D91B190CF1FF356FD36F
:100E2C00AC46CAEB0303B3FBF8F508FB153309FB1F
:100E3C0005F91FFA8BFB4BEA0347B94504D93F1957
:100E4C0005F1FF3362D31D4645EA0C4CACFB022383
:100E5C00C9EB07079F424FF000054AD346D06246C4
:100E6C002B465DE79440C2F1200921FA09FC914020
:100E7C0020FA09F9260CBCFBF6F806FB18CCA7B235
:100E8C0007FB08F349EA01094FEA194141EA0C4C06
:100E9C00634500FA02F509D91CEB040C08F1FF328A
:100EAC003BD2634539D9A8F10208A444C3EB0C0C1E
:100EBC00BCFBF6F306FB13C107FB03F21FFA89F91F
:100ECC0049EA01418A4207D9091903F1FF3022D2BC
:100EDC008A4220D9023B2144891A43EA084343E75A
:100EEC003A4605E7334618E70A4666E7B0409042B3
:100EFC00B5D20CF1FF32002312E7334632460FE72E
:100F0C009A458DD9ACF1020C23448AE7B9459AD99C
:100F1C00023D274498E70346DEE79046C6E70238D1
:100F2C00214435E780B500AF154B154A126842F0E5
:100F3C0001021A60124A124B5968124B0B40536053
:100F4C000F4A0F4B1B6823F0847323F48033136018
:100F5C000B4B0B4A126822F480221A60084B084A89
:100F6C00526822F4FE025A60054B4FF41F029A603D
:100F7C0000F00CF8044B4FF000629A6080BD00BF8B
:100F8C00001002400000FFF800ED00E080B500AF5B
:100F9C0000F002F880BD00BF80B483B000AF002326
:100FAC007B6000233B603A4B394A126842F4803232
:100FBC001A60374B1B6803F400333B607B680133CA
:100FCC007B603B68002B03D17B68B3F5A06FF0D13D
:100FDC002F4B1B6803F40033002B02D001233B6022
:100FEC0001E000233B603B68012B4BD1294B294A84
:100FFC00126842F010021A60264B264A126822F040
:10100C0003021A60234B234A126842F002021A6050
:10101C001F4B1F4A52685A601D4B1D4A52685A603A
:10102C001B4B1B4A526842F480625A60184B184A98
:10103C00526822F47C125A60154B154A526842F4DD
:10104C00E8125A60124B124A126842F080721A600F
:10105C0000BF0F4B1B6803F00073002BF9D00C4B37
:10106C000B4A526822F003025A60094B084A526834
:10107C0042F002025A6000BF054B5B6803F00C03A0
:10108C00082BF9D10C37BD465DF8047B704700BFC7
:10109C00001002400020024080B400AFBD465DF855
:1010AC00047B704780B400AFFEE700BF80B400AF94
:1010BC00FEE700BF80B400AFFEE700BF80B400AF16
:1010CC00FEE700BF80B400AFBD465DF8047B7047FF
:1010DC0080B400AFBD465DF8047B704780B400AFB0
:1010EC00BD465DF8047B704780B500AF01F0B8FEDB
:1010FC0080BD00BFDFF83CD0002100F004B80E4BDF
:10110C005B58435004310D480D4B42189A42FFF482
:10111C00F6AF0C4A00F003B8002342F8043B0A4B2C
:10112C009A42FFF4F9AFFFF7FDFE02F02DFF01F03C
:10113C00F9FA7047005000202C49000800000020EC
:10114C007C0000208000002024070020FFF7FEBF59
:10115C0080B483B000AF78607B6818460C37BD460E
:10116C005DF8047B704700BF80B582B000AF78603B
:10117C0039607B683A681A60786820210F2200F089
:10118C0065F978682321902200F060F97B680022D1
:10119C009A807B680022DA807B6800221A81962074
:1011AC0001F03CFE0837BD4680BD00BF80B586B05F
:1011BC0000AFF860B9607A60F868B96800F00AF9B5
:1011CC0007F11403F8682321012200F029F93B7D73
:1011DC001B11DBB203F00303FB75FB7D002B4BD122
:1011EC00BB681B881BB21846FFF7FCF802460B467F
:1011FC00104619464FF000025D4BFFF783FA02468A
:10120C000B4610461946FFF765FB03469AB27B68FE
:10121C001A80BB685B881BB21846FFF7E3F80246DE
:10122C000B46104619464FF00002514BFFF76AFA75
:10123C0002460B4610461946FFF74CFB03469AB282
:10124C007B685A80BB689B881BB21846FFF7CAF8AC
:10125C0002460B46104619464FF00002444BFFF76E
:10126C0051FA02460B4610461946FFF733FB03466C
:10127C009AB27B689A8078E0FB7D012B4BD1BB68DE
:10128C001B881BB21846FFF7ADF802460B461046FA
:10129C0019464FF00002374BFFF734FA02460B4663
:1012AC0010461946FFF716FB03469AB27B681A8064
:1012BC00BB685B881BB21846FFF794F802460B46D6
:1012CC00104619464FF000022A4BFFF71BFA024654
:1012DC000B4610461946FFF7FDFA03469AB27B6897
:1012EC005A80BB689B881BB21846FFF77BF80246F6
:1012FC000B46104619464FF000021E4BFFF702FA40
:10130C0002460B4610461946FFF7E4FA03469AB21A
:10131C007B689A8029E0FB7D022B26D1BB681B8859
:10132C001BB2154A82FB03121A449211DB17D31A13
:10133C009AB27B681A80BB685B881BB20E4A82FB30
:10134C0003121A449211DB17D31A9AB27B685A8093
:10135C00BB689B881BB2084A82FB03121A44921189
:10136C00DB17D31A9AB27B689A801837BD4680BDBA
:10137C000080214000803140EBA00EEA80B586B0A1
:10138C0000AFF860B9607A603B6007F11003F86851
:10139C00A821062200F044F83B7C1A467B7C1B02F9
:1013AC009BB213439AB2BB681A80BB7C1A46FB7C77
:1013BC001B029BB213439AB27B681A803B7D1A4680
:1013CC007B7D1B029BB213439AB23B681A80183781
:1013DC00BD4680BD80B584B000AF7860396007F140
:1013EC000E0107F10C0207F10A037868FFF7C6FF3C
:1013FC00FB899BB21C339BB29AB23B681A80BB89A7
:10140C009BB2213B9BB29AB23B685A807B899BB2C0
:10141C001F3B9BB29AB23B689A801037BD4680BD89
:10142C0080B586B002AFF8607A603B600B46FB7209
:10143C00FB681A68FB7A39680091104669211A46D4
:10144C007B6801F02FFB1037BD4680BD80B582B0A4
:10145C0000AF786013460A46FA70BB707B68196857
:10146C00FA78BB780846692101F084FA0837BD4642
:10147C0080BD00BF80B483B000AF78607B68184635
:10148C000C37BD465DF8047B704700BF80B588B053
:10149C0002AFF860B9601346FB80FB68BA681A604B
:1014AC00FB68FA881A81FB689B6D9AB2FB685A81BB
:1014BC00FB681B6807F11402009218467721AA22D8
:1014CC00022301F0EFFA3B7D1B029AB27B7D1343A2
:1014DC009AB2FB689A81FB681B6807F114020092B0
:1014EC0018467721AC22022301F0DCFA3B7D1B026B
:1014FC009AB27B7D13439AB2FB68DA81FB681B6856
:10150C0007F11402009218467721AE22022301F053
:10151C00C9FA3B7D1B029AB27B7D13439AB2FB68DE
:10152C001A82FB681B6807F1140200921846772197
:10153C00B022022301F0B6FA3B7D1B029AB27B7DEE
:10154C0013439BB29AB2FB689A83FB681B6807F142
:10155C001402009218467721B222022301F0A2FA5B
:10156C003B7D1B029AB27B7D13439BB29AB2FB6804
:10157C00DA83FB681B6807F1140200921846772186
:10158C00B422022301F08EFA3B7D1B029AB27B7DC2
:10159C0013439BB29AB2FB681A84FB681B6807F171
:1015AC001402009218467721B622022301F07AFA2F
:1015BC003B7D1B029AB27B7D13439AB2FB685A8225
:1015CC00FB681B6807F11402009218467721B822B9
:1015DC00022301F067FA3B7D1B029AB27B7D134319
:1015EC009AB2FB689A82FB681B6807F1140200929E
:1015FC0018467721BA22022301F054FA3B7D1B02D4
:10160C009AB27B7D13439AB2FB68DA82FB681B6843
:10161C0007F11402009218467721BC22022301F034
:10162C0041FA3B7D1B029AB27B7D13439AB2FB6855
:10163C001A83FB681B6807F1140200921846772185
:10164C00BE22022301F02EFA3B7D1B029AB27B7D57
:10165C0013439AB2FB685A83FB6800229A65FB68B5
:10166C000122DA65FB6802221A66FB6803225A66BD
:10167C001837BD4680BD00BFB0B586B002AF7860EC
:10168C0039607B685B891AB27B689B6D9A4213D177
:10169C007B681B6818467721F4222E2301F06AF927
:1016AC0001F09AFB02460B467B685A607B68DB6D47
:1016BC009AB27B685A81FBE27B685B891AB27B68C1
:1016CC00DB6D9A4240F0928001F086FB7B685B6890
:1016DC001A464FF00003821A61EB0303002B08BF7C
:1016EC00062A34BF00230123DBB2002B7DD07B689C
:1016FC001B6807F10C02009218467721F622022390
:10170C0001F0D0F93B7B1A027B7B1A447B685A644C
:10171C007B685A6C7B681B8CD31A7A68D28B02FB61
:10172C0003F31846FEF75EFE02460B4610461946BA
:10173C004FF000025D4BFEF7E5FF02460B461046EC
:10174C001946FFF7C7F802467B685A627B681B8B09
:10175C001BB21846FEF746FE02460B4610461946CB
:10176C004FF00002524BFEF7A3FE02460B46144606
:10177C001D467B685A6A7B685B8B1BB21344184608
:10178C00FEF730FE02460B4620462946FEF7BAFF0E
:10179C0002460B4610461946FFF79CF802467B683A
:1017AC009A627B685A6A7B689B6A1A447B685A63A4
:1017BC007B685B6B08331846FEF714FE02460B463B
:1017CC00104619464FF000023A4BFEF79BFF0246BB
:1017DC000B4610461946FFF77DF802467B689A6364
:1017EC007B681B6E9AB27B685A8161E27B685B896D
:1017FC001AB27B681B6E9A425ED17B681B891BB246
:10180C00032B3BD801A252F823F000BF2918000883
:10181C004118000859180008711800087B681B68EB
:10182C0018467721F422342301F0A4F87B680522B2
:10183C005A652FE07B681B6818467721F4227423C5
:10184C0001F098F87B6808225A6523E07B681B68D6
:10185C0018467721F422B42301F08CF87B680E2211
:10186C005A6517E07B681B6818467721F422F4232D
:10187C0001F080F87B681A225A650BE07B681B68C4
:10188C0018467721F422342301F074F87B68052282
:10189C005A6500BF01F0A0FA02460B467B685A60FD
:1018AC007B685B6E9AB27B685A8101E20000E04073
:1018BC000000A040000030407B685B891AB27B6856
:1018CC005B6E9A4240F0F48101F086FA7B685B68AB
:1018DC001A464FF00003821A61EB03037968496DD5
:1018EC0008464FF00001994208BF90422CBF0023DC
:1018FC000123DBB2002B00F0DB817B681B6807F156
:10190C000802009218467721F622032301F0CAF848
:10191C003B7A1A047B7A1B021A44BB7A1A447B6802
:10192C001B891BB2C3F108031A417B689A647B685C
:10193C005B6BA3F57A627B68DA637B689B8A1BB26C
:10194C001846FEF74FFD04460D467B68DB6B7A6844
:10195C00D26B02FB03F31846FEF744FD02460B461E
:10196C00104619464FF000027B4BFEF7CBFE0246A9
:10197C000B4620462946FEF79BFD02460B461046B9
:10198C0019464FF00002754BFEF7BCFE02460B46A3
:10199C0010461946FEF79EFF02467B685A627B682A
:1019AC00DB891BB27A68D26B02FB03F31846FEF795
:1019BC0019FD02460B46104619464FF00002674BC4
:1019CC00FEF7A0FE02460B4610461946FEF782FFB4
:1019DC0002467B689A627B685A6A7B689B6A1A44E7
:1019EC007B68DA627B689B891BB29A007B68DB6A36
:1019FC001A447B681B891BB202FA03F30233002BD7
:101A0C0000DA03339B101A467B681A637B681B8AC7
:101A1C001BB27A68D26B02FB03F31846FEF7E2FCAA
:101A2C0002460B46104619464FF000024C4BFEF78F
:101A3C0069FE02460B4610461946FEF74BFF02465E
:101A4C007B685A627B685B8A1BB21846FEF7CAFC3D
:101A5C0004460D467B68DB6B7A68D26B02FB03F3A2
:101A6C001846FEF7BFFC02460B46104619464FF0CF
:101A7C000002394BFEF746FE02460B46204629462D
:101A8C00FEF716FD02460B46104619464FF00002B3
:101A9C00344BFEF737FE02460B4610461946FEF74E
:101AAC0019FF02467B689A627B685A6A7B689B6A5C
:101ABC00134402331846FEF795FC02460B461046BB
:101ACC0019464FF00002284BFEF71CFE02460B464F
:101ADC0010461946FEF7FEFE02467B68DA627B680A
:101AEC009B8B7A68D26A02F5004202FB03F318461C
:101AFC00FEF768FC02460B46104619464FF00002F2
:101B0C001A4BFEF7FFFD02460B4610461946FEF730
:101B1C0009FF02467B68DA647B689B6C1A467B681B
:101B2C001B6BD31A7A68128912B24CF2503141FAFB
:101B3C0002F202FB03F27B681A657B681B6D002BBB
:101B4C0016DB7B681B6D5A007B68DB6CB2FBF3F316
:101B5C001A467B681A6415E00000B0400000A040F3
:101B6C000000C0400000F040000010400000E040C9
:101B7C007B681A6D7B68DB6CB2FBF3F35B001A4677
:101B8C007B681A647B681B6C1846FEF72BFC0246BC
:101B9C000B46104619464FF00002474BFEF7B2FDBC
:101BAC0002460B4614461D467B681B6C1846FEF716
:101BBC0019FC02460B46104619464FF000023E4BEC
:101BCC00FEF7A0FD02460B4620462946FEF770FCA8
:101BDC0002460B4610461946FEF77CFE02467B6811
:101BEC005A627B685B6A40F6DE3202FB03F31846EE
:101BFC00FEF7F8FB02460B46104619464FF0000262
:101C0C002E4BFEF77FFD02460B4610461946FEF79B
:101C1C0061FE02467B685A627B681B6C284A02FB99
:101C2C0003F31846FEF7DEFB02460B461046194638
:101C3C004FF00002214BFEF765FD02460B461046A5
:101C4C001946FEF747FE02467B689A627B681B6C5E
:101C5C001846FEF7C7FB04460D467B685A6A7B683C
:101C6C009B6A134403F6CF631846FEF7BBFB024690
:101C7C000B46104619464FF00002124BFEF742FD80
:101C8C0002460B4620462946FEF760FA02460B46F2
:101C9C0010461946FEF71EFE02467B681A647B68E6
:101CAC001A6C3B681A607B689B6D9AB27B685A8190
:101CBC001037BD46B0BD00BF000070400000F040C2
:101CCC0043E3FFFF0000304080B500AF1D481E49C4
:101CDC001E4AFFF76BFA1C4B9B889BB25B429BB274
:101CEC009AB2194B9A80194B9B889BB25B429BB260
:101CFC009AB2164B9A80164B1B685A1C144B1A60DE
:101D0C00114B1B889AB2134B1B889BB213449BB28A
:101D1C009AB2104B1A800C4B5B889AB20E4B1B88F4
:101D2C009BB213449BB29AB20B4B1A80064B9B8806
:101D3C009AB20A4B1B889BB213449BB29AB2074BC4
:101D4C001A8080BDC8050020FC0500200406002078
:101D5C00A40000209C0000209E000020A000002079
:101D6C0080B500AF02480349FFF786FC80BD00BF79
:101D7C00600500200C06002080B500AF034B5B68AB
:101D8C009AB2034B5A8000F049FA80BDC00600207D
:101D9C00B8060020B0B584B004AF00F059FB0A4B74
:101DAC001968094B5A68084B9B680748C568064870
:101DBC00046905484069009501940290034800F0BD
:101DCC000BFDBD46B0BD00BFC0060020CC480008CE
:101DDC0080B483B000AF786039600D4B1A680D4B3E
:101DEC00796843F822100A4B1A684FF47A713B68F1
:101DFC0091FBF3F31946084B43F82210044B1B6874
:101E0C005A1C034B1A600C37BD465DF8047B7047B7
:101E1C00A8000020CC030020AC00002080B582B0CC
:101E2C0000AF00237B601EE000F0D6FF02460B469D
:101E3C0013463B60104B7A6853F822303A68D21A3A
:101E4C000E4B796853F821309A4209D30C4B7A68BF
:101E5C0053F822309847084B7A68396843F82210B7
:101E6C007B6801337B60074B1B687A689A42DBDB2B
:101E7C000837BD4680BD00BF3C020020AC000020EE
:101E8C00CC030020A800002080B586B006AF3A48ED
:101E9C00C821FFF79DFF3948C821FFF799FF384843
:101EAC00C821FFF795FF37483721FFF791FF00F066
:101EBC00D1F900F029F934483449354A00F0F8FCDE
:101ECC00344831490222FFF7E1FA33482E49FFF733
:101EDC004BF9324832491022102300F0B7FE31483A
:101EEC002F492022102300F0B1FE2F482F49022247
:101EFC00102300F0ABFE2E482C492022102300F0BA
:101F0C00A5FE2C4826490122482300F09FFE2A4BAF
:101F1C0000932A4B01932A4B02932A4B03932A4B8F
:101F2C0004932A482A492B4A2B4B00F0C9F8224B20
:101F3C000093224B0193224B0293224B0393224B8F
:101F4C00049326482649274A274B00F0B9F84FF04E
:101F5C0081430093254B01934FF000030293194BDF
:101F6C000393194B049322482249234A234B00F034
:101F7C00A7F8BD4680BD00BFD51C00086D1D00082C
:101F8C00851D0008A11D00085C05002000540040C0
:101F9C00801A060060050020C8050020D40500202A
:101FAC0000080140DC050020E4050020000C014085
:101FBC00EC050020F40500206666A63FCDCC4C3D18
:101FCC00000070410000C8430000C8C31006002088
:101FDC00AC060020A0060020940600203C06002041
:101FEC00B0060020A4060020980600200AD7A33CC7
:101FFC0068060020B4060020A80600209C060020DD
:10200C0080B500AFFFF70AFF80BD00BFB0B582B04E
:10201C0000AF786039607B68012B28D13A684FF6A5
:10202C00FF739A4223D1134800F036FC1248FFF795
:10203C0021FA1248FFF78CF8114800F0FBFD11480B
:10204C0000F0F8FD104800F0F5FD104800F0F2FD2E
:10205C000F4800F0EFFD0F4B02241D4604E028460C
:10206C0000F022F82C35013CB4F1FF3FF7D10837D2
:10207C00BD46B0BD5C05002060050020C8050020F1
:10208C00D4050020DC050020E4050020EC05002030
:10209C00F40500201006002080B500AF01204FF69B
:1020AC00FF71FFF7B3FF80BD80B483B000AF7860E1
:1020BC007B6818460C37BD465DF8047B704700BF43
:1020CC0080B485B000AFF860B9607A603B60FB68A3
:1020DC00BA681A60FB687A685A60FB683A689A605A
:1020EC00FB68BA69DA60FB68FA691A61FB683A6ADC
:1020FC005A61FB687A6A5A62FB68BA6A9A62143748
:10210C00BD465DF8047B704780B588B000AF0320F6
:10211C00012101F005FB0C20012101F0E3FA012360
:10212C00BB831823FB770323BB7707F11C033648CB
:10213C00194601F015FD8023BB8307F11C033348BE
:10214C00194601F00DFD4023BB8307F11C032F48FA
:10215C00194601F005FD0223BB8307F11C032B4834
:10216C00194601F0FDFC40F69F73BB82284B1A68A0
:10217C00284BA3FB02139B0C9BB2013B9BB23B82F3
:10218C000023FB8200237B8207F110034FF0804079
:10219C00194600F0BFFF07F110031F48194600F065
:1021AC00B9FF4FF08040012101F0CAF91A48012112
:1021BC0001F0C6F960233B8001237B8000233B8127
:1021CC004FF47A73FB803B461348194601F032F901
:1021DC004FF47A73FB803B460F48194601F0A2F886
:1021EC004FF47A73FB803B460B48194601F00EF80E
:1021FC004FF47A73FB803B464FF08040194601F058
:10220C0091F82037BD4680BD000C0140000801400C
:10221C000000002083DE1B430004004080B400AFAC
:10222C000A4B0B4A12889A87084B094A52881A871C
:10223C00064B074A92889A864FF08043044AD2880C
:10224C001A87BD465DF8047B704700BF0004004050
:10225C00B806002080B584B000AF0D20012101F03C
:10226C0041FA4FF40063BB810423FB7307F10C03A9
:10227C007548194601F074FC00200B2101F046FD55
:10228C004FF400637B6000233B7210237B720123AD
:10229C00BB723B1D184601F077FD28233B700F23C2
:1022AC007B700F23BB700123FB703B46184601F07B
:1022BC000BFE4FF48073BB810423FB7307F10C03FB
:1022CC006148194601F04CFC0020082101F01EFD6C
:1022DC004FF480737B6000233B7210237B720123CD
:1022EC00BB723B1D184601F04FFD17233B700F23AB
:1022FC007B700F23BB700123FB703B46184601F02B
:10230C00E3FD4FF40043BB810423FB7307F10C0383
:10231C004E48194601F024FC01200F2101F0F6FC77
:10232C004FF400437B6000233B7210237B7201232C
:10233C00BB723B1D184601F027FD28233B700F2371
:10234C007B700F23BB700123FB703B46184601F0DA
:10235C00BBFD4FF48043BB810423FB7307F10C03DB
:10236C003A48194601F0FCFB01200E2101F0CEFC8D
:10237C004FF480437B6000233B7210237B7201235C
:10238C00BB723B1D184601F0FFFC28233B700F234A
:10239C007B700F23BB700123FB703B46184601F08A
:1023AC0093FD4FF40053BB810423FB7307F10C0323
:1023BC002648194601F0D4FB01200D2101F0A6FCA2
:1023CC004FF400537B6000233B7210237B7201237C
:1023DC00BB723B1D184601F0D7FC28233B700F2322
:1023EC007B700F23BB700123FB703B46184601F03A
:1023FC006BFD4FF48053BB810423FB7307F10C037B
:10240C001248194601F0ACFB01200C2101F07EFCB6
:10241C004FF480537B6000233B7210237B720123AB
:10242C00BB723B1D184601F0AFFC28233B700F23F9
:10243C007B700F23BB700123FB703B46184601F0E9
:10244C0043FD1037BD4680BD00080140000C014023
:10245C0080B582B000AF00237B601FE000F0D0FCA1
:10246C00114A7B68DB001344D3E90023821A61EB29
:10247C00030345F208204FF00001994208BF904237
:10248C002CBF00230123DBB2002B04D0074B7A684E
:10249C00002143F822107B6801337B607B68052B9D
:1024AC00DCDD0837BD4680BDD8060020C006002004
:1024BC0080B500AF4FF4807001F0D4FC0346012BC3
:1024CC0014BF00230123DBB2002B24D012484FF49D
:1024DC00807101F001FC0346002B0CBF002301238B
:1024EC00DBB2002B07D000F08BFC02460B460B49ED
:1024FC00C1E908230BE000F083FC02460B461146B1
:10250C00064BD3E908231346CA1A054B1A614FF43C
:10251C00807001F0CBFC80BD00080140D806002083
:10252C00C006002080B500AF4FF4006001F09AFCAB
:10253C000346012B14BF00230123DBB2002B24D054
:10254C0074484FF4006101F0C7FB0346002B0CBF2D
:10255C0000230123DBB2002B07D000F051FC024614
:10256C000B466D49C1E90A230BE000F049FC024619
:10257C000B461146684BD3E90A231346CA1A674B1C
:10258C005A614FF4006001F091FC4FF4805001F05F
:10259C0069FC0346012B14BF00230123DBB2002B83
:1025AC0024D05F484FF4805101F096FB0346002B7A
:1025BC000CBF00230123DBB2002B07D000F020FC62
:1025CC0002460B465449C1E900230BE000F018FC0D
:1025DC0002460B461146504BD3E900231346CA1A48
:1025EC004E4B1A604FF4805001F060FC4FF40050D9
:1025FC0001F038FC0346012B14BF00230123DBB28E
:10260C00002B24D046484FF4005101F065FB0346E3
:10261C00002B0CBF00230123DBB2002B07D000F0F2
:10262C00EFFB02460B463C49C1E902230BE000F0EC
:10263C00E7FB02460B461146374BD3E90223134600
:10264C00CA1A364B5A604FF4005001F02FFC4FF46D
:10265C00804001F007FC0346012B14BF002301232B
:10266C00DBB2002B24D02E484FF4804101F034FB18
:10267C000346002B0CBF00230123DBB2002B07D039
:10268C0000F0BEFB02460B462349C1E904230BE0D4
:10269C0000F0B6FB02460B4611461F4BD3E9042350
:1026AC001346CA1A1D4B9A604FF4804001F0FEFB92
:1026BC004FF4004001F0D6FB0346012B14BF00235E
:1026CC000123DBB2002B24D015484FF4004101F05C
:1026DC0003FB0346002B0CBF00230123DBB2002BB2
:1026EC0007D000F08DFB02460B460B49C1E90623CF
:1026FC000BE000F085FB02460B461146064BD3E976
:10270C0006231346CA1A054BDA604FF4004001F059
:10271C00CDFB80BD00080140D8060020C00600207B
:10272C00000C014080B500AF00F046FB4FF4165092
:10273C0000F006F8FFF7A8FBFFF762FCFCE700BF10
:10274C0080B58AB000AF786044F20500012100F03A
:10275C00C9FF4FF40073BB84182387F82730032379
:10276C0087F8263007F124031948194601F0F8F9C7
:10277C004FF48063BB84042387F8273007F12403CC
:10278C001348194601F0ECF907F10C03184600F058
:10279C005DFC07F10C030F48194600F02DFC7B681B
:1027AC007B6100233B8300237B830023BB830C23AF
:1027BC00FB8300233B8407F114030648194600F001
:1027CC0061FB0448012100F057FC2837BD4680BD51
:1027DC0000080140003801400FB480B584B000AF50
:1027EC0007F11C037B6000200021BA697B6801F0B3
:1027FC00F5FCF860FB680133184601F0EBFB03466F
:10280C00BB60B868B9697A6801F010FD0648B96810
:10281C0000F026F8B86801F0E5FB00BF1037BD46A4
:10282C00BDE8804004B070470038014080B582B0EC
:10283C0000AF78600B46FB7000BF0848402100F0E9
:10284C004DFC0346002BF8D0FB789BB2034819468D
:10285C0000F032FC0837BD4680BD00BF0038014097
:10286C0080B584B000AF786039600023FB600AE06B
:10287C00FB683A6813441B7878681946FFF7D6FF53
:10288C00FB680133FB60FB683A6813441B78002B30
:10289C00EED11037BD4680BD80B483B000AF7860F8
:1028AC007B6818460C37BD465DF8047B704700BF4B
:1028BC0080B58AB000AFF860B9607A60FB68BA681E
:1028CC001A600820012100F00DFFFB681A68264BE6
:1028DC009A4213D14FF40010012100F021FFC023C4
:1028EC00BB841C2387F82730032387F8263007F195
:1028FC0024031E48194601F033F918E0FB681A68E6
:10290C001B4B9A4213D14FF48000012100F008FFB9
:10291C004FF44063BB841C2387F82730032387F8CC
:10292C00263007F124031148194601F019F9002348
:10293C003B834FF480437B830023BB834FF4806342
:10294C00FB837B687B61FB681A6807F114031046F4
:10295C00194600F003FFFB681B681846012100F0C4
:10296C00BFFF2837BD4680BD00540040000C01401D
:10297C000058004080B582B000AF7860F970BA7032
:10298C007B707B681B681846012101F009F800BFB9
:10299C007B681B6818464FF4003101F0ADF8034614
:1029AC00002B0CBF00230123DBB2002BF0D17B6882
:1029BC001B681846012100F0B3FF00BF7B681B6841
:1029CC001846344901F098F80346002B14BF002335
:1029DC000123DBB2002BF1D17B681A68FB785B001A
:1029EC00DBB210461946002201F018F800BF7B68D4
:1029FC001B681846284901F04FF80346002B14BFFA
:102A0C0000230123DBB2002BF1D17B681A68BB7861
:102A1C001046194600F0E4FF00BF7B681B6818469F
:102A2C001E4901F039F80346002B14BF0023012383
:102A3C00DBB2002BF1D17B681A687B781046194603
:102A4C0000F0CEFF00BF7B681B681846134901F0ED
:102A5C0023F80346002B14BF00230123DBB2002B09
:102A6C00F1D17B681B681846012100F079FF00BF8B
:102A7C007B681B6818460A4901F03EF80346002B98
:102A8C000CBF00230123DBB2002BF1D10837BD466C
:102A9C0080BD00BF01000010820007008400070009
:102AAC001000001090B587B000AFF8607B600B464B
:102ABC00FB721346BB725848012100F071FF00BF36
:102ACC0055484FF4003101F017F80346002B0CBFAA
:102ADC0000230123DBB2002BF2D14F48012100F07F
:102AEC001FFF00BF4C484D4901F006F80346002B70
:102AFC0014BF00230123DBB2002BF3D1FB7A5B0064
:102B0C00DBB245481946002200F088FF00BF42485E
:102B1C00434900F0C1FF0346002B14BF00230123DF
:102B2C00DBB2002BF3D1BB7A3B48194600F058FFBF
:102B3C0000BF39483B4900F0AFFF0346002B14BFE0
:102B4C0000230123DBB2002BF3D13348012100F029
:102B5C00E7FE00BF3048314900F0CEFF0346002BA2
:102B6C0014BF00230123DBB2002BF3D1FB7A5B00F3
:102B7C00DBB229481946012200F050FF00BF26485D
:102B8C00294900F089FF0346002B14BF00230123C1
:102B9C00DBB2002BF3D100237B6125E000BF1E4884
:102BAC00224900F079FF0346002B14BF00230123B8
:102BBC00DBB2002BF3D17B69BA6AD418164800F04B
:102BCC001FFF034623707B689A1E7B699A4208D1CB
:102BDC001148002100F0E4FE0F484FF2FF7100F0A5
:102BEC003BFF7B6901337B617A697B689A42D5DB59
:102BFC000948012100F0B4FE00BF07480C4900F061
:102C0C007BFF0346002B0CBF00230123DBB2002B00
:102C1C00F3D11C37BD4690BD00540040010000109C
:102C2C00820007008400070002000300400003003C
:102C3C001000001080B483B000AF78607B68184639
:102C4C000C37BD465DF8047B704700BF80B586B07D
:102C5C0000AFF860B960FA807B71FB68BA681A60E3
:102C6C00FB68FA889A80FB687A799A71FB681A6813
:102C7C00254B9A4204D10420012100F033FD30E0B1
:102C8C00FB681A68214B9A4204D10820012100F0FC
:102C9C0029FD26E0FB681A681D4B9A4204D11020CE
:102CAC00012100F01FFD1CE0FB681A68194B9A42C9
:102CBC0004D12020012100F015FD12E0FB681A68F8
:102CCC00154B9A4204D14020012100F00BFD08E085
:102CDC00FB681A68114B9A4203D18020012100F045
:102CEC0001FDFB689B79FB75FB689B88BB8203230A
:102CFC00BB75FB681A6807F114031046194600F0FF
:102D0C002FFF1837BD4680BD00080140000C014064
:102D1C00001001400014014000180140001C01404B
:102D2C0080B483B000AF03463960FB7197F907306C
:102D3C00002B0BDA0D49FB7903F00F03043B3A68C7
:102D4C00D2B21201D2B20B441A7609E0084997F9B3
:102D5C0007303A68D2B21201D2B20B4483F8002386
:102D6C000C37BD465DF8047B704700BF00ED00E0FA
:102D7C0000E100E080B582B000AF78607B68B3F111
:102D8C00807F01D3012311E00A4B7A6822F07F4245
:102D9C00013A5A604FF0FF300F21FFF7C1FF054B8E
:102DAC0000229A60034B07221A600023184608374A
:102DBC00BD4680BD10E000E080B500AF044B1A6842
:102DCC00044BA3FB02139B0C1846FFF7D3FF80BDEB
:102DDC000000002083DE1B4380B500AF074BD3E916
:102DEC000023104619464FF47A724FF00003FDF79A
:102DFC00B9FD02460B461046194680BD1807002047
:102E0C0080B400AF044BD3E9002310461946BD46ED
:102E1C005DF8047B704700BF1807002080B584B0B4
:102E2C0000AF78604FF000024FF00003C7E90223B7
:102E3C00FFF7D2FFC7E9020100BFFFF7CDFFD7E9CB
:102E4C000223801A61EB03017B681A464FF00003E2
:102E5C00994208BF9042F0D31037BD4680BD00BFE9
:102E6C0080B400AF064BD3E90023013243F10003D9
:102E7C000349C1E90023BD465DF8047B704700BFE0
:102E8C001807002080B58CB000AF78603960002343
:102E9C00FB620023BB6200237B6200233B620023A6
:102EAC00FB617B68FB617B681B8A9BB2FB62FA6AE5
:102EBC004CF6FF731340FB623B68DB88FA6A1343E2
:102ECC00FB62FB6A9AB27B681A827B689B899BB215
:102EDC00FB62FA6A4EF6F3131340FB623B689A8866
:102EEC003B681B8913439AB23B685B8913439BB2C3
:102EFC00FA6A1343FB62FB6A9AB27B689A817B681D
:102F0C009B8A9BB2FB62FA6A4FF6FF431340FB624B
:102F1C003B689B89FA6A1343FB62FB6A9AB27B6833
:102F2C009A8207F10803184600F02AFBFA69304B25
:102F3C009A4202D17B69BB6201E03B69BB627B6850
:102F4C009B899BB29BB21BB2002B0CDABA6A13465C
:102F5C009B0013449A001A443B681B685B00B2FB4D
:102F6C00F3F37B620BE0BA6A13469B0013449A009E
:102F7C001A443B681B689B00B2FBF3F37B627A6AD2
:102F8C001C4BA3FB02135B091B01FB62FB6A1B09B5
:102F9C00642202FB03F37A6AD31A3B627B689B8937
:102FAC009BB29BB21BB2002B0DDA3B6ADB0003F128
:102FBC003202104BA3FB02135B0903F00703FA6AFE
:102FCC001343FB620CE03B6A1B0103F13202094B19
:102FDC00A3FB02135B0903F00F03FA6A1343FB62B2
:102FEC00FB6A9AB27B681A813037BD4680BD00BF40
:102FFC00003801401F85EB5180B485B000AF78607C
:10300C0039600023FB607B681B8A9BB2FB60FA680B
:10301C004FF2FF031340FB603B681A883B685B88E8
:10302C0013439AB23B689B8813439AB23B68DB8884
:10303C0013439BB2FA681343FB60FB689AB27B683C
:10304C001A821437BD465DF8047B704780B483B098
:10305C0000AF78607B6800221A807B6800225A805F
:10306C007B6800229A807B680022DA800C37BD4690
:10307C005DF8047B704700BF80B483B000AF78600C
:10308C000B46FB70FB78002B08D07B689B899BB2AE
:10309C0043F400539AB27B689A8107E07B689B8962
:1030AC009BB223F400539AB27B689A810C37BD46CD
:1030BC005DF8047B704700BF80B483B000AF7860CC
:1030CC000B467B807B88C3F308039AB27B689A809B
:1030DC000C37BD465DF8047B704700BF80B485B0EB
:1030EC0000AF78600B467B800023FB737B681B88EA
:1030FC009AB27B8813409BB2002B02D00123FB7346
:10310C0001E00023FB73FB7B18461437BD465DF8CA
:10311C00047B704780B485B000AF786039600023C1
:10312C00FB817B681B88FB817A682E4B9A4213D0FB
:10313C007A682D4B9A420FD07B68B3F1804F0BD03D
:10314C007A682A4B9A4207D07A68294B9A4203D064
:10315C007A68284B9A4208D1FB8923F07003FB81D3
:10316C003B685A88FB891343FB817A68224B9A424D
:10317C000CD07A68214B9A4208D0FB8923F4407317
:10318C00FB813B68DA88FB891343FB817B68FA89F6
:10319C001A803B689A887B689A853B681A887B689A
:1031AC001A857A680F4B9A420FD07A680E4B9A4266
:1031BC000BD07A68124B9A4207D07A68114B9A421C
:1031CC0003D07A68104B9A4204D13B681B7A1A469A
:1031DC007B681A867B6801229A821437BD465DF89B
:1031EC00047B7047002C0140003401400004004077
:1031FC0000080040000C004000100040001400408B
:10320C0000400140004401400048014080B485B0BA
:10321C0000AF7860396000237B810023FB810023A1
:10322C00BB817B681B8C9BB223F001039AB27B6839
:10323C001A847B681B8CFB817B689B88BB817B68B9
:10324C001B8B7B817B8923F070037B817B8923F033
:10325C0003037B813B681A887B8913437B81FB8941
:10326C0023F00203FB813B681A89FB891343FB8122
:10327C003B685A88FB891343FB817A68244B9A423A
:10328C000FD07A68234B9A420BD07A68224B9A4221
:10329C0007D07A68214B9A4203D07A68204B9A4225
:1032AC0023D1FB8923F00803FB813B685A89FB89F6
:1032BC001343FB81FB8923F00403FB813B689A8851
:1032CC00FB891343FB81BB8923F48073BB81BB89CE
:1032DC0023F40073BB813B689A89BB891343BB8180
:1032EC003B68DA89BB891343BB817B68BA899A80B6
:1032FC007B687A891A833B68DA887B689A867B6854
:10330C00FA891A841437BD465DF8047B704700BFF8
:10331C00002C0140003401400040014000440140B9
:10332C000048014080B485B000AF7860396000235C
:10333C007B810023FB810023BB817B681B8C9BB2B0
:10334C0023F010039AB27B681A847B681B8CFB8178
:10335C007B689B88BB817B681B8B7B817B8923F47F
:10336C00E0437B817B8923F440737B813B681B8822
:10337C001B029AB27B8913437B81FB8923F02003C8
:10338C00FB813B681B891B019AB2FB891343FB81B0
:10339C003B685B881B019AB2FB891343FB817A68FB
:1033AC00224B9A4203D07A68214B9A422BD1FB894B
:1033BC0023F08003FB813B685B891B019AB2FB897C
:1033CC001343FB81FB8923F04003FB813B689B8803
:1033DC001B019AB2FB891343FB81BB8923F48063E5
:1033EC00BB81BB8923F40063BB813B689B899B0039
:1033FC009AB2BB891343BB813B68DB899B009AB2B1
:10340C00BB891343BB817B68BA899A807B687A89B4
:10341C001A833B68DA887B681A877B68FA891A8476
:10342C001437BD465DF8047B704700BF002C01408B
:10343C000034014080B485B000AF7860396000235F
:10344C007B810023FB810023BB817B681B8C9BB29F
:10345C0023F480739AB27B681A847B681B8CFB8183
:10346C007B689B88BB817B689B8B7B817B8923F0F2
:10347C0070037B817B8923F003037B813B681A8873
:10348C007B8913437B81FB8923F40073FB813B68AD
:10349C001B891B029AB2FB891343FB813B685B8837
:1034AC001B029AB2FB891343FB817A68224B9A4226
:1034BC0003D07A68214B9A422BD1FB8923F4006309
:1034CC00FB813B685B891B029AB2FB891343FB812E
:1034DC00FB8923F48063FB813B689B881B029AB2B7
:1034EC00FB891343FB81BB8923F48053BB81BB89CC
:1034FC0023F40053BB813B689B891B019AB2BB89A7
:10350C001343BB813B68DB891B019AB2BB89134314
:10351C00BB817B68BA899A807B687A899A833B687D
:10352C00DA887B689A877B68FA891A841437BD46D7
:10353C005DF8047B704700BF002C01400034014053
:10354C0080B483B000AF78600B46FB70FB78002B27
:10355C0008D07B681B889BB243F001039AB27B684E
:10356C001A8007E07B681B889BB223F001039AB298
:10357C007B681A800C37BD465DF8047B704700BF32
:10358C0080B487B000AF786000237B6100233B617F
:10359C000023FB600023BB604D4B5B6803F00C0306
:1035AC007B617B69042B07D0082B09D0002B34D10D
:1035BC007B68484A1A6034E07B68464A1A6030E0FF
:1035CC00434B5B6803F470133B61414B5B6803F442
:1035DC008033FB603B699B0C02333B61FB68002B27
:1035EC0006D13B693C4A02FB03F27B681A6013E08C
:1035FC00374B5B6803F40033002B06D03B69364A2B
:10360C0002FB03F27B681A6006E03B69314A02FB5D
:10361C0003F27B681A6004E003E07B682D4A1A60B1
:10362C0000BF2B4B5B6803F0F0037B617B691B09CC
:10363C007B612A4A7B6913441B78DBB2BB607B68D5
:10364C001A68BB68DA407B685A60214B5B6803F4EC
:10365C00E0637B617B691B0A7B61204A7B691344B5
:10366C001B78DBB2BB607B685A68BB68DA407B684E
:10367C009A60174B5B6803F460537B617B69DB0AD0
:10368C007B61164A7B6913441B78DBB2BB607B6899
:10369C005A68BB68DA407B68DA600D4B5B6803F4F0
:1036AC0040437B617B699B0B7B610D4A7B691344B7
:1036BC001B78DBB2BB607B68DA68BB68B2FBF3F2E9
:1036CC007B681A611C37BD465DF8047B704700BFF0
:1036DC000010024000127A0000093D000400002096
:1036EC001400002080B483B000AF78600B46FB70F0
:1036FC00FB78002B06D0094B084A91697A680A437B
:10370C009A6106E0054B054A91697A68D2430A40F2
:10371C009A610C37BD465DF8047B7047001002407F
:10372C0080B483B000AF78600B46FB70FB78002B45
:10373C0006D0094B084AD1697A680A43DA6106E077
:10374C00054B054AD1697A68D2430A40DA610C37D5
:10375C00BD465DF8047B70470010024080B58AB00E
:10376C0000AF786039600023FB8400237B84042342
:10377C00BB84574BFB617B689B88FB84FB8C23F0E1
:10378C003F03FB8407F108031846FFF7F9FE3B697A
:10379C00FB61FA694F4BA3FB02139B0C7B84FA8CE5
:1037AC007B8C1343FB847B68FA8C9A807B681B8828
:1037BC009BB223F001039AB27B681A800023FB842E
:1037CC003B681A68444B9A4215D83B681B685B00EF
:1037DC00FA69B2FBF3F3BB84BB8C032B01D8042333
:1037EC00BB84FA8CBB8C1343FB847B8C01339AB265
:1037FC007B681A8440E03B68DA884BF6FF739A4288
:10380C0009D13B681A6813465B001344FA69B2FB92
:10381C00F3F3BB840EE03B681A6813469B00134419
:10382C009A001344FA69B2FBF3F3BB84BB8C43F4E8
:10383C008043BB84BB8CC3F30B03002B03D1BB8C29
:10384C0043F00103BB84BA8CFB8C13439BB26FEA2D
:10385C0043436FEA5343FB847B8C4FF4967202FB19
:10386C0003F31E4A82FB03129211DB17D31A9BB28D
:10387C0001339AB27B681A847B68FA8C9A837B68D2
:10388C001B889BB243F001039AB27B681A807B6859
:10389C001B88FB84FB8C23F4816323F00203FB84E1
:1038AC003B689A883B685B8913439AB2FB8C134341
:1038BC00FB847B68FA8C1A803B689A893B681B896D
:1038CC0013439AB27B681A812837BD4680BD00BF6E
:1038DC0000127A0083DE1B43A0860100D34D6210D8
:1038EC0080B483B000AF78600B46FB70FB78002B84
:1038FC0008D07B681B889BB243F001039AB27B68AB
:10390C001A8007E07B681B889BB223F001039AB2F4
:10391C007B681A800C37BD465DF8047B704700BF8E
:10392C0080B483B000AF78600B46FB70FB78002B43
:10393C0008D07B681B889BB243F480739AB27B6877
:10394C001A8007E07B681B889BB223F480739AB2C1
:10395C007B681A800C37BD465DF8047B704700BF4E
:10396C0080B483B000AF78600B46FB70FB78002B03
:10397C0008D07B681B889BB243F400739AB27B68B7
:10398C001A8007E07B681B889BB223F400739AB201
:10399C007B681A800C37BD465DF8047B704700BF0E
:1039AC0080B483B000AF78600B46FB70FB78002BC3
:1039BC0008D07B681B889BB243F480639AB27B6807
:1039CC001A8007E07B681B889BB223F480639AB251
:1039DC007B681A800C37BD465DF8047B704700BFCE
:1039EC0080B483B000AF78600B46FB70FB789AB262
:1039FC007B681A820C37BD465DF8047B704700BFAC
:103A0C0080B483B000AF78607B681B8A9BB2DBB25A
:103A1C0018460C37BD465DF8047B704780B483B004
:103A2C0000AF786013460A46FA70BB70BB78002B67
:103A3C0004D0FB7843F00103FB7003E0FB7823F028
:103A4C000103FB70FB789AB27B681A820C37BD4677
:103A5C005DF8047B704700BF80B483B000AF786022
:103A6C000B467B807B88B3F5006F08D17B681B8885
:103A7C009BB243F400639AB27B681A8007E07B68C0
:103A8C001B889BB223F400639AB27B681A800C37B4
:103A9C00BD465DF8047B704780B487B000AF78609A
:103AAC00396000233B610023FB600023BB600023D3
:103ABC00FB757B689B8A9BB2FB607B681B8B9BB204
:103ACC00BB60BB681B04BB60FA68BB68134323F084
:103ADC007F433B613A693B681A403B689A4202D18A
:103AEC000123FB7501E00023FB75FB7D18461C3799
:103AFC00BD465DF8047B704780B487B000AF78603A
:103B0C0039600023FB7500233B610023FB607B685D
:103B1C00FB603B681B0F3B613B6823F07F433B60C2
:103B2C003B69002B03D0FB681433FB6005E03B685A
:103B3C001B0C3B60FB681833FB60FB681A683B6826
:103B4C001340002B02D00123FB7501E00023FB7511
:103B5C00FB7D18461C37BD465DF8047B704700BFE3
:103B6C0080B489B000AF786039600023FB6100231A
:103B7C003B610023BB610023FB6000237B610023BE
:103B8C00BB603B68DB7803F00F03FB613B68DB78C1
:103B9C0003F01003002B04D03B689B78FA691343A5
:103BAC00FB613B681B88DBB2002B44D07B681B6835
:103BBC007B610023BB6138E0BB69012202FA03F38D
:103BCC00FB603B681B881A46FB6813403B613A69F3
:103BDC00FB689A4226D1BB699B00FB60FB680F22F5
:103BEC0002FA03F3BB60BB68DB437A6913407B6169
:103BFC00FB68FA6902FA03F37A6913437B613B6849
:103C0C00DB78282B05D1BB6901229A407B685A616D
:103C1C0008E03B68DB78482B04D1BB6901229A4051
:103C2C007B681A61BB690133BB61BB69072BC3D9C4
:103C3C007B687A691A603B681B88FF2B46D97B68C6
:103C4C005B687B610023BB613AE0BB6908330122EE
:103C5C0002FA03F3FB603B681B881A46FB681340AF
:103C6C003B613A69FB689A4227D1BB699B00FB60B8
:103C7C00FB680F2202FA03F3BB60BB68DB437A6973
:103C8C0013407B61FB68FA6902FA03F37A69134308
:103C9C007B613B68DB78282B05D1BB69083301229B
:103CAC009A407B685A613B68DB78482B05D1BB692D
:103CBC00083301229A407B681A61BB690133BB61EE
:103CCC00BB69072BC1D97B687A695A602437BD461A
:103CDC005DF8047B704700BF80B485B000AF78609E
:103CEC000B467B800023FB737B689A687B881340B0
:103CFC00002B02D00123FB7301E00023FB73FB7B41
:103D0C0018461437BD465DF8047B704790B484B0F8
:103D1C0000AF02460B46FA71BB710023FB60BB7906
:103D2C0003F003039B000F2202FA03F3FB60154B15
:103D3C00BA799208D2B21349B8798008C0B202306D
:103D4C0051F82000F968C9430140023243F82210AF
:103D5C000C4BBA799208D2B20A49B8798008C0B231
:103D6C00023051F82000FC79B97901F00301890087
:103D7C0004FA01F10143023243F822101037BD4618
:103D8C0090BC70470000014080B485B000AF7860F3
:103D9C000023FB60324BFB607B689B79002B4DD082
:103DAC002F4B2F4A11687A681268D2430A401A6066
:103DBC002B4B2B4A51687A681268D2430A405A60DE
:103DCC007B681B79FA681344FB60FB68FA6811681E
:103DDC007A6812680A431A60214B214A91687A6802
:103DEC001268D2430A409A601D4B1D4AD1687A680A
:103DFC001268D2430A40DA607B685B79102B0ED1D3
:103E0C00174B174A91687A6812680A439A60144BE8
:103E1C00134AD1687A6812680A43DA601BE0104BC7
:103E2C00FB607B685B79FA681344FB60FB68FA689B
:103E3C0011687A6812680A431A600CE07B681B7977
:103E4C00FA681344FB60FB68FA6811687A681268B8
:103E5C00D2430A401A601437BD465DF8047B7047A4
:103E6C000004014080B485B000AF78600023FB7380
:103E7C000023BB600C4B1A687B681340BB600A4B79
:103E8C005A697B681340002B05D0BB68002B02D00D
:103E9C000123FB7301E00023FB73FB7B18461437F3
:103EAC00BD465DF8047B70470004014080B483B0CC
:103EBC0000AF7860034B7A685A610C37BD465DF8E9
:103ECC00047B70470004014080B487B000AF786079
:103EDC0000237B6100233B610F23FB607B68DB7855
:103EEC00002B38D0264BDB68DB4303F4E0631B0A62
:103EFC007B617B69C3F104033B617B69FA6822FA3D
:103F0C0003F3FB607B685B781A463B6902FA03F3A8
:103F1C007B617B689B781A46FB6813407A69134374
:103F2C007B617B691B017B6116497B681B787A6915
:103F3C00D2B20B4483F80023124B7A6812785209E0
:103F4C00D2B27968097801F01F01012000FA01F161
:103F5C0043F822100EE00B4B7A6812785209D2B259
:103F6C007968097801F01F01012000FA01F1203273
:103F7C0043F822101C37BD465DF8047B704700BF28
:103F8C0000ED00E000E100E070B50E4B0E4D00249A
:103F9C00ED1AAD101E46AC4204D056F824209047C2
:103FAC000134F8E700F080FC084D094B0024ED1AB1
:103FBC00AD101E46AC4204D056F824209047013474
:103FCC00F8E770BD2049000820490008284900087E
:103FDC0020490008024B0146186800F04FB800BF9A
:103FEC0078000020024B0146186800F003B800BFAF
:103FFC007800002030B500293CD051F8042C0B1F60
:10400C001D49002AB8BF9B180A680C4612B95A60A1
:10401C000B6030BD93420DD219685818904203D1F1
:10402C005A581144426819605A60236030BD994255
:10403C0003D80A4651680029F9D1146815199D4214
:10404C000AD11B682344D0188842136012D1086827
:10405C00034413604B680CE002D90C23036030BDA1
:10406C0018681C188C4203D10C68496820441860ED
:10407C005960536030BD00BF0C07002070B5CD1CDB
:10408C0025F0030508350C2D38BF0C25002D0646F0
:10409C003FDB8D423DD3214B1C6818462146A1B114
:1040AC000B685B1B0ED40B2B03D90B60CC18CD50BB
:1040BC001FE08C4202D1626802601AE04B686360B8
:1040CC000C4616E00C464968E9E7154C23681BB909
:1040DC00304600F027F820602946304600F022F8E0
:1040EC00431C014615D0C41C24F0030484420AD19D
:1040FC00256004F10B00231D20F00700C31A0BD020
:10410C005A42E25070BD3046611A00F00BF8013093
:10411C00EED10C233360002070BD00BF0C070020D3
:10412C000807002038B5064C0023054608462360D6
:10413C0000F010F8431C02D1236803B12B6038BD8A
:10414C0020070020034613F8012B002AFBD1181A74
:10415C0001387047094B1A680AB9094A1A601B687A
:10416C006A461844904205D9064B0C221A604FF04F
:10417C00FF307047014A1060184670471007002046
:10418C00240700202007002030B5141E9BB00546E4
:10419C0004DA8B2303604FF0FF301CE04FF4027203
:1041AC0000910491ADF80C2014BF04F1FF312146AD
:1041BC004FF6FF7202910591ADF80E2069461A4632
:1041CC001E9B00F09DF8431CBCBF8B232B6014B1CD
:1041DC00009B00221A701BB030BD000073B5009319
:1041EC00054B06460D461446186831462A462346AA
:1041FC00FFF7CAFF02B070BD7800002010B59AB06E
:10420C00009104916FF00041029105914FF6FF71FE
:10421C00ADF80E104FF402746946ADF80C4000F086
:10422C006FF8009B00221A701AB010BD30B51346FF
:10423C00044A05460C46106829462246BDE8304023
:10424C00FFF7DCBF780000202DE9F0478D68814630
:10425C00AB420C4692461F4643D38B8913F4906FA6
:10426C003DD0266809690222C1EB0608666906EB97
:10427C00460696FBF2F608F101023A44964238BF24
:10428C0016465B050FD53146FFF7F8FE054698B18B
:10429C002169424600F0B4FAA38923F4906343F0F9
:1042AC008003A38113E0324600F0CEFA054670B9C4
:1042BC0048462169FFF79EFE0C23C9F80030A389FC
:1042CC004FF0FF3043F04003A381BDE8F087256138
:1042DC0066614544C8EB06062560A6603D46AF42C4
:1042EC0000D23D462A462068514600F092FAA36857
:1042FC0000205B1BA36023681D442560BDE8F0878C
:10430C002DE9F0439DB003938B8907461C060D469F
:10431C0016460CD50B6953B94021FFF7AFFE286048
:10432C00286110B90C233B60C7E040236B6100236C
:10433C00099320238DF8293030238DF82A30334609
:10434C001C4613F8012B1AB9B4EB06090FD002E086
:10435C00252AF5D1F8E73846294632464B46FFF771
:10436C0073FF013000F0A480099B4B440993237820
:10437C00002B00F09D8000234FF0FF320493079335
:10438C00059206938DF853301A9304F101094D4EA2
:10439C004C4630462178052200F024FA09F1010937
:1043AC00049B28B1861B0120B04003430493EEE725
:1043BC00D90644BF20228DF853201A0744BF2B2264
:1043CC008DF8532022782A2A02D0079B21460EE032
:1043DC00039A111D12680391002A01DB079204E075
:1043EC00524243F002030792049301340AE00C4654
:1043FC0022780131303A092A03D80A2000FB032322
:10440C00F5E7079323782E2B19D163782A2B09D142
:10441C00039B02341A1D1B680392002BB8BF4FF08C
:10442C00FF330BE0611C00230C4622780131303A3B
:10443C00092A03D80A2000FB0323F5E70593224E33
:10444C0021783046032200F0CDF930B1861B402094
:10445C00B040049B01340343049321781B4806228B
:10446C00661C8DF8281000F0BDF988B1184B33B9D3
:10447C00039B073323F007030833039314E003ABC8
:10448C000093384604A92A46124BAFF3008007E08C
:10449C0003AB0093384604A92A460E4B00F08EF865
:1044AC00B0F1FF3F804603D0099B4344099346E794
:1044BC00AB895B0601D4099801E04FF0FF301DB0C9
:1044CC00BDE8F083E2480008E8480008EC48000822
:1044DC0000000000554200082DE9F84315461F4620
:1044EC008A680B6906469A42A8BF13462B6091F85E
:1044FC0043200C46DDF820800AB101332B60236881
:10450C00990602D52B6802332B60236813F0060939
:10451C001DD094F843302268003318BF0123920653
:10452C001FD5E118302081F843005A1C94F845102F
:10453C002244023382F8431013E03046394604F12A
:10454C0019020123C047013007D009F10109E268C3
:10455C002B68D31A9945F0DBDBE74FF0FF30BDE851
:10456C00F8833046394604F14302C0470130F4D099
:10457C0023682A6803F00603E168042B08BFC2EB2A
:10458C0001052369A2680CBF25EAE57500259A424E
:10459C00C4BFC3EB0203ED184FF00009A9450ADABA
:1045AC003046394604F11A020123C0470130D4D0F9
:1045BC0009F10109F2E70020BDE8F8832DE9FF4776
:1045CC000E7E80466E2E0C4691469A460C9D01F14D
:1045DC00430000F0A58011D8632E22D009D8002EFC
:1045EC0000F0AF80582E40F0BF8081F845607B4AC8
:1045FC004FE0642E1ED0692E1CD0B5E0732E00F057
:10460C00A48009D86F2E2BD0702E40F0AD800B6893
:10461C0043F020030B6038E0752E21D0782E34D077
:10462C00A2E02B6801F142071A1D1B682A6081F871
:10463C0042309DE022682B6812F0800F03D01A1DC7
:10464C002A601D6805E05106F9D51A1D2A60B3F9D8
:10465C000050002D39DA2D236D4284F8433034E0BC
:10466C0022682B6812F0800F03D01A1D2A601D6877
:10467C0004E05206F9D51A1D2A601D88237E574A7C
:10468C006F2B14BF0A2308231BE07823544A84F8A9
:10469C0045302368296813F0800F01F104062E6061
:1046AC0001D00D6802E05F06FBD50D88DE0744BF24
:1046BC0043F0200323601DB9236823F020032360FB
:1046CC001023002184F8431001E0444A0A23666851
:1046DC00002EA66003DB216821F00401216005B9DE
:1046EC006EB104F14201B5FBF3F603FB1655555DB3
:1046FC000F4601F801593546002EF4D100E007466B
:10470C00082B0AD12368DD0707D5626823699A4212
:10471C0003DC302307F8013C013FC01B20612CE077
:10472C0009682B6811F0800F626904D0191D29608B
:10473C001B681A6005E04906F8D5191D29601B682D
:10474C001A8000232361074617E02B681A1D2A6084
:10475C001F683846FFF7F6FC63682061984288BFF3
:10476C0023612369636005E004F1420784F8426029
:10477C0001232361002384F84330CDF800A0404688
:10478C00214603AA4B46FFF7A7FE013002D14FF09A
:10479C00FF301FE0404649463A462369D047013076
:1047AC00F5D023689B0705D4E068039B9842B8BFFB
:1047BC0018460FE00025E268039BD31A9D42F3DAFA
:1047CC004046494604F119020123D0470130DED09E
:1047DC000135F0E704B0BDE8F08700BFF3480008EE
:1047EC000449000810B5C9B202449042034605D0F2
:1047FC001C7801308C42F8D1184610BD002010BD39
:10480C0010B50023934203D0CC5CC4540133F9E7B8
:10481C0010BD814270B501D300230EE08C18A0426C
:10482C00FAD28518134613F1FF3305D3514266189B
:10483C00F65C2944CE54F6E770BD934203D0CC5CB1
:10484C00C4540133F9E770BDF8B5064614460D465D
:10485C0021B91146BDE8F840FFF710BC1AB9FFF7B3
:10486C00C9FB2046F8BD00F015F8A0420ED2304628
:10487C002146FFF703FC074650B129462246FFF7B5
:10488C00BFFF30462946FFF7B5FB01E02846F8BDCF
:10489C003846F8BD51F8040C002802DA04390B58DC
:1048AC001844043870470000F8B500BFF8BC08BCC9
:1048BC009E467047F8B500BFF8BC08BC9E467047D2
:1048CC0025690925690925690925690925690925C4
:1048DC00690A00004300232D302B2000686C4C002B
:1048EC0065666745464700303132333435363738E4
:1048FC003941424344454600303132333435363742
:0C490C00383961626364656600000000D9
:08491800E8C0FF7F0100000070
:0849200031010008A520000888
:044928000D01000875
:10492C0000A24A0400000000010203040102030477
:10493C000607080902040608000000000000000039
:10494C00000000000000000000000000000000005B
:10495C000000000000000000E0480008000000001B
:10496C00000000000000000000000000000000003B
:10497C00000000000000000000000000000000002B
:10498C00000000000000000000000000000000001B
:0C499C00000000000000000018000020D7
:0400000508001101DD
:00000001FF
