:020000040800F2
:100000000050002009260008AD250008B925000889
:10001000C1250008C9250008D125000800000000FE
:10002000000000000000000000000000D9250008CA
:10003000E525000800000000F1250008FD25000866
:100040006126000861260008612600086126000874
:100050006126000861260008612600086126000864
:100060006126000861260008612600086126000854
:100070006126000861260008612600086126000844
:100080006126000861260008612600086126000834
:100090006126000861260008612600081129000871
:1000A0006126000861260008612600086126000814
:1000B0006126000861260008612600086126000804
:1000C00061260008612600086126000861260008F4
:1000D00061260008612600086126000861260008E4
:1000E000852900086126000861260008000000003C
:1000F0000000000000000000000000000000000000
:0C01000000000000000000005FF808F1A3
:1001100010B5054C237833B9044B13B10448AFF341
:1001200000800123237010BD380000200000000073
:10013000283F000808B5034B1BB103480349AFF340
:10014000008008BD00000000283F00083C0000209F
:1001500081F0004102E000BF83F0004330B54FEA78
:1001600041044FEA430594EA050F08BF90EA020FE5
:100170001FBF54EA000C55EA020C7FEA645C7FEA78
:10018000655C00F0E2804FEA5454D4EB5555B8BF9B
:100190006D420CDD2C4480EA020281EA030382EA0C
:1001A000000083EA010180EA020281EA0303362D9E
:1001B00088BF30BD11F0004F4FEA01314FF4801C71
:1001C0004CEA113102D0404261EB410113F0004F83
:1001D0004FEA03334CEA133302D0524263EB43033A
:1001E00094EA050F00F0A780A4F10104D5F1200ED8
:1001F0000DDB02FA0EFC22FA05F2801841F1000133
:1002000003FA0EF2801843FA05F359410EE0A5F106
:1002100020050EF1200E012A03FA0EFC28BF4CF037
:10022000020C43FA05F3C01851EBE37101F00045ED
:1002300007D54FF0000EDCF1000C7EEB00006EEBFA
:100240000101B1F5801F1BD3B1F5001F0CD3490884
:100250005FEA30004FEA3C0C04F101044FEA4452DB
:1002600012F5800F80F09A80BCF1004F08BF5FEA62
:10027000500C50F1000041EB045141EA050130BD42
:100280005FEA4C0C404141EB010111F4801FA4F1E5
:100290000104E9D191F0000F04BF01460020B1FA3A
:1002A00081F308BF2033A3F10B03B3F120020CDA72
:1002B0000C3208DD02F1140CC2F10C0201FA0CF050
:1002C00021FA02F10CE002F11402D8BFC2F1200CB5
:1002D00001FA02F120FA0CFCDCBF41EA0C0190406B
:1002E000E41AA2BF01EB0451294330BD6FEA0404B4
:1002F0001F3C1CDA0C340EDC04F11404C4F120029F
:1003000020FA04F001FA02F340EA030021FA04F3B0
:1003100045EA030130BDC4F10C04C4F1200220FA07
:1003200002F001FA04F340EA0300294630BD21FA45
:1003300004F0294630BD94F0000F83F4801306BF0B
:1003400081F480110134013D4EE77FEA645C18BFFF
:100350007FEA655C29D094EA050F08BF90EA020F96
:1003600005D054EA000C04BF1946104630BD91EA8E
:10037000030F1EBF0021002030BD5FEA545C05D191
:100380004000494128BF41F0004130BD14F58004D0
:100390003CBF01F5801130BD01F0004545F0FE4144
:1003A00041F470014FF0000030BD7FEA645C1ABF79
:1003B000194610467FEA655C1CBF0B46024650EAB0
:1003C000013406BF52EA033591EA030F41F40021DC
:1003D00030BD00BF90F0000F04BF0021704730B562
:1003E0004FF4806404F132044FF000054FF0000137
:1003F00050E700BF90F0000F04BF0021704730B5F8
:100400004FF4806404F1320410F0004548BF4042CC
:100410004FF000013EE700BF42004FEAE2014FEA21
:1004200031014FEA02701FBF12F07F4393F07F4FFC
:1004300081F06051704792F0000F14BF93F07F4F2E
:10044000704730B54FF4607401F0004521F0004171
:1004500020E700BF50EA010208BF704730B54FF0F7
:1004600000050AE050EA010208BF704730B511F0FC
:10047000004502D5404261EB41014FF4806404F134
:1004800032045FEA915C3FF4DCAE4FF003025FEAB6
:10049000DC0C18BF03325FEADC0C18BF033202EB3E
:1004A000DC02C2F1200300FA03FC20FA02F001FA98
:1004B00003FE40EA0E0021FA02F11444C1E600BF37
:1004C00070B54FF0FF0C4CF4E06C1CEA11541DBFEA
:1004D0001CEA135594EA0C0F95EA0C0F00F0DEF8B5
:1004E0002C4481EA030621EA4C5123EA4C5350EA9A
:1004F000013518BF52EA033541F4801143F48013EB
:1005000038D0A0FB02CE4FF00005E1FB02E506F07B
:100510000042E0FB03E54FF00006E1FB03569CF0D0
:10052000000F18BF4EF0010EA4F1FF04B6F5007FD6
:1005300064F5407404D25FEA4E0E6D4146EB060648
:1005400042EAC62141EA55514FEAC52040EA5E50D1
:100550004FEACE2EB4F1FD0C88BFBCF5E06F1ED87B
:10056000BEF1004F08BF5FEA500E50F1000041EBB2
:10057000045170BD06F0004646EA010140EA02005F
:1005800081EA0301B4EB5C04C2BFD4EB0C0541EA81
:10059000045170BD41F480114FF0000E013C00F396
:1005A000AB8014F1360FDEBF002001F0004170BDBA
:1005B000C4F10004203C35DA0C341BDC04F11404D3
:1005C000C4F1200500FA05F320FA04F001FA05F25F
:1005D00040EA020001F0004221F0004110EBD3702C
:1005E00021FA04F642EB06015EEA430E08BF20EA58
:1005F000D37070BDC4F10C04C4F1200500FA04F3FB
:1006000020FA05F001FA04F240EA020001F000418C
:1006100010EBD37041F100015EEA430E08BF20EAFF
:10062000D37070BDC4F1200500FA05F24EEA020E47
:1006300020FA04F301FA05F243EA020321FA04F076
:1006400001F0004121FA04F220EA020000EBD3702D
:100650005EEA430E08BF20EAD37070BD94F0000F2D
:100660000FD101F00046400041EB010111F4801F61
:1006700008BF013CF7D041EA060195F0000F18BF12
:10068000704703F00046520043EB030313F4801F4E
:1006900008BF013DF7D043EA0603704794EA0C0F08
:1006A0000CEA135518BF95EA0C0F0CD050EA41061E
:1006B00018BF52EA4306D1D181EA030101F000419B
:1006C0004FF0000070BD50EA410606BF10461946C3
:1006D00052EA430619D094EA0C0F02D150EA0136CF
:1006E00013D195EA0C0F05D152EA03361CBF104610
:1006F00019460AD181EA030101F0004141F0FE41AF
:1007000041F470014FF0000070BD41F0FE4141F432
:10071000780170BD70B54FF0FF0C4CF4E06C1CEA32
:1007200011541DBF1CEA135594EA0C0F95EA0C0FE7
:1007300000F0A7F8A4EB050481EA030E52EA0335A2
:100740004FEA013100F088804FEA03334FF08055C3
:1007500045EA131343EA12634FEA022245EA1115F0
:1007600045EA10654FEA00260EF000419D4208BFA1
:10077000964244F1FD0404F5407402D25B084FEA4E
:100780003202B61A65EB03055B084FEA32024FF4FA
:1007900080104FF4002CB6EB020E75EB030E22BF57
:1007A000B61A754640EA0C005B084FEA3202B6EB17
:1007B000020E75EB030E22BFB61A754640EA5C00C6
:1007C0005B084FEA3202B6EB020E75EB030E22BF56
:1007D000B61A754640EA9C005B084FEA3202B6EB57
:1007E000020E75EB030E22BFB61A754640EADC0016
:1007F00055EA060E18D04FEA051545EA16754FEA78
:1008000006164FEAC30343EA52734FEAC2025FEA95
:100810001C1CC0D111F4801F0BD141EA00014FF024
:1008200000004FF0004CB6E711F4801F04BF0143F5
:100830000020B4F1FD0C88BFBCF5E06F3FF6AFAE11
:10084000B5EB030C04BFB6EB020C5FEA500C50F1A1
:10085000000041EB045170BD0EF0004E4EEA113124
:1008600014EB5C04C2BFD4EB0C0541EA045170BD2B
:1008700041F480114FF0000E013C90E645EA060E6F
:100880008DE60CEA135594EA0C0F08BF95EA0C0F9D
:100890003FF43BAF94EA0C0F0AD150EA01347FF4E5
:1008A00034AF95EA0C0F7FF425AF104619462CE7BC
:1008B00095EA0C0F06D152EA03353FF4FDAE10461F
:1008C000194622E750EA410618BF52EA43067FF470
:1008D000C5AE50EA41047FF40DAF52EA43057FF400
:1008E000EBAE12E74FEA4102B2F1E04324BFB3F5A9
:1008F000001CDCF1FE5C0DD901F0004C4FEAC00297
:100900004CEA5070B2F1004F40EB830008BF20F07A
:100910000100704711F0804F21D113F13872BCBF34
:1009200001F00040704741F480114FEA5252C2F189
:100930001802C2F1200C10FA0CF320FA02F018BFD2
:1009400040F001004FEAC1234FEAD32303FA0CFC25
:1009500040EA0C0023FA02F34FEA4303CCE77FEAB4
:10096000625307D150EA01331EBF4FF0FE4040F4FE
:100970004000704701F0004040F0FE4040F40000AD
:10098000704700BF80F0004002E000BF81F00041EE
:1009900042001FBF5FEA410392EA030F7FEA226C25
:1009A0007FEA236C6AD04FEA1262D2EB1363C1BFB5
:1009B000D218414048404140B8BF5B42192B88BF24
:1009C000704710F0004F40F4000020F07F4018BF47
:1009D000404211F0004F41F4000121F07F4118BF67
:1009E000494292EA030F3FD0A2F1010241FA03FC0F
:1009F00010EB0C00C3F1200301FA03F100F00043F7
:100A000002D5494260EB4000B0F5000F13D3B0F1BE
:100A1000807F06D340084FEA310102F10102FE2A2D
:100A200051D2B1F1004F40EBC25008BF20F001009D
:100A300040EA03007047490040EB000010F4000F4B
:100A4000A2F10102EDD1B0FA80FCACF1080CB2EBDE
:100A50000C0200FA0CF0AABF00EBC250524218433D
:100A6000BCBFD0401843704792F0000F81F40001E2
:100A700006BF80F400000132013BB5E74FEA4103B5
:100A80007FEA226C18BF7FEA236C21D092EA030F21
:100A900004D092F0000F08BF0846704790EA010F9B
:100AA0001CBF0020704712F07F4F04D1400028BFC8
:100AB00040F00040704712F100723CBF00F50000AA
:100AC000704700F0004343F0FE4040F400007047E0
:100AD0007FEA226216BF08467FEA2363014642028C
:100AE00006BF5FEA412390EA010F40F4800070479F
:100AF0004FF0000304E000BF10F0004348BF404245
:100B00005FEA000C08BF704743F0964301464FF080
:100B100000001CE050EA010208BF70474FF00003DC
:100B20000AE000BF50EA010208BF704711F000431D
:100B300002D5404261EB41015FEA010C02BF8446ED
:100B40000146002043F0B64308BFA3F18053A3F54C
:100B50000003BCFA8CF2083AA3EBC25310DB01FA93
:100B600002FC634400FA02FCC2F12002BCF1004F17
:100B700020FA02F243EB020008BF20F001007047A8
:100B800002F1200201FA02FCC2F1200250EA4C00FC
:100B900021FA02F243EB020008BF20EADC70704742
:100BA0004FF0FF0C1CEAD0521EBF1CEAD15392EA50
:100BB0000C0F93EA0C0F6FD01A4480EA010C40022C
:100BC00018BF5FEA41211ED04FF0006343EA501086
:100BD00043EA5111A0FB01310CF00040B1F5000FC8
:100BE0003EBF490041EAD3715B0040EA010062F177
:100BF0007F02FD2A1DD8B3F1004F40EBC25008BF61
:100C000020F00100704790F0000F0CF0004C08BF7E
:100C100049024CEA502040EA51207F3AC2BFD2F14B
:100C2000FF0340EAC250704740F400004FF0000359
:100C3000013A5DDC12F1190FDCBF00F00040704793
:100C4000C2F10002410021FA02F1C2F1200200FAD1
:100C500002FC5FEA310040F1000053EA4C0308BF98
:100C600020EADC70704792F0000F00F0004C02BFE9
:100C7000400010F4000F013AF9D040EA0C0093F064
:100C8000000F01F0004C02BF490011F4000F013BBE
:100C9000F9D041EA0C018FE70CEAD15392EA0C0F2C
:100CA00018BF93EA0C0F0AD030F0004C18BF31F097
:100CB000004CD8D180EA010000F00040704790F06D
:100CC000000F17BF90F0004F084691F0000F91F011
:100CD000004F14D092EA0C0F01D142020FD193EAD7
:100CE0000C0F03D14B0218BF084608D180EA01005F
:100CF00000F0004040F0FE4040F40000704740F03B
:100D0000FE4040F4400070474FF0FF0C1CEAD05208
:100D10001EBF1CEAD15392EA0C0F93EA0C0F69D064
:100D2000A2EB030280EA010C49024FEA402037D0CF
:100D30004FF0805343EA111143EA10130CF00040C6
:100D40008B4238BF5B0042F17D024FF4000C8B42B6
:100D500024BF5B1A40EA0C00B3EB510F24BFA3EB96
:100D6000510340EA5C00B3EB910F24BFA3EB910366
:100D700040EA9C00B3EBD10F24BFA3EBD10340EAC0
:100D8000DC001B0118BF5FEA1C1CE0D1FD2A3FF606
:100D900050AF8B4240EBC25008BF20F001007047BB
:100DA0000CF0004C4CEA50207F32C2BFD2F1FF035E
:100DB00040EAC250704740F400004FF00003013A8F
:100DC00037E792F0000F00F0004C02BF400010F433
:100DD000000F013AF9D040EA0C0093F0000F01F047
:100DE000004C02BF490011F4000F013BF9D041EA69
:100DF0000C0195E70CEAD15392EA0C0F08D142029C
:100E00007FF47DAF93EA0C0F7FF470AF084676E76E
:100E100093EA0C0F04D14B023FF44CAF08466EE747
:100E200030F0004C18BF31F0004CCAD130F0004215
:100E30007FF45CAF31F000437FF43CAF5FE700BF6D
:100E40004FF0FF3C06E000BF4FF0010C02E000BF96
:100E50004FF0010C4DF804CD4FEA40024FEA410338
:100E60007FEA226C18BF7FEA236C11D001B052EAEE
:100E7000530C18BF90EA010F58BFB2EB030088BFB4
:100E8000C81738BF6FEAE17018BF40F00100704723
:100E90007FEA226C02D15FEA402C05D17FEA236C05
:100EA000E4D15FEA412CE1D05DF8040B704700BF4C
:100EB000844608466146FFE70FB5FFF7C9FF0028E3
:100EC00048BF10F1000F0FBD4DF808EDFFF7F4FF1C
:100ED0000CBF012000205DF808FB00BF4DF808EDB5
:100EE000FFF7EAFF34BF012000205DF808FB00BFD8
:100EF0004DF808EDFFF7E0FF94BF012000205DF8FA
:100F000008FB00BF4DF808EDFFF7D2FF94BF0120AA
:100F100000205DF808FB00BF4DF808EDFFF7C8FFA3
:100F200034BF012000205DF808FB00BF4FEA4002FB
:100F3000B2F1FE4F0FD34FF09E03B3EB12620DD907
:100F40004FEA002343F0004310F0004F23FA02F071
:100F500018BF404270474FF00000704712F1610F18
:100F600001D1420205D110F0004008BF6FF00040EF
:100F700070474FF0000070474BB942B9002908BFD5
:100F8000002802D04FF0FF31084600F03BB882B095
:100F9000EC462DE9005000F01DF8DDF804E002B049
:100FA0000CBC70472DE9704F089E14461D468046C4
:100FB000894600F029F804FB01F3A4FB00AB00FB19
:100FC00005329344B8EB0A0869EB0B09C6E90089BE
:100FD000BDE8708F2DE9704F089E14461D4680466F
:100FE000894600F061F900FB05F5A0FB04AB04FBAA
:100FF0000154A344B8EB0A0869EB0B09C6E9008960
:10100000BDE8708F704700BF00292DE9F00FC0F2D6
:10101000A1800024002BC0F29880154606460F469A
:10102000002B3FD18A4258D9B2FA82F34BB1C3F1B7
:10103000200201FA03F720FA02F29D4000FA03F6BB
:101040001743290CB7FBF1F201FB1277A8B200FBA2
:1010500002F34FEA164C4CEA0747BB4209D97F1905
:1010600002F1FF3C80F00581BB4240F20281023A6E
:101070002F44FF1AB7FBF1F301FB137100FB03F0E0
:10108000B6B246EA0141884208D9491903F1FF374F
:1010900080F0F180884240F2EE80023B43EA024257
:1010A000002303E08B420AD900231A461046194652
:1010B00014B1404261EB4101BDE8F00F7047B3FA53
:1010C00083F8B8F1000F40F088808B4202D382424F
:1010D00000F2E28000230122E8E712B90123B3FB0A
:1010E000F2F5B5FA85F2002A3AD17F1B280C1FFAD7
:1010F00085FC0123B7FBF0F100FB11770CFB01F23B
:101100004FEA164848EA0747BA4207D97F1901F162
:10111000FF3802D2BA4200F2C4804146BF1AB7FB80
:10112000F0F200FB12700CFB02FCB6B246EA004083
:10113000844507D9401902F1FF3702D2844500F2F5
:10114000AE803A4642EA0142B0E7E443524263EBE2
:10115000430362E7404261EB41014FF0FF3459E73E
:101160009540C2F1200927FA09F126FA09F99740BA
:10117000280CB1FBF0F800FB18111FFA85FC0CFBE2
:1011800008F349EA07094FEA194747EA01418B4248
:1011900006FA02F608D9491908F1FF327AD28B42D1
:1011A00078D9A8F102082944C91AB1FBF0F300FB71
:1011B00013170CFB03F21FFA89F949EA0747BA42F1
:1011C00007D97F1903F1FF3160D2BA425ED9023BE1
:1011D0002F44BF1A43EA08438CE7C8F1200225FADE
:1011E00002F103FA08FC27FA02F320FA02F207FAE6
:1011F00008F741EA0C0C4FEA1C49B3FBF9F109FB73
:1012000011331FFA8CFA0AFB01FB17433A0C42EA2E
:1012100003439B4505FA08F008D913EB0C0301F1D1
:10122000FF3235D29B4533D902396344CBEB0303FC
:10123000B3FBF9F209FB12330AFB02FABFB247EA29
:101240000347BA4508D917EB0C0702F1FF331BD24D
:10125000BA4519D9023A674442EA0145A5FB0001A3
:10126000CAEB07078F424FF000030AD305D02A4686
:101270001CE76246FDE63B4610E706FA08F68642A2
:10128000F5D26A1E002311E71A46E5E70B46A0E7F0
:101290001146CBE7904687E74346424606E7023AC7
:1012A00050E702392F4439E72DE9F00F144605467F
:1012B0000E46002B43D18A4253D9B2FA82F757B176
:1012C000C7F1200620FA06F601FA07F302FA07F43E
:1012D00000FA07F51E43210CB6FBF1F201FB126682
:1012E000A0B200FB02F32F0C47EA0646B34209D92D
:1012F000361902F1FF3780F0FD80B34240F2FA80E8
:10130000023A2644F61AB6FBF1F301FB136100FB27
:1013100003F0ADB245EA0141884208D9091903F149
:10132000FF3680F0E980884240F2E680023B43EAE3
:101330000242002310461946BDE8F00F70478B4269
:101340004CD8B3FA83F6002E4FD18B4202D382429F
:1013500000F2DD80BDE8F00F00230122104619469F
:10136000704712B90124B4FBF2F4B4FA84F2002AF3
:1013700040F08280091B260CA7B20123B1FBF6F0D6
:1013800006FB101107FB00F24FEA154C4CEA014135
:101390008A4207D9091900F1FF3C02D28A4200F2C1
:1013A000C8806046891AB1FBF6F206FB121107FBF2
:1013B00002F7ADB245EA0145AF4208D92C1902F156
:1013C000FF3180F09B80A74240F29880023A42EAC7
:1013D000004210461946BDE8F00F704700231A4638
:1013E00010461946BDE8F00F7047C6F1200522FAF5
:1013F00005F703FA06F421FA05F301FA06FB20FAD1
:1014000005F53C434FEA1448B3FBF8FC08FB1C33DA
:101410001FFA84F909FB0CFA45EA0B0B4FEA1B454E
:1014200045EA03439A4502FA06F204D91B190CF166
:10143000FF356FD3AC46CAEB0303B3FBF8F508FBEB
:10144000153309FB05F91FFA8BFB4BEA0347B94536
:1014500004D93F1905F1FF3362D31D4645EA0C4C10
:10146000ACFB0223C9EB07079F424FF000054AD3AC
:1014700046D062462B465DE79440C2F1200921FA2E
:1014800009FC914020FA09F9260CBCFBF6F806FB92
:1014900018CCA7B207FB08F349EA01094FEA194142
:1014A00041EA0C4C634500FA02F509D91CEB040C27
:1014B00008F1FF323BD2634539D9A8F10208A444B0
:1014C000C3EB0C0CBCFBF6F306FB13C107FB03F2EA
:1014D0001FFA89F949EA01418A4207D9091903F13A
:1014E000FF3022D28A4220D9023B2144891A43EAA2
:1014F000084343E73A4605E7334618E70A4666E7F6
:10150000B0409042B5D20CF1FF32002312E73346CF
:1015100032460FE79A458DD9ACF1020C23448AE795
:10152000B9459AD9023D274498E70346DEE790463D
:10153000C6E70238214435E780B582B000AF03200A
:10154000012102F07BF80C20012102F059F801235F
:10155000BB801023FB710323BB713B1D76481946EA
:1015600002F08CFA8023BB803B1D7448194602F0C0
:1015700085FA4023BB803B1D7048194602F07EFA75
:101580000223BB803B1D6D48194602F077FA6C4878
:101590006A491022102301F029FD6A486749202278
:1015A000102301F023FD01F0B5F867486749684A48
:1015B00001F04EFB6448692120220F2301F0AAFBB1
:1015C000614869212322902301F0A4FBFA2001F055
:1015D000F5FD604B00221A6078E05E4B19685E4BA7
:1015E00081FB03230B44DA10CB17D21A13461B01DD
:1015F0009B1ACA1A002A14D15048102102F0FAFA94
:101600000346002B0CBF00230123DBB2002B04D0C8
:101610004A48102102F016FB03E04848102102F06E
:1016200003FB00F091FB4D4BD3E900014C4BD3E998
:101630000023FEF793FD02460B464849C1E900230B
:10164000484BD3E90001484BD3E90023FEF786FD60
:1016500002460B464349C1E90023444BD3E900014C
:10166000434BD3E90023FEF779FD02460B463F4981
:10167000C1E900233148022102F0D6FA2F48402167
:1016800002F0D2FA2D48802102F0CEFA2A48012138
:1016900002F0CAFA4FF47A7001F0B2FD2748022135
:1016A00002F0D0FA2548402102F0CCFA23488021EC
:1016B00002F0C8FA2048012102F0C4FA032001F028
:1016C0007DFD244B1B685A1C224B1A60214B1B6862
:1016D000B3F5FA6F81DB214BD3E90023104619469D
:1016E0004FF00002234BFFF715F802460B461B494B
:1016F000C1E900231B4BD3E90023104619464FF0E4
:1017000000021C4BFFF706F802460B461549C1E9DB
:101710000023164BD3E90023104619464FF0000270
:10172000144BFEF7F7FF02460B461049C1E90023B0
:101730000837BD4680BD00BF000C014000080140D5
:101740000C0100201401002008010020005400407A
:10175000A08601009000002089888888B0000020C1
:10176000A0000020B800002098000020C000002049
:10177000A800002000409F40B0B584B004AF00F046
:10178000E3FAA14B1B681846FEF746FE02460B46DD
:101790001046194696A3D3E90023FEF791FE0246B0
:1017A0000B4614461D46994BD3E9002310461946B3
:1017B00091A3D3E90023FEF7ADFF02460B46104686
:1017C00019468FA3D3E90023FEF77AFE02460B46A3
:1017D00020462946FEF7C2FC02460B461046194633
:1017E000FFF780F80246884B1A60894B1B68184641
:1017F000FEF712FE02460B46104619467CA3D3E9BB
:101800000023FEF75DFE02460B4614461D46814B43
:10181000D3E900231046194677A3D3E90023FEF746
:1018200079FF02460B461046194675A3D3E90023FB
:10183000FEF746FE02460B4620462946FEF78EFC82
:1018400002460B4610461946FFF74CF80246704B0D
:101850001A60714B1B681846FEF7DEFD02460B4608
:101860001046194662A3D3E90023FEF729FE02467B
:101870000B4614461D46694BD3E900231046194612
:101880005DA3D3E90023FEF745FF02460B46104651
:1018900019465BA3D3E90023FEF712FE02460B466E
:1018A00020462946FEF75AFC02460B4610461946CA
:1018B000FFF718F80246584B1A60594B5B681A46F6
:1018C000584B1A60564B1B687822009240F2AA527D
:1018D000019240F20E62029218464FF47A714FF470
:1018E000FA626FF0770300F023FD03461846FFF716
:1018F00003F902464C4B1A60494BDB687822009290
:1019000040F2AA52019240F20E62029218464FF43F
:101910007A714FF4FA626FF0770300F009FD034625
:101920001846FFF7E9F80246404B1A603C4B9B68AB
:101930007822009240F2AA52019240F20E62029284
:1019400018464FF47A714FF4FA626FF0770300F0A3
:10195000EFFC03461846FFF7CFF80246344B1A60F7
:1019600000F088FA2F4B1B68B3F5966F40F30B819C
:101970002C4B1B68B3F5E16F03DD2A4B4FF4E1629A
:101980001A60284B1B681846FFF7B6F80246294B29
:101990001B6810461946FEF7FBFF03461A46264B06
:1019A0001B6810461946FEF7F3FF03461A46234B01
:1019B0001B6810461946FEF7E9FF03461846FFF775
:1019C000B5FA02461E4B1A60164B1B681846FFF705
:1019D00093F80246174B1B6810461946FEF7D6FFD0
:1019E00003461A46144B1B6810462BE0AFF30080E9
:1019F0009A9999999999E93F0AF4893C49924C40FE
:101A00009A9999999999C93FD4000020A000002083
:101A1000E800002098000020FC000020A800002022
:101A2000C001002078000020F8000020D000002035
:101A3000E4000020EC000020D8000020000100207D
:101A4000680000201946FEF7A3FF03461A467E4BA6
:101A50001B6810461946FEF79BFF03461846FFF722
:101A600065FA0246794B1A60794B1B681846FFF7F6
:101A700043F80246774B1B6810461946FEF786FF6F
:101A800003461A46744B1B6810461946FEF77EFF44
:101A900003461A466C4B1B6810461946FEF776FF44
:101AA00003461846FFF742FA02466C4B1A60684B31
:101AB0001B681846FFF720F80246664B1B68104665
:101AC0001946FEF765FF03461A46634B1B6810462E
:101AD0001946FEF75BFF03461A465B4B1B68104630
:101AE0001946FEF755FF03461846FFF71FFA024650
:101AF0005B4B1A605B4B1B68B3F5966F03DA594B6F
:101B00004FF496621A60514B1B68B3F5966F03DA77
:101B10004E4B4FF496621A60504B1B68B3F5966FAC
:101B200003DA4E4B4FF496621A604D4B1B68B3F5C7
:101B3000966F03DA4A4B4FF496621A60494B1B6862
:101B4000B3F5FA6F03DD474B4FF4FA621A603F4B6F
:101B50001B68B3F5FA6F03DD3C4B4FF4FA621A6071
:101B60003E4B1B68B3F5FA6F03DD3C4B4FF4FA6252
:101B70001A603B4B1B68B3F5FA6F15DD384B4FF419
:101B8000FA621A6010E0374B4FF47A721A602F4BEA
:101B90004FF47A721A60314B4FF47A721A60304BFC
:101BA0004FF47A721A60FFE700BF01F0F9FA2E4B8A
:101BB0001B681A464FF00003821A61EB030340F6DC
:101BC0009F704FF00001994208BF904234BF00233C
:101BD0000123DBB2002BE8D101F0E2FA02460B460A
:101BE000214B1A602148022102F01EF81F484021B3
:101BF00002F01AF81D48802102F016F81C48012155
:101C000002F012F8174B1B681A46174B1B681A4450
:101C1000184B1A600D4B1B681A46134B1B681A446D
:101C2000154B1A600D4B1B681A460F4B1B681A4464
:101C3000124B1A600A4B1B681A460B4B1B681A445E
:101C40000F4B1A604CE000BF000100206C00002028
:101C500078000020EC000020D80000207000002058
:101C6000740000206800002094000020000801405B
:101C7000000C01407C000020800000208400002037
:101C80008800002001F08CFA02460B46264B1A60B1
:101C9000264B1A68244B1B689A4203D82448022119
:101CA00001F0D0FF234B1A681F4B1B689A4203D8E0
:101CB0001F48402101F0C6FF1F4B1A681A4B1B68D2
:101CC0009A4203D81A48802101F0BCFF1B4B1A68C6
:101CD000154B1B689A4203D81948012101F0B2FF45
:101CE0001348022101F086FF03461C46104840219C
:101CF00001F080FF03462343DCB20D48802101F050
:101D000079FF03462343DCB20D48012101F072FF45
:101D100003462343DBB2002B0CBF00230123DBB2BD
:101D2000002BAFD1BD46B0BD8C0000207C00002050
:101D3000000801408000002084000020880000206E
:101D4000000C0140AFF30080B0B584B002AF3B4659
:101D5000009340486921A822062301F073F87B789C
:101D60001B029AB23B7813439BB21BB21846FEF794
:101D7000C3FE03461846FEF74FFB02460B463649A4
:101D8000C1E90023354B1B68B3F5FA6F0CD1324B18
:101D9000D3E90001324BD3E90023FEF7DDF9024617
:101DA0000B462D49C1E90023FB781B029AB2BB7890
:101DB00013439BB21BB21846FEF79EFE034618461D
:101DC000FEF72AFB02460B462649C1E90023234BB6
:101DD0001B68B3F5FA6F0CD1224BD3E90001224BFB
:101DE000D3E90023FEF7B8F902460B461D49C1E9C5
:101DF00000237B791B029AB23B7913439BB21BB23F
:101E00001846FEF779FE03461846FEF705FB024624
:101E10000B461649C1E90023144BD3E900231446AD
:101E200083F00045114BC3E900450C4B1B68B3F52B
:101E3000FA6F0CD10D4BD3E900010D4BD3E9002310
:101E4000FEF78AF902460B460849C1E90023083724
:101E5000BD46B0BD08010020A00000209000002079
:101E6000B000002098000020B8000020A80000204A
:101E7000C000002098B500AF744B1A68744B1B6803
:101E800010461946FEF782FD03461A46714B1A604A
:101E9000714B1A686F4B1B6810461946FEF780FE9F
:101EA00003461A466D4B1B6810461946FEF770FD37
:101EB00003461A46694B1A60694B1B681846FEF7C1
:101EC0001BFE0246654B1B6810461946FFF706F8D5
:101ED0000346002B08D0624B1B681846FEF70CFE29
:101EE00002465E4B1A6018E05D4B1B685B42184669
:101EF000FEF702FE0246594B1B6810461946FFF7D3
:101F00000BF80346002B08D0554B1B685B42184664
:101F1000FEF7F2FD0246514B1A60524B1A684D4BC8
:101F20001B6810461946FEF73BFE03461A464B4B0C
:101F30001B6810461946FEF72BFD03461C46454B11
:101F40001A68494B1B6810461946FEF71FFD0346E9
:101F50001A46464B1B6810461946FEF721FE0346FB
:101F600020461946FEF714FD03461A46404B1A60F8
:101F70003B4B1B681846FEF7BFFD02463C4B1B68F7
:101F800010461946FEF7AAFF0346002B08D0344B33
:101F90001B681846FEF7B0FD0246354B1A6018E084
:101FA0002F4B1B685B421846FEF7A6FD0246304BDE
:101FB0001B6810461946FEF7AFFF0346002B08D0FA
:101FC000274B1B685B421846FEF796FD0246284BDE
:101FD0001A60204B1A68244B1A60264B1A68264B4D
:101FE0001B6810461946FEF7D1FC03461A46194BEA
:101FF0001A60224B1A68174B1B6810461946FEF7E9
:10200000CFFD03461A461E4B1B6810461946FEF7C5
:10201000BFFC03461A461A4B1A601A4B1B68184637
:10202000FEF76AFD0246164B1B6810461946FEF77E
:1020300055FF0346002B27D0124B1B681846FEF7AE
:102040005BFD02460E4B1A6037E000BFD400002053
:10205000D0000020C800002004000020CC00002098
:102060000C00002000000020DC0000200800002000
:10207000D8000020E8000020E400002058000020E4
:10208000E000002060000020864B1B685B42184681
:10209000FEF732FD0246844B1B6810461946FEF7D8
:1020A0003BFF0346002B08D07E4B1B685B42184663
:1020B000FEF722FD02467C4B1A607C4B1A687C4B73
:1020C0001B6810461946FEF76BFD03461A46764B11
:1020D0001B6810461946FEF75BFC03461C46744B12
:1020E0001A68744B1B6810461946FEF74FFC0346EE
:1020F0001A46714B1B6810461946FEF751FD034600
:1021000020461946FEF744FC03461A466B4B1A60FC
:10211000644B1B681846FEF7EFFC0246674B1B68D2
:1021200010461946FEF7DAFE0346002B08D05D4B39
:102130001B681846FEF7E0FC0246604B1A6018E088
:10214000584B1B685B421846FEF7D6FC02465B4BB9
:102150001B6810461946FEF7DFFE0346002B08D029
:10216000504B1B685B421846FEF7C6FC0246534BB9
:102170001A604F4B1A684F4B1A60514B1A68514BFB
:102180001B6810461946FEF701FC03461A46484BE9
:102190001A604D4B1A68464B1B6810461946FEF7ED
:1021A000FFFC03461A46494B1B6810461946FEF7CA
:1021B000EFFB03461A46454B1A60454B1B68184611
:1021C000FEF79AFC0246414B1B6810461946FEF783
:1021D00085FE0346002B08D03D4B1B681846FEF7D2
:1021E0008BFC0246394B1A6018E0394B1B685B4286
:1021F0001846FEF781FC0246344B1B681046194610
:10220000FEF78AFE0346002B08D0314B1B685B4269
:102210001846FEF771FC02462C4B1A602D4B1A68CB
:10222000234B1B6810461946FEF7BAFC03461A46B4
:10223000264B1B6810461946FEF7AAFB03461C46B0
:102240001B4B1A68244B1B6810461946FEF79EFB71
:1022500003461A46214B1B6810461946FEF7A0FCA0
:10226000034620461946FEF793FB03461A461C4BCD
:102270001A60174B1B681846FEF73EFC0246184BC7
:102280001B6810461946FEF729FE0346002B29D08D
:102290000F4B1B681846FEF72FFC0246104B1A60C6
:1022A00039E000BF60000020E00000205400002062
:1022B000C8000020F00000205C000020EC0000209E
:1022C000FC000020F800002014000020F400002092
:1022D00018000020100000200401002064000020ED
:1022E000000100200E4B1B685B421846FEF704FC01
:1022F00002460C4B1B6810461946FEF70DFE0346BE
:10230000002B08D0064B1B685B421846FEF7F4FB17
:102310000246044B1A60044B1A68044B1A6098BDBD
:102320001800002000010020C80000200401002047
:1023300080B487B000AFF860B9607A603B6000237A
:102340007B61FA68BB6A9A420ADAFA687B6A9A4247
:1023500006DD3A683B6A1344DA0F13445B101CE055
:10236000FA68BB68D31A396A3A688A1A02FB03F220
:102370007968BB68CB1A92FBF3F23B6813447B612C
:102380007A693B6A9A4201DD3B6A06E07A693B68FA
:102390009A4201DA3B6800E07B6918461C37BD466B
:1023A0005DF8047B704700BF80B582B000AF7860F5
:1023B00039607B68012B1DD13A684FF6FF739A4252
:1023C00018D10E4B1A680E4B1A600E4B1A680E4B42
:1023D0001A600E4B1A680E4B1A600E4B1A680E4BA1
:1023E0001A600E4800F028FC0D4800F0F3FD0D487F
:1023F00000F0F0FD0837BD4680BD00BF00000020A2
:102400005400002004000020580000200800002094
:102410005C0000200C00002060000020080100206B
:102420000C0100201401002080B500AF01204FF600
:10243000FF71FFF7B9FF80BD80B500AF154B154A9E
:10244000126842F001021A60124A124B5968124B8C
:102450000B4053600F4A0F4B1B6823F0847323F427
:10246000803313600B4B0B4A126822F480221A60EF
:10247000084B084A526822F4FE025A60054B4FF49A
:102480001F029A6000F00CF8044B4FF000629A6053
:1024900080BD00BF001002400000FFF800ED00E02A
:1024A00080B500AF00F002F880BD00BF80B483B0FB
:1024B00000AF00237B6000233B603A4B394A12682F
:1024C00042F480321A60374B1B6803F400333B60E0
:1024D0007B6801337B603B68002B03D17B68B3F5DD
:1024E000A06FF0D12F4B1B6803F40033002B02D0F8
:1024F00001233B6001E000233B603B68012B4BD193
:10250000294B294A126842F010021A60264B264ACB
:10251000126822F003021A60234B234A126842F029
:1025200002021A601F4B1F4A52685A601D4B1D4A17
:1025300052685A601B4B1B4A526842F480625A60D0
:10254000184B184A526822F47C125A60154B154AEF
:10255000526842F4E8125A60124B124A126842F072
:1025600080721A6000BF0F4B1B6803F00073002BD2
:10257000F9D00C4B0B4A526822F003025A60094B07
:10258000084A526842F002025A6000BF054B5B687D
:1025900003F00C03082BF9D10C37BD465DF8047B22
:1025A000704700BF001002400020024080B400AF1E
:1025B000BD465DF8047B704780B400AFFEE700BF06
:1025C00080B400AFFEE700BF80B400AFFEE700BFFD
:1025D00080B400AFFEE700BF80B400AFBD465DF839
:1025E000047B704780B400AFBD465DF8047B704744
:1025F00080B400AFBD465DF8047B704780B500AF86
:1026000000F020FE80BD00BFDFF83CD0002100F0CC
:1026100004B80E4B5B58435004310D480D4B421823
:102620009A42FFF4F6AF0C4A00F003B8002342F8D8
:10263000043B0A4B9A42FFF4F9AFFFF7FDFE01F0AD
:102640004DFC00F09FFA704700500020583F0008F2
:10265000000000203400002038000020100200207C
:10266000FFF7FEBF80B483B000AF78607B68184688
:102670000C37BD465DF8047B704700BF80B483B063
:1026800000AF78607B6818460C37BD465DF8047B68
:10269000704700BF80B582B000AF786039607B685A
:1026A000012B1CD13A684FF6FF739A4217D10D489F
:1026B00000F0C2FA0C48FFF7E1FF0C48FFF7D2FF29
:1026C0000B4800F087FC0B4800F084FC0A4800F03F
:1026D00081FC0A4800F07EFC094800F07BFC0837CA
:1026E000BD4680BD1C010020200100208801002083
:1026F00098010020A0010020A8010020B0010020C6
:10270000B801002080B500AF01204FF6FF71FFF740
:10271000C1FF80BD80B584B000AF0D20012100F065
:102720006FFF4FF40063BB810423FB7307F10C03BD
:102730007548194601F0A2F900200B2101F090FA2A
:102740004FF400637B6000233B7210237B720123F4
:10275000BB723B1D184601F0C1FA28233B700F23C2
:102760007B700F23BB700123FB703B46184601F0C2
:1027700055FB4FF48073BB810423FB7307F10C03FB
:102780006148194601F07AF90020082101F068FA41
:102790004FF480737B6000233B7210237B72012314
:1027A000BB723B1D184601F099FA17233B700F23AB
:1027B0007B700F23BB700123FB703B46184601F072
:1027C0002DFB4FF40043BB810423FB7307F10C0383
:1027D0004E48194601F052F901200F2101F040FA4C
:1027E0004FF400437B6000233B7210237B72012374
:1027F000BB723B1D184601F071FA28233B700F2372
:102800007B700F23BB700123FB703B46184601F021
:1028100005FB4FF48043BB810423FB7307F10C03DA
:102820003A48194601F02AF901200E2101F018FA60
:102830004FF480437B6000233B7210237B720123A3
:10284000BB723B1D184601F049FA28233B700F2349
:102850007B700F23BB700123FB703B46184601F0D1
:10286000DDFA4FF40053BB810423FB7307F10C0323
:102870002648194601F002F901200D2101F0F0F976
:102880004FF400537B6000233B7210237B720123C3
:10289000BB723B1D184601F021FA28233B700F2321
:1028A0007B700F23BB700123FB703B46184601F081
:1028B000B5FA4FF48053BB810423FB7307F10C037B
:1028C0001248194601F0DAF801200C2101F0C8F98C
:1028D0004FF480537B6000233B7210237B720123F3
:1028E000BB723B1D184601F0F9F928233B700F23FA
:1028F0007B700F23BB700123FB703B46184601F031
:102900008DFA1037BD4680BD00080140000C014023
:1029100080B500AF4FF4807001F04EFA0346012BF2
:1029200014BF00230123DBB2002B24D012484FF444
:10293000807101F05FF90346002B0CBF00230123D7
:10294000DBB2002B07D000F02BFC02460B460B49F4
:10295000C1E908230BE000F023FC02460B461146B8
:10296000064BD3E908231346CA1A054B1A614FF4E4
:10297000807001F045FA80BD00080140D8010020B8
:10298000C001002080B500AF4FF4006001F014FAE0
:102990000346012B14BF00230123DBB2002B24D0FC
:1029A00074484FF4006101F025F90346002B0CBF79
:1029B00000230123DBB2002B07D000F0F1FB02461D
:1029C0000B466D49C1E90A230BE000F0E9FB024622
:1029D0000B461146684BD3E90A231346CA1A674BC4
:1029E0005A614FF4006001F00BFA4FF4805001F08F
:1029F000E3F90346012B14BF00230123DBB2002BB4
:102A000024D05F484FF4805101F0F4F80346002BC6
:102A10000CBF00230123DBB2002B07D000F0C0FB6A
:102A200002460B465449C1E900230BE000F0B8FB15
:102A300002460B461146504BD3E900231346CA1AEF
:102A40004E4B1A604FF4805001F0DAF94FF4005009
:102A500001F0B2F90346012B14BF00230123DBB2BE
:102A6000002B24D046484FF4005101F0C3F8034630
:102A7000002B0CBF00230123DBB2002B07D000F09A
:102A80008FFB02460B463C49C1E902230BE000F0F4
:102A900087FB02460B461146374BD3E90223134608
:102AA000CA1A364B5A604FF4005001F0A9F94FF49E
:102AB000804001F081F90346012B14BF002301235C
:102AC000DBB2002B24D02E484FF4804101F092F865
:102AD0000346002B0CBF00230123DBB2002B07D0E1
:102AE00000F05EFB02460B462349C1E904230BE0DC
:102AF00000F056FB02460B4611461F4BD3E9042358
:102B00001346CA1A1D4B9A604FF4804001F078F9C1
:102B10004FF4004001F050F90346012B14BF00238D
:102B20000123DBB2002B24D015484FF4004101F003
:102B300061F80346002B0CBF00230123DBB2002BFE
:102B400007D000F02DFB02460B460B49C1E90623D6
:102B50000BE000F025FB02460B461146064BD3E97D
:102B600006231346CA1A054BDA604FF4004001F001
:102B700047F980BD00080140D8010020C0010020B5
:102B8000000C014080B500AF00F0E6FA4FF4E130F0
:102B900000F006F8FEF7D0FCFEF7EEFDFCE700BF04
:102BA00080B58AB000AF786044F20500012100F0E2
:102BB00027FD4FF40073BB84182387F827300323C5
:102BC00087F8263007F124031948194600F056FF0C
:102BD0004FF48063BB84042387F8273007F1240374
:102BE0001348194600F04AFF07F10C03184600F09D
:102BF0001FFC07F10C030F48194600F0EFFB7B6840
:102C00007B6100233B8300237B830023BB830C2356
:102C1000FB8300233B8407F114030648194600F0A8
:102C200023FB0448012100F019FC2837BD4680BD74
:102C3000000801400038014080B483B000AF7860E4
:102C40007B6818460C37BD465DF8047B704700BFB3
:102C500080B58AB000AFF860B9607A60FB68BA6886
:102C60001A600820012100F0CBFCFB681A68264B93
:102C70009A4213D14FF40010012100F0DFFCC02371
:102C8000BB841C2387F82730032387F8263007F1FD
:102C900024031E48194600F0F1FE18E0FB681A688C
:102CA0001B4B9A4213D14FF48000012100F0C6FC67
:102CB0004FF44063BB841C2387F82730032387F835
:102CC000263007F124031148194600F0D7FE0023EF
:102CD0003B834FF480437B830023BB834FF48063AB
:102CE000FB837B687B61FB681A6807F1140310465D
:102CF000194600F0C1FCFB681B681846012100F072
:102D00007DFD2837BD4680BD00540040000C0140C9
:102D10000058004080B582B000AF7860F970BA709A
:102D20007B707B681B681846012100F0C7FD00BF5F
:102D30007B681B6818464FF4003100F06BFE0346B9
:102D4000002B0CBF00230123DBB2002BF0D17B68EA
:102D50001B681846012100F071FD00BF7B681B68ED
:102D60001846344900F056FE0346002B14BF0023DA
:102D70000123DBB2002BF1D17B681A68FB785B0082
:102D8000DBB210461946002200F0D6FD00BF7B687A
:102D90001B681846284900F00DFE0346002B14BF9F
:102DA00000230123DBB2002BF1D17B681A68BB78CA
:102DB0001046194600F0A2FD00BF7B681B6818464C
:102DC0001E4900F0F7FD0346002B14BF002301232A
:102DD000DBB2002BF1D17B681A687B78104619466C
:102DE00000F08CFD00BF7B681B681846134900F09B
:102DF000E1FD0346002B14BF00230123DBB2002BAF
:102E0000F1D17B681B681846012100F037FD00BF37
:102E10007B681B6818460A4900F0FCFD0346002B3E
:102E20000CBF00230123DBB2002BF1D10837BD46D4
:102E300080BD00BF01000010820007008400070071
:102E40001000001090B587B000AFF8607B600B46B3
:102E5000FB721346BB725848012100F02FFD00BFE2
:102E600055484FF4003100F0D5FD0346002B0CBF50
:102E700000230123DBB2002BF2D14F48012100F0E7
:102E8000DDFC00BF4C484D4900F0C4FD0346002B5B
:102E900014BF00230123DBB2002BF3D1FB7A5B00CC
:102EA000DBB245481946002200F046FD00BF42480B
:102EB000434900F07FFD0346002B14BF002301238C
:102EC000DBB2002BF3D1BB7A3B48194600F016FD6C
:102ED00000BF39483B4900F06DFD0346002B14BF8D
:102EE00000230123DBB2002BF3D13348012100F092
:102EF000A5FC00BF3048314900F08CFD0346002B93
:102F000014BF00230123DBB2002BF3D1FB7A5B005B
:102F1000DBB229481946012200F00EFD00BF264809
:102F2000294900F047FD0346002B14BF002301236D
:102F3000DBB2002BF3D100237B6125E000BF1E48EC
:102F4000224900F037FD0346002B14BF0023012364
:102F5000DBB2002BF3D17B69BA6AD418164800F0B3
:102F6000DDFC034623707B689A1E7B699A4208D178
:102F70001148002100F0A2FC0F484FF2FF7100F051
:102F8000F9FC7B6901337B617A697B689A42D5DB06
:102F90000948012100F072FC00BF07480C4900F00D
:102FA00039FD0346002B0CBF00230123DBB2002BAD
:102FB000F3D11C37BD4690BD005400400100001005
:102FC00082000700840007000200030040000300A5
:102FD0001000001080B483B000AF78607B681846A2
:102FE0000C37BD465DF8047B704700BF80B586B0E6
:102FF00000AFF860B960FA807B71FB68BA681A604C
:10300000FB68FA889A80FB687A799A71FB681A687B
:10301000254B9A4204D10420012100F0F1FA30E05E
:10302000FB681A68214B9A4204D10820012100F064
:10303000E7FA26E0FB681A681D4B9A4204D110207B
:10304000012100F0DDFA1CE0FB681A68194B9A4276
:1030500004D12020012100F0D3FA12E0FB681A68A5
:10306000154B9A4204D14020012100F0C9FA08E032
:10307000FB681A68114B9A4203D18020012100F0AD
:10308000BFFAFB689B79FB75FB689B88BB820323B7
:10309000BB75FB681A6807F114031046194600F067
:1030A000EDFC1837BD4680BD00080140000C014012
:1030B000001001400014014000180140001C0140B4
:1030C00080B483B000AF03463960FB7197F90730D5
:1030D000002B0BDA0D49FB7903F00F03043B3A6830
:1030E000D2B21201D2B20B441A7609E0084997F91C
:1030F00007303A68D2B21201D2B20B4483F80023EF
:103100000C37BD465DF8047B704700BF00ED00E062
:1031100000E100E080B582B000AF78607B68B3F179
:10312000807F01D3012311E00A4B7A6822F07F42AD
:10313000013A5A604FF0FF300F21FFF7C1FF054BF6
:1031400000229A60034B07221A60002318460837B2
:10315000BD4680BD10E000E080B500AF044B1A68AA
:10316000044BA3FB02139B0C1846FFF7D3FF80BD53
:103170001C00002083DE1B4380B500AF074BD3E962
:103180000023104619464FF47A724FF00003FDF702
:10319000F3FE02460B461046194680BD0802002089
:1031A00080B400AF044BD3E9002310461946BD4656
:1031B0005DF8047B704700BF0802002080B584B032
:1031C00000AF78604FF000024FF00003C7E9022320
:1031D000FFF7D2FFC7E9020100BFFFF7CDFFD7E934
:1031E0000223801A61EB03017B681A464FF000034B
:1031F000994208BF9042F0D31037BD4680BD00BF52
:1032000080B584B000AF78604FF000024FF000034B
:10321000C7E90223FFF7C4FFC7E9020100BFFFF7B8
:10322000BFFFD7E90223801A61EB03017B681A46CE
:103230004FF00003994208BF9042F0D31037BD46CB
:1032400080BD00BF80B400AF064BD3E9002301323C
:1032500043F100030349C1E90023BD465DF8047B47
:10326000704700BF0802002080B58CB000AF7860C6
:1032700039600023FB620023BB6200237B620023D2
:103280003B620023FB617B68FB617B681B8A9BB20E
:10329000FB62FA6A4CF6FF731340FB623B68DB8803
:1032A000FA6A1343FB62FB6A9AB27B681A827B68F4
:1032B0009B899BB2FB62FA6A4EF6F3131340FB62E2
:1032C0003B689A883B681B8913439AB23B685B89C9
:1032D00013439BB2FA6A1343FB62FB6A9AB27B68A0
:1032E0009A817B689B8A9BB2FB62FA6A4FF6FF4326
:1032F0001340FB623B689B89FA6A1343FB62FB6ADB
:103300009AB27B689A8207F10803184600F0C6F863
:10331000FA69304B9A4202D17B69BB6201E03B699A
:10332000BB627B689B899BB29BB21BB2002B0CDA01
:10333000BA6A13469B0013449A001A443B681B6800
:103340005B00B2FBF3F37B620BE0BA6A13469B00AF
:1033500013449A001A443B681B689B00B2FBF3F3CA
:103360007B627A6A1C4BA3FB02135B091B01FB62A5
:10337000FB6A1B09642202FB03F37A6AD31A3B62DD
:103380007B689B899BB29BB21BB2002B0DDA3B6A18
:10339000DB0003F13202104BA3FB02135B0903F0C5
:1033A0000703FA6A1343FB620CE03B6A1B0103F15B
:1033B0003202094BA3FB02135B0903F00F03FA6A05
:1033C0001343FB62FB6A9AB27B681A813037BD46B1
:1033D00080BD00BF003801401F85EB5180B485B02F
:1033E00000AF786039600023FB607B681B8A9BB26A
:1033F000FB60FA684FF2FF031340FB603B681A88DA
:103400003B685B8813439AB23B689B8813439AB22C
:103410003B68DB8813439BB2FA681343FB60FB688D
:103420009AB27B681A821437BD465DF8047B7047F8
:1034300080B483B000AF78607B6800221A807B681C
:1034400000225A807B6800229A807B680022DA8002
:103450000C37BD465DF8047B704700BF80B483B075
:1034600000AF78600B46FB70FB78002B08D07B68C0
:103470009B899BB243F400539AB27B689A8107E020
:103480007B689B899BB223F400539AB27B689A8134
:103490000C37BD465DF8047B704700BF80B487B031
:1034A00000AF786000237B6100233B610023FB6059
:1034B0000023BB604D4B5B6803F00C037B617B69B1
:1034C000042B07D0082B09D0002B34D17B68484A45
:1034D0001A6034E07B68464A1A6030E0434B5B6810
:1034E00003F470133B61414B5B6803F48033FB6072
:1034F0003B699B0C02333B61FB68002B06D13B69A7
:103500003C4A02FB03F27B681A6013E0374B5B68AE
:1035100003F40033002B06D03B69364A02FB03F26A
:103520007B681A6006E03B69314A02FB03F27B6864
:103530001A6004E003E07B682D4A1A6000BF2B4B41
:103540005B6803F0F0037B617B691B097B612A4A9E
:103550007B6913441B78DBB2BB607B681A68BB686D
:10356000DA407B685A60214B5B6803F4E0637B615F
:103570007B691B0A7B61204A7B6913441B78DBB2A1
:10358000BB607B685A68BB68DA407B689A60174BFF
:103590005B6803F460537B617B69DB0A7B61164ADD
:1035A0007B6913441B78DBB2BB607B685A68BB68DD
:1035B000DA407B68DA600D4B5B6803F440437B6163
:1035C0007B699B0B7B610D4A7B6913441B78DBB2E3
:1035D000BB607B68DA68BB68B2FBF3F27B681A6198
:1035E0001C37BD465DF8047B704700BF00100240E9
:1035F00000127A0000093D00200000203000002069
:1036000080B483B000AF78600B46FB70FB78002B72
:1036100006D0094B084A91697A680A439A6106E024
:10362000054B054A91697A68D2430A409A610C3782
:10363000BD465DF8047B70470010024080B483B043
:1036400000AF78600B46FB70FB78002B06D0094B6F
:10365000084AD1697A680A43DA6106E0054B054AEF
:10366000D1697A68D2430A40DA610C37BD465DF809
:10367000047B70470010024080B58AB000AF7860CC
:1036800039600023FB8400237B840423BB84574BD5
:10369000FB617B689B88FB84FB8C23F03F03FB84EE
:1036A00007F108031846FFF7F9FE3B69FB61FA6969
:1036B0004F4BA3FB02139B0C7B84FA8C7B8C134334
:1036C000FB847B68FA8C9A807B681B889BB223F012
:1036D00001039AB27B681A800023FB843B681A6856
:1036E000444B9A4215D83B681B685B00FA69B2FBF1
:1036F000F3F3BB84BB8C032B01D80423BB84FA8C6B
:10370000BB8C1343FB847B8C01339AB27B681A8495
:1037100040E03B68DA884BF6FF739A4209D13B6878
:103720001A6813465B001344FA69B2FBF3F3BB84D7
:103730000EE03B681A6813469B0013449A0013443A
:10374000FA69B2FBF3F3BB84BB8C43F48043BB84C4
:10375000BB8CC3F30B03002B03D1BB8C43F00103E1
:10376000BB84BA8CFB8C13439BB26FEA43436FEA72
:103770005343FB847B8C4FF4967202FB03F31E4A87
:1037800082FB03129211DB17D31A9BB201339AB258
:103790007B681A847B68FA8C9A837B681B889BB24F
:1037A00043F001039AB27B681A807B681B88FB8414
:1037B000FB8C23F4816323F00203FB843B689A882B
:1037C0003B685B8913439AB2FB8C1343FB847B6891
:1037D000FA8C1A803B689A893B681B8913439AB21A
:1037E0007B681A812837BD4680BD00BF00127A0071
:1037F00083DE1B43A0860100D34D621080B483B0EA
:1038000000AF78600B46FB70FB78002B08D07B681C
:103810001B889BB243F001039AB27B681A8007E0D1
:103820007B681B889BB223F001039AB27B681A80E5
:103830000C37BD465DF8047B704700BF80B483B091
:1038400000AF78600B46FB70FB78002B08D07B68DC
:103850001B889BB243F480739AB27B681A8007E09E
:103860007B681B889BB223F480739AB27B681A80B2
:103870000C37BD465DF8047B704700BF80B483B051
:1038800000AF78600B46FB70FB78002B08D07B689C
:103890001B889BB243F400739AB27B681A8007E0DE
:1038A0007B681B889BB223F400739AB27B681A80F2
:1038B0000C37BD465DF8047B704700BF80B483B011
:1038C00000AF78600B46FB70FB78002B08D07B685C
:1038D0001B889BB243F480639AB27B681A8007E02E
:1038E0007B681B889BB223F480639AB27B681A8042
:1038F0000C37BD465DF8047B704700BF80B483B0D1
:1039000000AF78600B46FB70FB789AB27B681A8236
:103910000C37BD465DF8047B704700BF80B483B0B0
:1039200000AF78607B681B8A9BB2DBB218460C370D
:10393000BD465DF8047B704780B483B000AF78600B
:1039400013460A46FA70BB70BB78002B04D0FB7894
:1039500043F00103FB7003E0FB7823F00103FB70ED
:10396000FB789AB27B681A820C37BD465DF8047BFF
:10397000704700BF80B483B000AF78600B467B8097
:103980007B88B3F5006F08D17B681B889BB243F43A
:1039900000639AB27B681A8007E07B681B889BB241
:1039A00023F400639AB27B681A800C37BD465DF839
:1039B000047B704780B487B000AF78603960002323
:1039C0003B610023FB600023BB600023FB757B6829
:1039D0009B8A9BB2FB607B681B8B9BB2BB60BB6806
:1039E0001B04BB60FA68BB68134323F07F433B6151
:1039F0003A693B681A403B689A4202D10123FB7541
:103A000001E00023FB75FB7D18461C37BD465DF8C1
:103A1000047B704780B487B000AF786039600023C2
:103A2000FB7500233B610023FB607B68FB603B6808
:103A30001B0F3B613B6823F07F433B603B69002BDE
:103A400003D0FB681433FB6005E03B681B0C3B6054
:103A5000FB681833FB60FB681A683B681340002B57
:103A600002D00123FB7501E00023FB75FB7D1846A6
:103A70001C37BD465DF8047B704700BF80B489B039
:103A800000AF786039600023FB6100233B610023B5
:103A9000BB610023FB6000237B610023BB603B68AC
:103AA000DB7803F00F03FB613B68DB7803F0100366
:103AB000002B04D03B689B78FA691343FB613B6899
:103AC0001B88DBB2002B44D07B681B687B61002322
:103AD000BB6138E0BB69012202FA03F3FB603B687B
:103AE0001B881A46FB6813403B613A69FB689A429F
:103AF00026D1BB699B00FB60FB680F2202FA03F32F
:103B0000BB60BB68DB437A6913407B61FB68FA6981
:103B100002FA03F37A6913437B613B68DB78282B55
:103B200005D1BB6901229A407B685A6108E03B6875
:103B3000DB78482B04D1BB6901229A407B681A616B
:103B4000BB690133BB61BB69072BC3D97B687A6949
:103B50001A603B681B88FF2B46D97B685B687B61DA
:103B60000023BB613AE0BB690833012202FA03F388
:103B7000FB603B681B881A46FB6813403B613A694F
:103B8000FB689A4227D1BB699B00FB60FB680F2250
:103B900002FA03F3BB60BB68DB437A6913407B61C5
:103BA000FB68FA6902FA03F37A6913437B613B68A5
:103BB000DB78282B05D1BB69083301229A407B684A
:103BC0005A613B68DB78482B05D1BB690833012279
:103BD0009A407B681A61BB690133BB61BB69072BE3
:103BE000C1D97B687A695A602437BD465DF8047B89
:103BF000704700BF80B485B000AF78600B467B8013
:103C00000023FB737B689A687B881340002B02D0EB
:103C10000123FB7301E00023FB73FB7B1846143781
:103C2000BD465DF8047B704780B483B000AF786018
:103C30000B467B807A887B681A610C37BD465DF83D
:103C4000047B704780B483B000AF78600B467B8004
:103C50007A887B685A610C37BD465DF8047B7047F3
:103C600090B484B000AF02460B46FA71BB710023DA
:103C7000FB60BB7903F003039B000F2202FA03F3FE
:103C8000FB60154BBA799208D2B21349B879800813
:103C9000C0B2023051F82000F968C9430140023235
:103CA00043F822100C4BBA799208D2B20A49B8797B
:103CB0008008C0B2023051F82000FC79B97901F0D7
:103CC0000301890004FA01F10143023243F8221092
:103CD0001037BD4690BC70470000014080B485B0ED
:103CE00000AF78600023FB60324BFB607B689B7900
:103CF000002B4DD02F4B2F4A11687A681268D2439F
:103D00000A401A602B4B2B4A51687A681268D243DA
:103D10000A405A607B681B79FA681344FB60FB68B1
:103D2000FA6811687A6812680A431A60214B214ABE
:103D300091687A681268D2430A409A601D4B1D4A06
:103D4000D1687A681268D2430A40DA607B685B798E
:103D5000102B0ED1174B174A91687A6812680A43E4
:103D60009A60144B134AD1687A6812680A43DA6081
:103D70001BE0104BFB607B685B79FA681344FB60C7
:103D8000FB68FA6811687A6812680A431A600CE0E6
:103D90007B681B79FA681344FB60FB68FA6811685A
:103DA0007A681268D2430A401A601437BD465DF83B
:103DB000047B70470004014080B485B000AF786098
:103DC0000023FB730023BB600C4B1A687B68134015
:103DD000BB600A4B5A697B681340002B05D0BB6857
:103DE000002B02D00123FB7301E00023FB73FB7B5C
:103DF00018461437BD465DF8047B70470004014047
:103E000080B483B000AF7860034B7A685A610C3796
:103E1000BD465DF8047B70470004014080B487B064
:103E200000AF786000237B6100233B610F23FB60C0
:103E30007B68DB78002B38D0264BDB68DB4303F450
:103E4000E0631B0A7B617B69C3F104033B617B690F
:103E5000FA6822FA03F3FB607B685B781A463B69D9
:103E600002FA03F37B617B689B781A46FB68134078
:103E70007A6913437B617B691B017B6116497B680F
:103E80001B787A69D2B20B4483F80023124B7A680C
:103E900012785209D2B27968097801F01F01012025
:103EA00000FA01F143F822100EE00B4B7A68127809
:103EB0005209D2B27968097801F01F01012000FA95
:103EC00001F1203243F822101C37BD465DF8047B17
:103ED000704700BF00ED00E000E100E070B50E4B60
:103EE0000E4D0024ED1AAD101E46AC4204D056F81B
:103EF000242090470134F8E700F016F8084D094BEC
:103F00000024ED1AAD101E46AC4204D056F8242011
:103F100090470134F8E770BD483F0008483F00086B
:103F2000543F0008483F0008F8B500BFF8BC08BC83
:103F30009E467047F8B500BFF8BC08BC9E46704767
:083F4000C8D0FF7F0100000062
:0C3F4800350100082924000805270008A6
:043F5400110100084F
:103F58006666A63FCDCC4C3D000070419001000044
:103F6800000080400AD7A33C9001000000A24A0448
:103F78000000000001020304010203040607080907
:043F88000204060821
:0400000508002609C0
:00000001FF
