:020000040800F2
:1000000000500020D91700087D1700088917000844
:100010009117000899170008A117000800000000B8
:10002000000000000000000000000000A917000808
:10003000B517000800000000C1170008CD17000820
:10004000311800083118000831180008311800086C
:10005000311800083118000831180008311800085C
:10006000311800083118000831180008311800084C
:10007000311800083118000831180008311800083C
:10008000311800083118000831180008311800082C
:1000900031180008311800083118000841340008F0
:1000A000311800083118000831180008311800080C
:1000B00031180008311800083118000831180008FC
:1000C00031180008311800083118000831180008EC
:1000D00031180008311800083118000831180008DC
:1000E000B53400083118000831180008000000007D
:1000F0000000000000000000000000000000000000
:0C01000000000000000000005FF808F1A3
:1001100010B5054C237833B9044B13B10448AFF341
:1001200000800123237010BD80000020000000002B
:10013000D458000808B5034B1BB103480349AFF37B
:10014000008008BD00000000D45800088400002092
:1001500081F0004102E000BF83F0004330B54FEA78
:1001600041044FEA430594EA050F08BF90EA020FE5
:100170001FBF54EA000C55EA020C7FEA645C7FEA78
:10018000655C00F0E2804FEA5454D4EB5555B8BF9B
:100190006D420CDD2C4480EA020281EA030382EA0C
:1001A000000083EA010180EA020281EA0303362D9E
:1001B00088BF30BD11F0004F4FEA01314FF4801C71
:1001C0004CEA113102D0404261EB410113F0004F83
:1001D0004FEA03334CEA133302D0524263EB43033A
:1001E00094EA050F00F0A780A4F10104D5F1200ED8
:1001F0000DDB02FA0EFC22FA05F2801841F1000133
:1002000003FA0EF2801843FA05F359410EE0A5F106
:1002100020050EF1200E012A03FA0EFC28BF4CF037
:10022000020C43FA05F3C01851EBE37101F00045ED
:1002300007D54FF0000EDCF1000C7EEB00006EEBFA
:100240000101B1F5801F1BD3B1F5001F0CD3490884
:100250005FEA30004FEA3C0C04F101044FEA4452DB
:1002600012F5800F80F09A80BCF1004F08BF5FEA62
:10027000500C50F1000041EB045141EA050130BD42
:100280005FEA4C0C404141EB010111F4801FA4F1E5
:100290000104E9D191F0000F04BF01460020B1FA3A
:1002A00081F308BF2033A3F10B03B3F120020CDA72
:1002B0000C3208DD02F1140CC2F10C0201FA0CF050
:1002C00021FA02F10CE002F11402D8BFC2F1200CB5
:1002D00001FA02F120FA0CFCDCBF41EA0C0190406B
:1002E000E41AA2BF01EB0451294330BD6FEA0404B4
:1002F0001F3C1CDA0C340EDC04F11404C4F120029F
:1003000020FA04F001FA02F340EA030021FA04F3B0
:1003100045EA030130BDC4F10C04C4F1200220FA07
:1003200002F001FA04F340EA0300294630BD21FA45
:1003300004F0294630BD94F0000F83F4801306BF0B
:1003400081F480110134013D4EE77FEA645C18BFFF
:100350007FEA655C29D094EA050F08BF90EA020F96
:1003600005D054EA000C04BF1946104630BD91EA8E
:10037000030F1EBF0021002030BD5FEA545C05D191
:100380004000494128BF41F0004130BD14F58004D0
:100390003CBF01F5801130BD01F0004545F0FE4144
:1003A00041F470014FF0000030BD7FEA645C1ABF79
:1003B000194610467FEA655C1CBF0B46024650EAB0
:1003C000013406BF52EA033591EA030F41F40021DC
:1003D00030BD00BF90F0000F04BF0021704730B562
:1003E0004FF4806404F132044FF000054FF0000137
:1003F00050E700BF90F0000F04BF0021704730B5F8
:100400004FF4806404F1320410F0004548BF4042CC
:100410004FF000013EE700BF42004FEAE2014FEA21
:1004200031014FEA02701FBF12F07F4393F07F4FFC
:1004300081F06051704792F0000F14BF93F07F4F2E
:10044000704730B54FF4607401F0004521F0004171
:1004500020E700BF50EA010208BF704730B54FF0F7
:1004600000050AE050EA010208BF704730B511F0FC
:10047000004502D5404261EB41014FF4806404F134
:1004800032045FEA915C3FF4DCAE4FF003025FEAB6
:10049000DC0C18BF03325FEADC0C18BF033202EB3E
:1004A000DC02C2F1200300FA03FC20FA02F001FA98
:1004B00003FE40EA0E0021FA02F11444C1E600BF37
:1004C00070B54FF0FF0C4CF4E06C1CEA11541DBFEA
:1004D0001CEA135594EA0C0F95EA0C0F00F0DEF8B5
:1004E0002C4481EA030621EA4C5123EA4C5350EA9A
:1004F000013518BF52EA033541F4801143F48013EB
:1005000038D0A0FB02CE4FF00005E1FB02E506F07B
:100510000042E0FB03E54FF00006E1FB03569CF0D0
:10052000000F18BF4EF0010EA4F1FF04B6F5007FD6
:1005300064F5407404D25FEA4E0E6D4146EB060648
:1005400042EAC62141EA55514FEAC52040EA5E50D1
:100550004FEACE2EB4F1FD0C88BFBCF5E06F1ED87B
:10056000BEF1004F08BF5FEA500E50F1000041EBB2
:10057000045170BD06F0004646EA010140EA02005F
:1005800081EA0301B4EB5C04C2BFD4EB0C0541EA81
:10059000045170BD41F480114FF0000E013C00F396
:1005A000AB8014F1360FDEBF002001F0004170BDBA
:1005B000C4F10004203C35DA0C341BDC04F11404D3
:1005C000C4F1200500FA05F320FA04F001FA05F25F
:1005D00040EA020001F0004221F0004110EBD3702C
:1005E00021FA04F642EB06015EEA430E08BF20EA58
:1005F000D37070BDC4F10C04C4F1200500FA04F3FB
:1006000020FA05F001FA04F240EA020001F000418C
:1006100010EBD37041F100015EEA430E08BF20EAFF
:10062000D37070BDC4F1200500FA05F24EEA020E47
:1006300020FA04F301FA05F243EA020321FA04F076
:1006400001F0004121FA04F220EA020000EBD3702D
:100650005EEA430E08BF20EAD37070BD94F0000F2D
:100660000FD101F00046400041EB010111F4801F61
:1006700008BF013CF7D041EA060195F0000F18BF12
:10068000704703F00046520043EB030313F4801F4E
:1006900008BF013DF7D043EA0603704794EA0C0F08
:1006A0000CEA135518BF95EA0C0F0CD050EA41061E
:1006B00018BF52EA4306D1D181EA030101F000419B
:1006C0004FF0000070BD50EA410606BF10461946C3
:1006D00052EA430619D094EA0C0F02D150EA0136CF
:1006E00013D195EA0C0F05D152EA03361CBF104610
:1006F00019460AD181EA030101F0004141F0FE41AF
:1007000041F470014FF0000070BD41F0FE4141F432
:10071000780170BD70B54FF0FF0C4CF4E06C1CEA32
:1007200011541DBF1CEA135594EA0C0F95EA0C0FE7
:1007300000F0A7F8A4EB050481EA030E52EA0335A2
:100740004FEA013100F088804FEA03334FF08055C3
:1007500045EA131343EA12634FEA022245EA1115F0
:1007600045EA10654FEA00260EF000419D4208BFA1
:10077000964244F1FD0404F5407402D25B084FEA4E
:100780003202B61A65EB03055B084FEA32024FF4FA
:1007900080104FF4002CB6EB020E75EB030E22BF57
:1007A000B61A754640EA0C005B084FEA3202B6EB17
:1007B000020E75EB030E22BFB61A754640EA5C00C6
:1007C0005B084FEA3202B6EB020E75EB030E22BF56
:1007D000B61A754640EA9C005B084FEA3202B6EB57
:1007E000020E75EB030E22BFB61A754640EADC0016
:1007F00055EA060E18D04FEA051545EA16754FEA78
:1008000006164FEAC30343EA52734FEAC2025FEA95
:100810001C1CC0D111F4801F0BD141EA00014FF024
:1008200000004FF0004CB6E711F4801F04BF0143F5
:100830000020B4F1FD0C88BFBCF5E06F3FF6AFAE11
:10084000B5EB030C04BFB6EB020C5FEA500C50F1A1
:10085000000041EB045170BD0EF0004E4EEA113124
:1008600014EB5C04C2BFD4EB0C0541EA045170BD2B
:1008700041F480114FF0000E013C90E645EA060E6F
:100880008DE60CEA135594EA0C0F08BF95EA0C0F9D
:100890003FF43BAF94EA0C0F0AD150EA01347FF4E5
:1008A00034AF95EA0C0F7FF425AF104619462CE7BC
:1008B00095EA0C0F06D152EA03353FF4FDAE10461F
:1008C000194622E750EA410618BF52EA43067FF470
:1008D000C5AE50EA41047FF40DAF52EA43057FF400
:1008E000EBAE12E74FEA410212F5001215D211D514
:1008F0006FF47873B3EB625212D94FEAC12343F01D
:10090000004343EA505311F0004F23FA02F018BF9E
:10091000404270474FF00000704750EA013005D167
:1009200011F0004008BF6FF0004070474FF000002A
:10093000704700BF4A0011D212F5001211D20DD536
:100940006FF47873B3EB62520ED44FEAC12343F0D5
:10095000004343EA505323FA02F070474FF000007F
:10096000704750EA013002D14FF0FF3070474FF02E
:10097000000070474FEA4102B2F1E04324BFB3F5F3
:10098000001CDCF1FE5C0DD901F0004C4FEAC00206
:100990004CEA5070B2F1004F40EB830008BF20F0EA
:1009A0000100704711F0804F21D113F13872BCBFA4
:1009B00001F00040704741F480114FEA5252C2F1F9
:1009C0001802C2F1200C10FA0CF320FA02F018BF42
:1009D00040F001004FEAC1234FEAD32303FA0CFC95
:1009E00040EA0C0023FA02F34FEA4303CCE77FEA24
:1009F000625307D150EA01331EBF4FF0FE4040F46E
:100A00004000704701F0004040F0FE4040F400001C
:100A1000704700BF80F0004002E000BF81F000415D
:100A200042001FBF5FEA410392EA030F7FEA226C94
:100A30007FEA236C6AD04FEA1262D2EB1363C1BF24
:100A4000D218414048404140B8BF5B42192B88BF93
:100A5000704710F0004F40F4000020F07F4018BFB6
:100A6000404211F0004F41F4000121F07F4118BFD6
:100A7000494292EA030F3FD0A2F1010241FA03FC7E
:100A800010EB0C00C3F1200301FA03F100F0004366
:100A900002D5494260EB4000B0F5000F13D3B0F12E
:100AA000807F06D340084FEA310102F10102FE2A9D
:100AB00051D2B1F1004F40EBC25008BF20F001000D
:100AC00040EA03007047490040EB000010F4000FBB
:100AD000A2F10102EDD1B0FA80FCACF1080CB2EB4E
:100AE0000C0200FA0CF0AABF00EBC25052421843AD
:100AF000BCBFD0401843704792F0000F81F4000152
:100B000006BF80F400000132013BB5E74FEA410324
:100B10007FEA226C18BF7FEA236C21D092EA030F90
:100B200004D092F0000F08BF0846704790EA010F0A
:100B30001CBF0020704712F07F4F04D1400028BF37
:100B400040F00040704712F100723CBF00F5000019
:100B5000704700F0004343F0FE4040F4000070474F
:100B60007FEA226216BF08467FEA236301464202FB
:100B700006BF5FEA412390EA010F40F4800070470E
:100B80004FF0000304E000BF10F0004348BF4042B4
:100B90005FEA000C08BF704743F0964301464FF0F0
:100BA00000001CE050EA010208BF70474FF000034C
:100BB0000AE000BF50EA010208BF704711F000438D
:100BC00002D5404261EB41015FEA010C02BF84465D
:100BD0000146002043F0B64308BFA3F18053A3F5BC
:100BE0000003BCFA8CF2083AA3EBC25310DB01FA03
:100BF00002FC634400FA02FCC2F12002BCF1004F87
:100C000020FA02F243EB020008BF20F00100704717
:100C100002F1200201FA02FCC2F1200250EA4C006B
:100C200021FA02F243EB020008BF20EADC707047B1
:100C30004FF0FF0C1CEAD0521EBF1CEAD15392EABF
:100C40000C0F93EA0C0F6FD01A4480EA010C40029B
:100C500018BF5FEA41211ED04FF0006343EA5010F5
:100C600043EA5111A0FB01310CF00040B1F5000F37
:100C70003EBF490041EAD3715B0040EA010062F1E6
:100C80007F02FD2A1DD8B3F1004F40EBC25008BFD0
:100C900020F00100704790F0000F0CF0004C08BFEE
:100CA00049024CEA502040EA51207F3AC2BFD2F1BB
:100CB000FF0340EAC250704740F400004FF00003C9
:100CC000013A5DDC12F1190FDCBF00F00040704703
:100CD000C2F10002410021FA02F1C2F1200200FA41
:100CE00002FC5FEA310040F1000053EA4C0308BF08
:100CF00020EADC70704792F0000F00F0004C02BF59
:100D0000400010F4000F013AF9D040EA0C0093F0D3
:100D1000000F01F0004C02BF490011F4000F013B2D
:100D2000F9D041EA0C018FE70CEAD15392EA0C0F9B
:100D300018BF93EA0C0F0AD030F0004C18BF31F006
:100D4000004CD8D180EA010000F00040704790F0DC
:100D5000000F17BF90F0004F084691F0000F91F080
:100D6000004F14D092EA0C0F01D142020FD193EA46
:100D70000C0F03D14B0218BF084608D180EA0100CE
:100D800000F0004040F0FE4040F40000704740F0AA
:100D9000FE4040F4400070474FF0FF0C1CEAD05278
:100DA0001EBF1CEAD15392EA0C0F93EA0C0F69D0D4
:100DB000A2EB030280EA010C49024FEA402037D03F
:100DC0004FF0805343EA111143EA10130CF0004036
:100DD0008B4238BF5B0042F17D024FF4000C8B4226
:100DE00024BF5B1A40EA0C00B3EB510F24BFA3EB06
:100DF000510340EA5C00B3EB910F24BFA3EB9103D6
:100E000040EA9C00B3EBD10F24BFA3EBD10340EA2F
:100E1000DC001B0118BF5FEA1C1CE0D1FD2A3FF675
:100E200050AF8B4240EBC25008BF20F0010070472A
:100E30000CF0004C4CEA50207F32C2BFD2F1FF03CD
:100E400040EAC250704740F400004FF00003013AFE
:100E500037E792F0000F00F0004C02BF400010F4A2
:100E6000000F013AF9D040EA0C0093F0000F01F0B6
:100E7000004C02BF490011F4000F013BF9D041EAD8
:100E80000C0195E70CEAD15392EA0C0F08D142020B
:100E90007FF47DAF93EA0C0F7FF470AF084676E7DE
:100EA00093EA0C0F04D14B023FF44CAF08466EE7B7
:100EB00030F0004C18BF31F0004CCAD130F0004285
:100EC0007FF45CAF31F000437FF43CAF5FE700BFDD
:100ED0004FF0FF3C06E000BF4FF0010C02E000BF06
:100EE0004FF0010C4DF804CD4FEA40024FEA4103A8
:100EF0007FEA226C18BF7FEA236C11D001B052EA5E
:100F0000530C18BF90EA010F58BFB2EB030088BF23
:100F1000C81738BF6FEAE17018BF40F00100704792
:100F20007FEA226C02D15FEA402C05D17FEA236C74
:100F3000E4D15FEA412CE1D05DF8040B704700BFBB
:100F4000844608466146FFE70FB5FFF7C9FF002852
:100F500048BF10F1000F0FBD4DF808EDFFF7F4FF8B
:100F60000CBF012000205DF808FB00BF4DF808ED24
:100F7000FFF7EAFF34BF012000205DF808FB00BF47
:100F80004DF808EDFFF7E0FF94BF012000205DF869
:100F900008FB00BF4DF808EDFFF7D2FF94BF01201A
:100FA00000205DF808FB00BF4DF808EDFFF7C8FF13
:100FB00034BF012000205DF808FB00BF4FEA40026B
:100FC000B2F1FE4F0FD34FF09E03B3EB12620DD977
:100FD0004FEA002343F0004310F0004F23FA02F0E1
:100FE00018BF404270474FF00000704712F1610F88
:100FF00001D1420205D110F0004008BF6FF000405F
:1010000070474FF00000704742000ED2B2F1FE4F21
:101010000BD34FF09E03B3EB126209D44FEA0023C7
:1010200043F0004323FA02F070474FF0000070478E
:1010300012F1610F01D1420202D14FF0FF3070472F
:101040004FF00000704700BF4BB942B9002908BFFC
:10105000002802D04FF0FF31084600F03BB882B0C4
:10106000EC462DE9005000F01DF8DDF804E002B078
:101070000CBC70472DE9704F089E14461D468046F3
:10108000894600F029F804FB01F3A4FB00AB00FB48
:1010900005329344B8EB0A0869EB0B09C6E90089ED
:1010A000BDE8708F2DE9704F089E14461D4680469E
:1010B000894600F061F900FB05F5A0FB04AB04FBD9
:1010C0000154A344B8EB0A0869EB0B09C6E900898F
:1010D000BDE8708F704700BF00292DE9F00FC0F206
:1010E000A1800024002BC0F29880154606460F46CA
:1010F000002B3FD18A4258D9B2FA82F34BB1C3F1E7
:10110000200201FA03F720FA02F29D4000FA03F6EA
:101110001743290CB7FBF1F201FB1277A8B200FBD1
:1011200002F34FEA164C4CEA0747BB4209D97F1934
:1011300002F1FF3C80F00581BB4240F20281023A9D
:101140002F44FF1AB7FBF1F301FB137100FB03F00F
:10115000B6B246EA0141884208D9491903F1FF377E
:1011600080F0F180884240F2EE80023B43EA024286
:10117000002303E08B420AD900231A461046194681
:1011800014B1404261EB4101BDE8F00F7047B3FA82
:1011900083F8B8F1000F40F088808B4202D382427E
:1011A00000F2E28000230122E8E712B90123B3FB39
:1011B000F2F5B5FA85F2002A3AD17F1B280C1FFA06
:1011C00085FC0123B7FBF0F100FB11770CFB01F26A
:1011D0004FEA164848EA0747BA4207D97F1901F192
:1011E000FF3802D2BA4200F2C4804146BF1AB7FBB0
:1011F000F0F200FB12700CFB02FCB6B246EA0040B3
:10120000844507D9401902F1FF3702D2844500F224
:10121000AE803A4642EA0142B0E7E443524263EB11
:10122000430362E7404261EB41014FF0FF3459E76D
:101230009540C2F1200927FA09F126FA09F99740E9
:10124000280CB1FBF0F800FB18111FFA85FC0CFB11
:1012500008F349EA07094FEA194747EA01418B4277
:1012600006FA02F608D9491908F1FF327AD28B4200
:1012700078D9A8F102082944C91AB1FBF0F300FBA0
:1012800013170CFB03F21FFA89F949EA0747BA4220
:1012900007D97F1903F1FF3160D2BA425ED9023B10
:1012A0002F44BF1A43EA08438CE7C8F1200225FA0D
:1012B00002F103FA08FC27FA02F320FA02F207FA15
:1012C00008F741EA0C0C4FEA1C49B3FBF9F109FBA2
:1012D00011331FFA8CFA0AFB01FB17433A0C42EA5E
:1012E00003439B4505FA08F008D913EB0C0301F101
:1012F000FF3235D29B4533D902396344CBEB03032C
:10130000B3FBF9F209FB12330AFB02FABFB247EA58
:101310000347BA4508D917EB0C0702F1FF331BD27C
:10132000BA4519D9023A674442EA0145A5FB0001D2
:10133000CAEB07078F424FF000030AD305D02A46B5
:101340001CE76246FDE63B4610E706FA08F68642D1
:10135000F5D26A1E002311E71A46E5E70B46A0E71F
:101360001146CBE7904687E74346424606E7023AF6
:1013700050E702392F4439E72DE9F00F14460546AE
:101380000E46002B43D18A4253D9B2FA82F757B1A5
:10139000C7F1200620FA06F601FA07F302FA07F46D
:1013A00000FA07F51E43210CB6FBF1F201FB1266B1
:1013B000A0B200FB02F32F0C47EA0646B34209D95C
:1013C000361902F1FF3780F0FD80B34240F2FA8017
:1013D000023A2644F61AB6FBF1F301FB136100FB57
:1013E00003F0ADB245EA0141884208D9091903F179
:1013F000FF3680F0E980884240F2E680023B43EA13
:101400000242002310461946BDE8F00F70478B4298
:101410004CD8B3FA83F6002E4FD18B4202D38242CE
:1014200000F2DD80BDE8F00F0023012210461946CE
:10143000704712B90124B4FBF2F4B4FA84F2002A22
:1014400040F08280091B260CA7B20123B1FBF6F005
:1014500006FB101107FB00F24FEA154C4CEA014164
:101460008A4207D9091900F1FF3C02D28A4200F2F0
:10147000C8806046891AB1FBF6F206FB121107FB21
:1014800002F7ADB245EA0145AF4208D92C1902F185
:10149000FF3180F09B80A74240F29880023A42EAF6
:1014A000004210461946BDE8F00F704700231A4667
:1014B00010461946BDE8F00F7047C6F1200522FA24
:1014C00005F703FA06F421FA05F301FA06FB20FA00
:1014D00005F53C434FEA1448B3FBF8FC08FB1C330A
:1014E0001FFA84F909FB0CFA45EA0B0B4FEA1B457E
:1014F00045EA03439A4502FA06F204D91B190CF196
:10150000FF356FD3AC46CAEB0303B3FBF8F508FB1A
:10151000153309FB05F91FFA8BFB4BEA0347B94565
:1015200004D93F1905F1FF3362D31D4645EA0C4C3F
:10153000ACFB0223C9EB07079F424FF000054AD3DB
:1015400046D062462B465DE79440C2F1200921FA5D
:1015500009FC914020FA09F9260CBCFBF6F806FBC1
:1015600018CCA7B207FB08F349EA01094FEA194171
:1015700041EA0C4C634500FA02F509D91CEB040C56
:1015800008F1FF323BD2634539D9A8F10208A444DF
:10159000C3EB0C0CBCFBF6F306FB13C107FB03F219
:1015A0001FFA89F949EA01418A4207D9091903F169
:1015B000FF3022D28A4220D9023B2144891A43EAD1
:1015C000084343E73A4605E7334618E70A4666E725
:1015D000B0409042B5D20CF1FF32002312E73346FF
:1015E00032460FE79A458DD9ACF1020C23448AE7C5
:1015F000B9459AD9023D274498E70346DEE790466D
:10160000C6E70238214435E780B500AF154B154ACF
:10161000126842F001021A60124A124B5968124BCA
:101620000B4053600F4A0F4B1B6823F0847323F465
:10163000803313600B4B0B4A126822F480221A602D
:10164000084B084A526822F4FE025A60054B4FF4D8
:101650001F029A6000F00CF8044B4FF000629A6091
:1016600080BD00BF001002400000FFF800ED00E068
:1016700080B500AF00F002F880BD00BF80B483B039
:1016800000AF00237B6000233B603A4B394A12686D
:1016900042F480321A60374B1B6803F400333B601E
:1016A0007B6801337B603B68002B03D17B68B3F51B
:1016B000A06FF0D12F4B1B6803F40033002B02D036
:1016C00001233B6001E000233B603B68012B4BD1D1
:1016D000294B294A126842F010021A60264B264A0A
:1016E000126822F003021A60234B234A126842F068
:1016F00002021A601F4B1F4A52685A601D4B1D4A56
:1017000052685A601B4B1B4A526842F480625A600E
:10171000184B184A526822F47C125A60154B154A2D
:10172000526842F4E8125A60124B124A126842F0B0
:1017300080721A6000BF0F4B1B6803F00073002B10
:10174000F9D00C4B0B4A526822F003025A60094B45
:10175000084A526842F002025A6000BF054B5B68BB
:1017600003F00C03082BF9D10C37BD465DF8047B60
:10177000704700BF001002400020024080B400AF5C
:10178000BD465DF8047B704780B400AFFEE700BF44
:1017900080B400AFFEE700BF80B400AFFEE700BF3B
:1017A00080B400AFFEE700BF80B400AFBD465DF877
:1017B000047B704780B400AFBD465DF8047B704782
:1017C00080B400AFBD465DF8047B704780B500AFC4
:1017D00002F040FB80BD00BFDFF83CD0002100F0EC
:1017E00004B80E4B5B58435004310D480D4B421862
:1017F0009A42FFF4F6AF0C4A00F003B8002342F817
:10180000043B0A4B9A42FFF4F9AFFFF7FDFE03F0E9
:10181000D1FB01F04FFF7047005000206C590008C9
:10182000000000207C000020800000203407002001
:10183000FFF7FEBF80B483B000AF78607B681846C6
:101840000C37BD465DF8047B704700BF80B582B0A1
:1018500000AF786039607B683A681A607868202148
:101860000F2200F0B1F978682321902200F0ACF942
:101870007B684FF000025A607B684FF000029A606C
:101880007B684FF00002DA60FA2002F0C1FA0837F4
:10189000BD4680BDB0B586B000AF786000237B61E7
:1018A0002CE007F108037868194600F04DF97B68D1
:1018B0005A68BB6810461946FFF7B2F803461A4645
:1018C0007B685A607B689A68FB6810461946FFF788
:1018D000A7F803461A467B689A607B68DA683B691A
:1018E00010461946FFF79CF803461A467B68DA60F3
:1018F000052002F08DFA7B6901337B617B69B3F5CA
:101900007A7FCEDB7B685B6818461A49FFF744FA9A
:1019100003461A467B685A607B689B6818461549DF
:10192000FFF73AFA03461A467B689A607B68DB68E1
:1019300018461049FFF730FA03461A467B68DA600A
:101940007B685B681846FFF739FB05467B689B6838
:101950001846FFF733FB04467B68DB681846FFF741
:101960002DFB034604482946224601F0FDFE1837A8
:10197000BD46B0BD00007A44EC58000880B588B080
:1019800000AFF860B9607A6007F11C0107F11A0234
:1019900007F11803F86800F0ABF8BB8B1BB21846D0
:1019A000FFF7F2F80246FB685B6810461946FFF73E
:1019B00035F803461A46BB681A607B8B1BB2184683
:1019C000FFF7E2F80246FB689B6810461946FFF7EE
:1019D00025F803461A46BB685A603B8B1BB2184673
:1019E000FFF7D2F80246FB68DB6810461946FFF79E
:1019F00015F803461A46BB689A6007F11403F868A5
:101A00002321012200F0CAF83B7D1B11DBB203F059
:101A10000303FB77FB7F002B1ED1BB681B681846B6
:101A20003049FFF7B9F903461A467B681A60BB686C
:101A30005B6818462B49FFF7AFF903461A467B68E7
:101A40005A60BB689B6818462649FFF7A5F903460C
:101A50001A467B689A6042E0FB7F012B1ED1BB686F
:101A60001B6818462049FFF797F903461A467B681A
:101A70001A60BB685B6818461B49FFF78DF903467F
:101A80001A467B685A60BB689B6818461649FFF780
:101A900083F903461A467B689A6020E0FB7F022B9D
:101AA0001DD1BB681B6818461049FFF775F903463E
:101AB0001A467B681A60BB685B6818460B49FFF7DB
:101AC0006BF903461A467B685A60BB689B681846E8
:101AD0000649FFF761F903461A467B689A6020378A
:101AE000BD4680BD00000C4100008C4100008C42CE
:101AF00080B586B000AFF860B9607A603B6007F1EE
:101B00001003F868A821062200F048F83B7C1A462A
:101B10007B7C1B029BB213439AB2BB681A80BB7CCE
:101B20001A46FB7C1B029BB213439AB27B681A8055
:101B30003B7D1A467B7D1B029BB213439AB23B68E6
:101B40001A801837BD4680BD80B584B000AF78607C
:101B5000396007F10E0107F10C0207F10A037868FA
:101B6000FFF7C6FFFB891BB21846FFF70DF80246C8
:101B70003B681A60BB891BB21846FFF705F802469E
:101B80003B685A607B891BB21846FEF7FDFF024690
:101B90003B689A601037BD4680BD00BF80B586B0F7
:101BA00002AFF8607A603B600B46FB72FB681A6814
:101BB000FB7A39680091104669211A467B6801F06A
:101BC00039FF1037BD4680BD80B582B000AF786068
:101BD00013460A46FA70BB707B681968FA78BB78BE
:101BE0000846692101F08EFE0837BD4680BD00BF62
:101BF00080B483B000AF78607B6818460C37BD4670
:101C00005DF8047B704700BF80B588B002AFF86014
:101C1000B9601346FB80FB68BA681A60FB68FA88F3
:101C20001A81FB689B6D9AB2FB685A81FB681B683E
:101C300007F11402009218467721AA22022301F02C
:101C4000F9FE3B7D1B029AB27B7D13439AB2FB687F
:101C50009A81FB681B6807F11402009218467721ED
:101C6000AC22022301F0E6FE3B7D1B029AB27B7D93
:101C700013439AB2FB68DA81FB681B6807F1140210
:101C8000009218467721AE22022301F0D3FE3B7D5D
:101C90001B029AB27B7D13439AB2FB681A82FB68DF
:101CA0001B6807F11402009218467721B022022324
:101CB00001F0C0FE3B7D1B029AB27B7D13439BB2B9
:101CC0009AB2FB689A83FB681B6807F114020092C2
:101CD00018467721B222022301F0ACFE3B7D1B02A5
:101CE0009AB27B7D13439BB29AB2FB68DA83FB689E
:101CF0001B6807F11402009218467721B4220223D0
:101D000001F098FE3B7D1B029AB27B7D13439BB290
:101D10009AB2FB681A84FB681B6807F114020092F0
:101D200018467721B622022301F084FE3B7D1B0278
:101D30009AB27B7D13439AB2FB685A82FB681B6898
:101D400007F11402009218467721B822022301F00D
:101D500071FE3B7D1B029AB27B7D13439AB2FB68F6
:101D60009A82FB681B6807F11402009218467721DB
:101D7000BA22022301F05EFE3B7D1B029AB27B7DFC
:101D800013439AB2FB68DA82FB681B6807F11402FE
:101D9000009218467721BC22022301F04BFE3B7DC6
:101DA0001B029AB27B7D13439AB2FB681A83FB68CD
:101DB0001B6807F11402009218467721BE22022305
:101DC00001F038FE3B7D1B029AB27B7D13439AB231
:101DD000FB685A83FB6800229A65FB680122DA657A
:101DE000FB6802221A66FB6803225A661837BD4652
:101DF00080BD00BFB0B586B002AF786039607B6847
:101E00005B891AB27B689B6D9A4213D17B681B6811
:101E100018467721F4222E2301F074FD01F0D6FF3D
:101E200002460B467B685A607B68DB6D9AB27B6822
:101E30005A81FBE27B685B891AB27B68DB6D9A4250
:101E400040F0928001F0C2FF7B685B681A464FF059
:101E50000003821A61EB0303002B08BF062A34BF7C
:101E600000230123DBB2002B7DD07B681B6807F1C8
:101E70000C02009218467721F622022301F0DAFDC7
:101E80003B7B1A027B7B1A447B685A647B685A6CE2
:101E90007B681B8CD31A7A68D28B02FB03F318463B
:101EA000FEF7A8FA02460B46104619464FF000020C
:101EB0005D4BFEF72FFC02460B4610461946FEF717
:101EC00011FD02467B685A627B681B8B1BB2184669
:101ED000FEF790FA02460B46104619464FF00002F4
:101EE000524BFEF7EDFA02460B4614461D467B6840
:101EF0005A6A7B685B8B1BB213441846FEF77AFA6A
:101F000002460B4620462946FEF704FC02460B46D5
:101F100010461946FEF7E6FC02467B689A627B682B
:101F20005A6A7B689B6A1A447B685A637B685B6B5E
:101F300008331846FEF75EFA02460B46104619466D
:101F40004FF000023A4BFEF7E5FB02460B46104607
:101F50001946FEF7C7FC02467B689A637B681B6ED6
:101F60009AB27B685A8161E27B685B891AB27B68AE
:101F70001B6E9A425ED17B681B891BB2032B3BD838
:101F800001A252F823F000BF991F0008B11F0008FA
:101F9000C91F0008E11F00087B681B6818467721ED
:101FA000F422342301F0AEFC7B6805225A652FE051
:101FB0007B681B6818467721F422742301F0A2FC89
:101FC0007B6808225A6523E07B681B6818467721E6
:101FD000F422B42301F096FC7B680E225A6517E0C8
:101FE0007B681B6818467721F422F42301F08AFCF1
:101FF0007B681A225A650BE07B681B6818467721BC
:10200000F422342301F07EFC7B6805225A6500BF70
:1020100001F0DCFE02460B467B685A607B685B6E13
:102020009AB27B685A8101E20000E0400000A040C3
:10203000000030407B685B891AB27B685B6E9A4215
:1020400040F0F48101F0C2FE7B685B681A464FF0F5
:102050000003821A61EB03037968496D08464FF06B
:102060000001994208BF90422CBF00230123DBB23C
:10207000002B00F0DB817B681B6807F108020092EF
:1020800018467721F622032301F0D4FC3B7A1A0488
:102090007B7A1B021A44BB7A1A447B681B891BB2E9
:1020A000C3F108031A417B689A647B685B6BA3F5F4
:1020B0007A627B68DA637B689B8A1BB21846FEF7FC
:1020C00099F904460D467B68DB6B7A68D26B02FB9C
:1020D00003F31846FEF78EF902460B4610461946E2
:1020E0004FF000027B4BFEF715FB02460B462046E5
:1020F0002946FEF7E5F902460B46104619464FF011
:102100000002754BFEF706FB02460B4610461946C9
:10211000FEF7E8FB02467B685A627B68DB891BB2EC
:102120007A68D26B02FB03F31846FEF763F90246A6
:102130000B46104619464FF00002674BFEF7EAFACD
:1021400002460B4610461946FEF7CCFB02467B685A
:102150009A627B685A6A7B689B6A1A447B68DA6277
:102160007B689B891BB29A007B68DB6A1A447B6898
:102170001B891BB202FA03F30233002B00DA03338C
:102180009B101A467B681A637B681B8A1BB27A68AD
:10219000D26B02FB03F31846FEF72CF902460B46FE
:1021A000104619464FF000024C4BFEF7B3FA0246B8
:1021B0000B4610461946FEF795FB02467B685A62AD
:1021C0007B685B8A1BB21846FEF714F904460D467D
:1021D0007B68DB6B7A68D26B02FB03F31846FEF771
:1021E00009F902460B46104619464FF00002394BDA
:1021F000FEF790FA02460B4620462946FEF760F9A4
:1022000002460B46104619464FF00002344BFEF7CB
:1022100081FA02460B4610461946FEF763FB02465A
:102220007B689A627B685A6A7B689B6A13440233B4
:102230001846FEF7DFF802460B46104619464FF0E7
:102240000002284BFEF766FA02460B461046194676
:10225000FEF748FB02467B68DA627B689B8B7A68F4
:10226000D26A02F5004202FB03F31846FEF7B2F809
:1022700002460B46104619464FF000021A4BFEF775
:1022800049FA02460B4610461946FEF753FB024632
:102290007B68DA647B689B6C1A467B681B6BD31A7D
:1022A0007A68128912B24CF2503141FA02F202FB02
:1022B00003F27B681A657B681B6D002B16DB7B685D
:1022C0001B6D5A007B68DB6CB2FBF3F31A467B682C
:1022D0001A6415E00000B0400000A0400000C040BB
:1022E0000000F040000010400000E0407B681A6DE4
:1022F0007B68DB6CB2FBF3F35B001A467B681A6405
:102300007B681B6C1846FEF775F802460B461046B4
:1023100019464FF00002474BFEF7FCF902460B4608
:1023200014461D467B681B6C1846FEF763F8024690
:102330000B46104619464FF000023E4BFEF7EAF9F5
:1023400002460B4620462946FEF7BAF802460B46DF
:1023500010461946FEF7C6FA02467B685A627B6849
:102360005B6A40F6DE3202FB03F31846FEF742F8E2
:1023700002460B46104619464FF000022E4BFEF760
:10238000C9F902460B4610461946FEF7ABFA02465B
:102390007B685A627B681B6C284A02FB03F3184671
:1023A000FEF728F802460B46104619464FF0000289
:1023B000214BFEF7AFF902460B4610461946FEF7D1
:1023C00091FA02467B689A627B681B6C1846FEF79E
:1023D00011F804460D467B685A6A7B689B6A134471
:1023E00003F6CF631846FEF705F802460B46104683
:1023F00019464FF00002124BFEF78CF902460B46CD
:1024000020462946FDF7AAFE02460B46104619460D
:10241000FEF768FA02467B681A647B681A6C3B68B0
:102420001A607B689B6D9AB27B685A811037BD46F3
:10243000B0BD00BF000070400000F04043E3FFFF6C
:102440000000304000000000B0B500AF6E486F499A
:102450006F4AFFF793FA6D4B9B6883F000426B4B1A
:102460009A606B4B9B6883F00042694B9A60694BA2
:102470001B681846FDF7D0FF02460B46104619466A
:102480005BA3D3E90023FEF71BF802460B46144674
:102490001D465E4B1B681846FDF7BEFF02460B4605
:1024A0001046194654A3D3E90023FEF733F9024638
:1024B0000B461046194652A3D3E90023FEF700F855
:1024C00002460B4620462946FDF748FE02460B46CB
:1024D00010461946FEF74EFA02464E4B1A604D4B17
:1024E0005B681846FDF798FF02460B4610461946F2
:1024F0003FA3D3E90023FDF7E3FF02460B46144652
:102500001D46424B5B681846FDF786FF02460B46A8
:102510001046194638A3D3E90023FEF7FBF802461C
:102520000B461046194636A3D3E90023FDF7C8FF32
:1025300002460B4620462946FDF710FE02460B4692
:1025400010461946FEF716FA0246324B5A60314BD6
:102550009B681846FDF760FF02460B461046194679
:1025600023A3D3E90023FDF7ABFF02460B46144635
:102570001D46264B9B681846FDF74EFF02460B464C
:10258000104619461CA3D3E90023FEF7C3F8024600
:102590000B46104619461AA3D3E90023FDF790FF16
:1025A00002460B4620462946FDF7D8FD02460B465B
:1025B00010461946FEF7DEF90246164B9A60154B97
:1025C0001B681846FEF7FAFC0546124B5B68184676
:1025D000FEF7F4FC04460F4B9B681846FEF7EEFC32
:1025E00003460D482946224601F0BEF8B0BD00BFA3
:1025F0009A9999999999E93F0AF4893C49924C40F2
:102600009A9999999999C93FC4050020FC05002021
:10261000080600201406002004590008AFF30080CB
:1026200080B500AF02480349FFF7E4FB80BD00BF5F
:102630005C0500202006002090B583B000AF8F4BD2
:102640001B68012B40F02C818D4B5A6840F21A43D5
:102650009A4240F3258101F0B9FB02460B46894BB3
:102660001A60894B1C68864BDB681846FEF78CFAAB
:102670000346864821461A4600F060FC0246844B19
:102680001A60814B5C687E4B9B681846FEF77CFAAB
:102690000346804821461A4600F050FC02467C4B17
:1026A0005A60794B9C68764B1B681846FEF76CFAAB
:1026B0000346794821461A4600F040FC0246744B16
:1026C0009A606F4B5B681846FEF75EFA0246704BE5
:1026D0001B6810461946FEF7A3F903461A466C4BD1
:1026E0005B6810461946FEF79BF903461A46684B8D
:1026F0009B6810461946FEF793F903461846FEF705
:1027000083FC03469AB2654B1A805D4B5B681846A2
:10271000FEF73AFA02465E4B1B6810461946FEF772
:102720007DF903461A465A4B5B6810461946FEF778
:1027300077F903461A46564B9B6810461946FEF732
:102740006DF903461846FEF75FFC03469AB2534BF9
:102750005A804B4B5B681846FEF716FA02464C4B04
:102760001B6810461946FEF759F903461A46484BAE
:102770005B6810461946FEF751F903461A46444B6A
:102780009B6810461946FEF74BF903461846FEF7BC
:102790003BFC03469AB2414B9A80394B5B68184622
:1027A000FEF7F2F902463A4B1B6810461946FEF74F
:1027B00037F903461A46364B5B6810461946FEF752
:1027C0002DF903461A46324B9B6810461946FEF710
:1027D00025F903461846FEF717FC03469AB22F4B1D
:1027E000DA802E4B1A8840F26C739A4203D92B4B35
:1027F00040F26C721A80294B5A8840F26C739A42EC
:1028000003D9264B40F26C725A80244B9A8840F2CE
:102810006C739A4203D9214B40F26C729A801F4B21
:10282000DA8840F26C739A4203D91C4B40F26C7206
:10283000DA801A4B1B88B3F57A7F03D2174B4FF41B
:102840007A721A80154B5B88B3F57A7F03D2134BEB
:102850004FF47A725A80114B9B88B3F57A7F03D27A
:102860000E4B4FF47A729A800C4BDB88B3F57A7F6B
:1028700003D20A4B4FF47A72DA8069E0C006002076
:10288000240600209C000020140600203C060020A6
:10289000B4060020640600208C060020C406002038
:1028A0002E4B1B68012B40D101F090FA2C4B1B687A
:1028B0001A464FF00003821A61EB030341F288309D
:1028C0004FF00001994208BF90422CBF0023012322
:1028D000DBB2002B02D0214B00221A60214801F00C
:1028E000E7F9214B40F24C421A801F4B40F24C4218
:1028F0005A801D4B40F24C429A801B4B40F24C4296
:10290000DA8000237B600CE07A6813469B00134456
:10291000DB00164A1344184600F0ACFB7B68013319
:102920007B607B68022BEFDD12E00E4801F0D0F9EE
:102930000D4B4FF47A721A800B4B4FF47A725A8017
:10294000094B4FF47A729A80074B4FF47A72DA800F
:1029500000F02CFC0C37BD4690BD00BFC006002027
:102960009C000020D4050020C40600203C06002066
:1029700080B487B000AFF860B9607A603B60002334
:102980007B61FA68BB6A9A420ADAFA687B6A9A4201
:1029900006DD3A683B6A1344DA0F13445B101CE00F
:1029A000FA68BB68D31A396A3A688A1A02FB03F2DA
:1029B0007968BB68CB1A92FBF3F23B6813447B61E6
:1029C0007A693B6A9A4201DD3B6A06E07A693B68B4
:1029D0009A4201DA3B6800E07B6918461C37BD4625
:1029E0005DF8047B704700BF80B586B004AF00F08F
:1029F000F7FC2E4B1B68002B47D02C4B5B681A460C
:102A00002B4B5A60294B1B68642200924FF4AF6233
:102A1000019240F2DC52029218464FF47A7140F271
:102A20006C726FF06303FFF7A3FF0246204B1A603E
:102A30001E4BDB683C2200924FF4AF62019240F2E1
:102A4000DC52029218464FF47A7140F26C726FF0C9
:102A50003B03FFF78DFF0246154BDA60134B9B6873
:102A60003C2200924FF4AF62019240F2DC5202929B
:102A700018464FF47A7140F26C726FF03B03FFF727
:102A800077FF02460A4B9A600DE000237B6007E067
:102A9000074B7A68002143F822107B6801337B6082
:102AA0007B68052BF4DD0837BD4680BDCC060020D1
:102AB0002406002080B483B000AF78607B68B3F553
:102AC000E16F01DD012300E0002318460C37BD460D
:102AD0005DF8047B704700BF80B483B000AF7860BE
:102AE0007A6840F24B439A4201DC012300E0002364
:102AF00018460C37BD465DF8047B704780B483B040
:102B000000AF78607A6840F24B439A4201DC0123BF
:102B100000E0002318460C37BD465DF8047B704783
:102B200080B582B000AF01F051F92D4B1B681A46F9
:102B30004FF00003821A61EB030340F2DC504FF0C8
:102B40000001994208BF904201D2012300E0002316
:102B50007B60244B1B681846FFF7ACFF0346002B35
:102B600009D0204B5B681846FFF7C8FF0346002BCF
:102B700001D0012300E00023002B0CD07B68002B48
:102B80002BD0194B01221A6001F020F902460B46A6
:102B9000164B1A6021E0134B1B681846FFF79CFF89
:102BA0000346002B09D00F4B5B681846FFF7A6FFC2
:102BB0000346002B01D0012300E00023002B06D0A8
:102BC0007B68002B09D0084B00221A6005E001F059
:102BD000FDF802460B46024B1A600837BD4680BD21
:102BE000A0000020CC060020C00600209C00002091
:102BF00080B483B000AF786039600D4B1A680D4B1C
:102C0000796843F822100A4B1A684FF47A713B68CE
:102C100091FBF3F31946084B43F82210044B1B6851
:102C20005A1C034B1A600C37BD465DF8047B704795
:102C3000A4000020C8030020A800002080B582B0B6
:102C400000AF00237B601EE001F0C0F802460B4697
:102C500013463B60104B7A6853F822303A68D21A18
:102C60000E4B796853F821309A4209D30C4B7A689D
:102C700053F822309847084B7A68396843F8221095
:102C80007B6801337B60074B1B687A689A42DBDB09
:102C90000837BD4680BD00BF38020020A8000020D4
:102CA000C8030020A400002080B582B002AF554BBD
:102CB00000221A6054489621FFF79AFF5348C82112
:102CC000FFF796FF52489621FFF792FF51483721B0
:102CD000FFF78EFF50481421FFF78AFF00F082FAB9
:102CE00000F0DAF94D484E491022102300F076FF2B
:102CF0004C484B492022102300F070FF4A484B49B2
:102D00000222102300F06AFF49484849202210237C
:102D100000F064FF474842490122482300F05EFF6B
:102D200045484649464A00F08BFD46484249022242
:102D3000FEF76AFF44484049FEF788FD394800F035
:102D4000B7FF4148FEF7A6FD364800F0C1FF3F4BF4
:102D500000933F483F49404A404B00F0CFF83B4B7F
:102D600000933F483B493C4A3C4B00F0C7F8374B87
:102D700000933C484FF081413B4A4FF0000300F084
:102D8000BDF82C4800F0B4FF0346002B14BF00230D
:102D90000123DBB2002B33D0204800F089FF21480B
:102DA00000F086FF314B40F26C721A802F4B40F2DC
:102DB0006C725A802D4B40F26C729A802B4B40F211
:102DC0006C72DA8000F0F2F94FF47A6001F020F8CA
:102DD000264B4FF47A721A80244B4FF47A725A8041
:102DE000224B4FF47A729A80204B4FF47A72DA8039
:102DF00000F0DCF9094800F06BFF0A4800F068FFBA
:102E0000BD4680BDC00600204924000821260008D8
:102E100039260008E9290008212B0008D4050020E4
:102E200000080140DC050020E4050020000C014002
:102E3000EC050020F4050020580500200054004057
:102E4000A08601005C050020C40500200000C843E6
:102E50003C0600206666A63FCDCC4C3D000070418C
:102E6000640600208C0600200AD7A33CC40600207C
:102E700080B500AFFFF7E2FE80BD00BF80B582B035
:102E800000AF786039607B68012B1CD13A684FF63F
:102E9000FF739A4217D10D4800F0C6FC0C48FEF7AC
:102EA000A7FE0C48FEF7C6FC0B4800F08BFE0B4853
:102EB00000F088FE0A4800F085FE0A4800F082FE15
:102EC000094800F07FFE0837BD4680BD5805002048
:102ED0005C050020C4050020D4050020DC0500208E
:102EE000E4050020EC050020F405002080B500AFCB
:102EF00001204FF6FF71FFF7C1FF80BD80B485B0A0
:102F000000AFF860B9607A603B60FB68BA681A602D
:102F1000FB687A685A60FB683A689A60FB68BA692D
:102F2000DA60FB684FF000025A61FB684FF0000264
:102F30009A611437BD465DF8047B7047B0B584B024
:102F400000AFF860B9607A60B8687968FDF766FD2F
:102F500003461A46FB681A61FB685C69FB685A689D
:102F6000FB681B6910461946FDF762FE03462046C2
:102F70001946FDF755FD03461A46FB685A61FB6882
:102F80005A69FB68DB6810461946FEF70DF80346E0
:102F9000002B04D0FB68DA68FB685A6112E0FB681A
:102FA0005A69FB68DB6883F0004310461946FDF759
:102FB000DDFF0346002B05D0FB68DB6883F0004291
:102FC000FB685A61FB681A68FB681B691046194662
:102FD000FDF72EFE03461A46FB685B69104619464C
:102FE000FDF71EFD03461C46FB689D68FB681A69D9
:102FF000FB689B6910461946FDF710FD03462846FD
:103000001946FDF715FE034620461946FDF708FD53
:1030100003461A46FB685A62FB685A6AFB68DB681B
:1030200010461946FDF7C0FF0346002B04D0FB688D
:10303000DA68FB685A6212E0FB685A6AFB68DB6870
:1030400083F0004310461946FDF790FF0346002B1E
:1030500005D0FB68DB6883F00042FB685A62FB68BE
:103060001A69FB689A61FB685B6A18461037BD46AF
:10307000B0BD00BF80B483B000AF78607B684FF014
:1030800000025A617B684FF000029A610C37BD461E
:103090005DF8047B704700BF80B588B000AF0320A7
:1030A000012101F037FB0C20012101F015FB012368
:1030B000BB831823FB770323BB7707F11C03364838
:1030C000194601F047FD8023BB8307F11C033348F9
:1030D000194601F03FFD4023BB8307F11C032F4835
:1030E000194601F037FD0223BB8307F11C032B486F
:1030F000194601F02FFD40F69F73BB82284B1A68DA
:10310000284BA3FB02139B0C9BB2013B9BB23B825F
:103110000023FB8200237B8207F110034FF08040E5
:10312000194600F0F1FF07F110031F48194600F09F
:10313000EBFF4FF08040012101F0FCF91A4801211A
:1031400001F0F8F960233B8001237B8000233B8161
:103150004FF47A73FB803B461348194601F064F93B
:103160004FF47A73FB803B460F48194601F0D4F8C0
:103170004FF47A73FB803B460B48194601F040F848
:103180004FF47A73FB803B464FF08040194601F0C4
:10319000C3F82037BD4680BD000C01400008014047
:1031A0000000002083DE1B430004004080B400AF19
:1031B0000A4B0B4A12889A87084B094A52881A8789
:1031C000064B074A92889A864FF08043044AD28879
:1031D0001A87BD465DF8047B704700BF00040040BD
:1031E000C406002080B584B000AF0D20012101F09D
:1031F00073FA4FF40063BB810423FB7307F10C03E4
:103200007548194601F0A6FC00200B2101F094FD41
:103210004FF400637B6000233B7210237B72012319
:10322000BB723B1D184601F0C5FD28233B700F23E0
:103230007B700F23BB700123FB703B46184601F0E7
:1032400059FE4FF48073BB810423FB7307F10C0319
:103250006148194601F07EFC0020082101F06CFD58
:103260004FF480737B6000233B7210237B72012339
:10327000BB723B1D184601F09DFD17233B700F23C9
:103280007B700F23BB700123FB703B46184601F097
:1032900031FE4FF40043BB810423FB7307F10C03A1
:1032A0004E48194601F056FC01200F2101F044FD63
:1032B0004FF400437B6000233B7210237B72012399
:1032C000BB723B1D184601F075FD28233B700F2390
:1032D0007B700F23BB700123FB703B46184601F047
:1032E00009FE4FF48043BB810423FB7307F10C03F9
:1032F0003A48194601F02EFC01200E2101F01CFD78
:103300004FF480437B6000233B7210237B720123C8
:10331000BB723B1D184601F04DFD28233B700F2367
:103320007B700F23BB700123FB703B46184601F0F6
:10333000E1FD4FF40053BB810423FB7307F10C0341
:103340002648194601F006FC01200D2101F0F4FC8D
:103350004FF400537B6000233B7210237B720123E8
:10336000BB723B1D184601F025FD28233B700F233F
:103370007B700F23BB700123FB703B46184601F0A6
:10338000B9FD4FF48053BB810423FB7307F10C0399
:103390001248194601F0DEFB01200C2101F0CCFCA3
:1033A0004FF480537B6000233B7210237B72012318
:1033B000BB723B1D184601F0FDFC28233B700F2318
:1033C0007B700F23BB700123FB703B46184601F056
:1033D00091FD1037BD4680BD00080140000C014042
:1033E00080B582B000AF00237B601FE000F002FDDB
:1033F000114A7B68DB001344D3E90023821A61EB96
:10340000030345F208204FF00001994208BF9042A3
:103410002CBF00230123DBB2002B04D0074B7A68BA
:10342000002143F822107B6801337B607B68052B09
:10343000DCDD0837BD4680BDE8060020CC06002054
:1034400080B500AF4FF4807001F022FD0346012BE0
:1034500014BF00230123DBB2002B24D012484FF409
:10346000807101F033FC0346002B0CBF00230123C5
:10347000DBB2002B07D000F0BDFC02460B460B4927
:10348000C1E908230BE000F0B5FC02460B461146EB
:10349000064BD3E908231346CA1A054B1A614FF4A9
:1034A000807001F019FD80BD00080140E806002091
:1034B000CC06002080B500AF4FF4006001F0E8FCBE
:1034C0000346012B14BF00230123DBB2002B24D0C1
:1034D00074484FF4006101F0F9FB0346002B0CBF68
:1034E00000230123DBB2002B07D000F083FC02464F
:1034F0000B466D49C1E90A230BE000F07BFC024654
:103500000B461146684BD3E90A231346CA1A674B88
:103510005A614FF4006001F0DFFC4FF4805001F07D
:10352000B7FC0346012B14BF00230123DBB2002BA1
:1035300024D05F484FF4805101F0C8FB0346002BB4
:103540000CBF00230123DBB2002B07D000F052FC9C
:1035500002460B465449C1E900230BE000F04AFC47
:1035600002460B461146504BD3E900231346CA1AB4
:103570004E4B1A604FF4805001F0AEFC4FF40050F7
:1035800001F086FC0346012B14BF00230123DBB2AC
:10359000002B24D046484FF4005101F097FB03461E
:1035A000002B0CBF00230123DBB2002B07D000F05F
:1035B00021FC02460B463C49C1E902230BE000F026
:1035C00019FC02460B461146374BD3E9022313463A
:1035D000CA1A364B5A604FF4005001F07DFC4FF48C
:1035E000804001F055FC0346012B14BF002301234A
:1035F000DBB2002B24D02E484FF4804101F066FB53
:103600000346002B0CBF00230123DBB2002B07D0A5
:1036100000F0F0FB02460B462349C1E904230BE00E
:1036200000F0E8FB02460B4611461F4BD3E904238A
:103630001346CA1A1D4B9A604FF4804001F04CFCAF
:103640004FF4004001F024FC0346012B14BF00237B
:103650000123DBB2002B24D015484FF4004101F0C8
:1036600035FB0346002B0CBF00230123DBB2002BEC
:1036700007D000F0BFFB02460B460B49C1E9062309
:103680000BE000F0B7FB02460B461146064BD3E9B0
:1036900006231346CA1A054BDA604FF4004001F0C6
:1036A0001BFC80BD00080140E8060020CC0600207D
:1036B000000C014080B500AF00F078FB4FF41650CD
:1036C00000F006F8FFF7F0FAFFF7D2FBFCE700BFC7
:1036D00080B58AB000AF786044F20500012100F0A7
:1036E000FBFF4FF40073BB84182387F827300323B4
:1036F00087F8263007F124031948194601F02AFA01
:103700004FF48063BB84042387F8273007F1240338
:103710001348194601F01EFA07F10C03184600F091
:103720008FFC07F10C030F48194600F05FFC7B6823
:103730007B6100233B8300237B830023BB830C231B
:10374000FB8300233B8407F114030648194600F06D
:1037500093FB0448012100F089FC2837BD4680BD59
:1037600000080140003801400FB480B584B000AFBC
:1037700007F11C037B6000200021BA697B6801F01F
:1037800043FDF860FB680133184601F039FC03463D
:10379000BB60B868B9697A6801F05EFD0648B9682F
:1037A00000F026F8B86801F033FC00BF1037BD46C2
:1037B000BDE8804004B070470038014080B582B059
:1037C00000AF78600B46FB7000BF0848402100F056
:1037D0007FFC0346002BF8D0FB789BB203481946C8
:1037E00000F064FC0837BD4680BD00BF00380140D2
:1037F00080B584B000AF786039600023FB600AE0D8
:10380000FB683A6813441B7878681946FFF7D6FFBF
:10381000FB680133FB60FB683A6813441B78002B9C
:10382000EED11037BD4680BD80B483B000AF786064
:103830007B6818460C37BD465DF8047B704700BFB7
:1038400080B58AB000AFF860B9607A60FB68BA688A
:103850001A600820012100F03FFFFB681A68264B20
:103860009A4213D14FF40010012100F053FFC023FE
:10387000BB841C2387F82730032387F8263007F101
:1038800024031E48194601F065F918E0FB681A6820
:103890001B4B9A4213D14FF48000012100F03AFFF4
:1038A0004FF44063BB841C2387F82730032387F839
:1038B000263007F124031148194601F04BF9002383
:1038C0003B834FF480437B830023BB834FF48063AF
:1038D000FB837B687B61FB681A6807F11403104661
:1038E000194600F035FFFB681B681846012100F0FF
:1038F000F1FF2837BD4680BD00540040000C014058
:103900000058004080B582B000AF7860F970BA709E
:103910007B707B681B681846012101F03BF800BFF3
:103920007B681B6818464FF4003101F0DFF803464E
:10393000002B0CBF00230123DBB2002BF0D17B68EE
:103940001B681846012100F0E5FF00BF7B681B687B
:103950001846344901F0CAF80346002B14BF00236F
:103960000123DBB2002BF1D17B681A68FB785B0086
:10397000DBB210461946002201F04AF800BF7B680E
:103980001B681846284901F081F80346002B14BF34
:1039900000230123DBB2002BF1D17B681A68BB78CE
:1039A0001046194601F016F800BF7B681B681846E0
:1039B0001E4901F06BF80346002B14BF00230123BE
:1039C000DBB2002BF1D17B681A687B781046194670
:1039D00001F000F800BF7B681B681846134901F02E
:1039E00055F80346002B14BF00230123DBB2002B44
:1039F000F1D17B681B681846012100F0ABFF00BFC6
:103A00007B681B6818460A4901F070F80346002BD2
:103A10000CBF00230123DBB2002BF1D10837BD46D8
:103A200080BD00BF01000010820007008400070075
:103A30001000001090B587B000AFF8607B600B46B7
:103A4000FB721346BB725848012100F0A3FF00BF70
:103A500055484FF4003101F049F80346002B0CBFE4
:103A600000230123DBB2002BF2D14F48012100F0EB
:103A700051FF00BF4C484D4901F038F80346002B78
:103A800014BF00230123DBB2002BF3D1FB7A5B00D0
:103A9000DBB245481946002200F0BAFF00BF424899
:103AA000434900F0F3FF0346002B14BF002301231A
:103AB000DBB2002BF3D1BB7A3B48194600F08AFFFA
:103AC00000BF39483B4900F0E1FF0346002B14BF1B
:103AD00000230123DBB2002BF3D13348012100F096
:103AE00019FF00BF3048314901F000F80346002BB0
:103AF00014BF00230123DBB2002BF3D1FB7A5B0060
:103B0000DBB229481946012200F082FF00BF264897
:103B1000294900F0BBFF0346002B14BF00230123FB
:103B2000DBB2002BF3D100237B6125E000BF1E48F0
:103B3000224900F0ABFF0346002B14BF00230123F2
:103B4000DBB2002BF3D17B69BA6AD418164800F0B7
:103B500051FF034623707B689A1E7B699A4208D105
:103B60001148002100F016FF0F484FF2FF7100F0DE
:103B70006DFF7B6901337B617A697B689A42D5DB93
:103B80000948012100F0E6FE00BF07480C4900F09B
:103B9000ADFF0346002B0CBF00230123DBB2002B3B
:103BA000F3D11C37BD4690BD005400400100001009
:103BB00082000700840007000200030040000300A9
:103BC0001000001080B483B000AF78607B681846A6
:103BD0000C37BD465DF8047B704700BF80B586B0EA
:103BE00000AFF860B960FA807B71FB68BA681A6050
:103BF000FB68FA889A80FB687A799A71FB681A6880
:103C0000254B9A4204D10420012100F065FD30E0EB
:103C1000FB681A68214B9A4204D10820012100F068
:103C20005BFD26E0FB681A681D4B9A4204D1102008
:103C3000012100F051FD1CE0FB681A68194B9A4203
:103C400004D12020012100F047FD12E0FB681A6832
:103C5000154B9A4204D14020012100F03DFD08E0BF
:103C6000FB681A68114B9A4203D18020012100F0B1
:103C700033FDFB689B79FB75FB689B88BB82032344
:103C8000BB75FB681A6807F114031046194600F06B
:103C900061FF1837BD4680BD00080140000C01409F
:103CA000001001400014014000180140001C0140B8
:103CB00080B582B000AF78607B681A687B689B88AB
:103CC0001046194601F01CF80837BD4680BD00BFFC
:103CD00080B582B000AF78607B681A687B689B888B
:103CE0001046194601F01AF80837BD4680BD00BFDE
:103CF00080B582B000AF78607B681A687B689B886B
:103D00001046194600F0E2FF034618460837BD4644
:103D100080BD00BF80B483B000AF03463960FB7143
:103D200097F90730002B0BDA0D49FB7903F00F03ED
:103D3000043B3A68D2B21201D2B20B441A7609E0BF
:103D4000084997F907303A68D2B21201D2B20B444F
:103D500083F800230C37BD465DF8047B704700BF35
:103D600000ED00E000E100E080B582B000AF7860D7
:103D70007B68B3F1807F01D3012311E00A4B7A689D
:103D800022F07F42013A5A604FF0FF300F21FFF7D7
:103D9000C1FF054B00229A60034B07221A600023E3
:103DA00018460837BD4680BD10E000E080B500AF82
:103DB000044B1A68044BA3FB02139B0C1846FFF735
:103DC000D3FF80BD0000002083DE1B4380B500AF21
:103DD000074BD3E90023104619464FF47A724FF08F
:103DE0000003FDF731F902460B461046194680BD27
:103DF0002807002080B400AF044BD3E9002310460D
:103E00001946BD465DF8047B704700BF28070020B7
:103E100080B584B000AF78604FF000024FF000032F
:103E2000C7E90223FFF7D2FFC7E9020100BFFFF78E
:103E3000CDFFD7E90223801A61EB03017B681A46A4
:103E40004FF00003994208BF9042F0D31037BD46AF
:103E500080BD00BF80B400AF064BD3E90023013220
:103E600043F100030349C1E90023BD465DF8047B2B
:103E7000704700BF2807002080B58CB000AF786085
:103E800039600023FB620023BB6200237B620023B6
:103E90003B620023FB617B68FB617B681B8A9BB2F2
:103EA000FB62FA6A4CF6FF731340FB623B68DB88E7
:103EB000FA6A1343FB62FB6A9AB27B681A827B68D8
:103EC0009B899BB2FB62FA6A4EF6F3131340FB62C6
:103ED0003B689A883B681B8913439AB23B685B89AD
:103EE00013439BB2FA6A1343FB62FB6A9AB27B6884
:103EF0009A817B689B8A9BB2FB62FA6A4FF6FF430A
:103F00001340FB623B689B89FA6A1343FB62FB6ABE
:103F10009AB27B689A8207F10803184600F02AFBE0
:103F2000FA69304B9A4202D17B69BB6201E03B697E
:103F3000BB627B689B899BB29BB21BB2002B0CDAE5
:103F4000BA6A13469B0013449A001A443B681B68E4
:103F50005B00B2FBF3F37B620BE0BA6A13469B0093
:103F600013449A001A443B681B689B00B2FBF3F3AE
:103F70007B627A6A1C4BA3FB02135B091B01FB6289
:103F8000FB6A1B09642202FB03F37A6AD31A3B62C1
:103F90007B689B899BB29BB21BB2002B0DDA3B6AFC
:103FA000DB0003F13202104BA3FB02135B0903F0A9
:103FB0000703FA6A1343FB620CE03B6A1B0103F13F
:103FC0003202094BA3FB02135B0903F00F03FA6AE9
:103FD0001343FB62FB6A9AB27B681A813037BD4695
:103FE00080BD00BF003801401F85EB5180B485B013
:103FF00000AF786039600023FB607B681B8A9BB24E
:10400000FB60FA684FF2FF031340FB603B681A88BD
:104010003B685B8813439AB23B689B8813439AB210
:104020003B68DB8813439BB2FA681343FB60FB6871
:104030009AB27B681A821437BD465DF8047B7047DC
:1040400080B483B000AF78607B6800221A807B6800
:1040500000225A807B6800229A807B680022DA80E6
:104060000C37BD465DF8047B704700BF80B483B059
:1040700000AF78600B46FB70FB78002B08D07B68A4
:104080009B899BB243F400539AB27B689A8107E004
:104090007B689B899BB223F400539AB27B689A8118
:1040A0000C37BD465DF8047B704700BF80B483B019
:1040B00000AF78600B467B807B88C3F308039AB21D
:1040C0007B689A800C37BD465DF8047B704700BF63
:1040D00080B485B000AF78600B467B800023FB7313
:1040E0007B681B889AB27B8813409BB2002B02D05E
:1040F0000123FB7301E00023FB73FB7B184614379D
:10410000BD465DF8047B704780B485B000AF786031
:1041100039600023FB817B681B88FB817A682E4B0A
:104120009A4213D07A682D4B9A420FD07B68B3F134
:10413000804F0BD07A682A4B9A4207D07A68294B75
:104140009A4203D07A68284B9A4208D1FB8923F01F
:104150007003FB813B685A88FB891343FB817A68B3
:10416000224B9A420CD07A68214B9A4208D0FB89A4
:1041700023F44073FB813B68DA88FB891343FB819E
:104180007B68FA891A803B689A887B689A853B68C5
:104190001A887B681A857A680F4B9A420FD07A6822
:1041A0000E4B9A420BD07A68124B9A4207D07A682B
:1041B000114B9A4203D07A68104B9A4204D13B6863
:1041C0001B7A1A467B681A867B6801229A8214370A
:1041D000BD465DF8047B7047002C0140003401406F
:1041E0000004004000080040000C004000100040A7
:1041F00000140040004001400044014000480140DC
:1042000080B485B000AF7860396000237B810023E3
:10421000FB810023BB817B681B8C9BB223F00103D5
:104220009AB27B681A847B681B8CFB817B689B88B5
:10423000BB817B681B8B7B817B8923F070037B8137
:104240007B8923F003037B813B681A887B891343B6
:104250007B81FB8923F00203FB813B681A89FB8980
:104260001343FB813B685A88FB891343FB817A68BF
:10427000244B9A420FD07A68234B9A420BD07A682B
:10428000224B9A4207D07A68214B9A4203D07A682F
:10429000204B9A4223D1FB8923F00803FB813B6822
:1042A0005A89FB891343FB81FB8923F00403FB81BB
:1042B0003B689A88FB891343FB81BB8923F4807395
:1042C000BB81BB8923F40073BB813B689A89BB899E
:1042D0001343BB813B68DA89BB891343BB817B688D
:1042E000BA899A807B687A891A833B68DA887B6806
:1042F0009A867B68FA891A841437BD465DF8047B78
:10430000704700BF002C01400034014000400140D4
:10431000004401400048014080B485B000AF78609F
:10432000396000237B810023FB810023BB817B68F4
:104330001B8C9BB223F010039AB27B681A847B68B3
:104340001B8CFB817B689B88BB817B681B8B7B8183
:104350007B8923F4E0437B817B8923F440737B8159
:104360003B681B881B029AB27B8913437B81FB89C4
:1043700023F02003FB813B681B891B019AB2FB8958
:104380001343FB813B685B881B019AB2FB89134393
:10439000FB817A68224B9A4203D07A68214B9A4279
:1043A0002BD1FB8923F08003FB813B685B891B01D8
:1043B0009AB2FB891343FB81FB8923F04003FB8105
:1043C0003B689B881B019AB2FB891343FB81BB8925
:1043D00023F48063BB81BB8923F40063BB813B680A
:1043E0009B899B009AB2BB891343BB813B68DB89E5
:1043F0009B009AB2BB891343BB817B68BA899A80C0
:104400007B687A891A833B68DA887B681A877B68BD
:10441000FA891A841437BD465DF8047B704700BFE3
:10442000002C01400034014080B485B000AF7860BA
:10443000396000237B810023FB810023BB817B68E3
:104440001B8C9BB223F480739AB27B681A847B68BE
:104450001B8CFB817B689B88BB817B689B8B7B81F2
:104460007B8923F070037B817B8923F003037B81AD
:104470003B681A887B8913437B81FB8923F4007393
:10448000FB813B681B891B029AB2FB891343FB81AA
:104490003B685B881B029AB2FB891343FB817A68F5
:1044A000224B9A4203D07A68214B9A422BD1FB8946
:1044B00023F40063FB813B685B891B029AB2FB8992
:1044C0001343FB81FB8923F48063FB813B689B885A
:1044D0001B029AB2FB891343FB81BB8923F48053EF
:1044E000BB81BB8923F40053BB813B689B891B01C3
:1044F0009AB2BB891343BB813B68DB891B019AB22B
:10450000BB891343BB817B68BA899A807B687A89AF
:104510009A833B68DA887B689A877B68FA891A8471
:104520001437BD465DF8047B704700BF002C014086
:104530000034014080B483B000AF78600B46FB705C
:10454000FB78002B08D07B681B889BB243F00103EB
:104550009AB27B681A8007E07B681B889BB223F0C5
:1045600001039AB27B681A800C37BD465DF8047B64
:10457000704700BF80B487B000AF786000237B61D4
:1045800000233B610023FB600023BB604D4B5B6855
:1045900003F00C037B617B69042B07D0082B09D047
:1045A000002B34D17B68484A1A6034E07B68464A65
:1045B0001A6030E0434B5B6803F470133B61414B7E
:1045C0005B6803F48033FB603B699B0C02333B6107
:1045D000FB68002B06D13B693C4A02FB03F27B6877
:1045E0001A6013E0374B5B6803F40033002B06D0EE
:1045F0003B69364A02FB03F27B681A6006E03B69BE
:10460000314A02FB03F27B681A6004E003E07B6836
:104610002D4A1A6000BF2B4B5B6803F0F0037B61EF
:104620007B691B097B612A4A7B6913441B78DBB2D7
:10463000BB607B681A68BB68DA407B685A60214BB4
:104640005B6803F4E0637B617B691B0A7B61204A42
:104650007B6913441B78DBB2BB607B685A68BB681C
:10466000DA407B689A60174B5B6803F460537B61A8
:104670007B69DB0A7B61164A7B6913441B78DBB2DA
:10468000BB607B685A68BB68DA407B68DA600D4BB8
:104690005B6803F440437B617B699B0B7B610D4A44
:1046A0007B6913441B78DBB2BB607B68DA68BB684C
:1046B000B2FBF3F27B681A611C37BD465DF8047BE0
:1046C000704700BF0010024000127A0000093D0050
:1046D000040000201400002080B483B000AF786094
:1046E0000B46FB70FB78002B06D0094B084A9169FA
:1046F0007A680A439A6106E0054B054A91697A682F
:10470000D2430A409A610C37BD465DF8047B70477E
:104710000010024080B483B000AF78600B46FB709D
:10472000FB78002B06D0094B084AD1697A680A4306
:10473000DA6106E0054B054AD1697A68D2430A403E
:10474000DA610C37BD465DF8047B7047001002400B
:1047500080B58AB000AF786039600023FB84002305
:104760007B840423BB84574BFB617B689B88FB8461
:10477000FB8C23F03F03FB8407F108031846FFF787
:10478000F9FE3B69FB61FA694F4BA3FB02139B0CDB
:104790007B84FA8C7B8C1343FB847B68FA8C9A8035
:1047A0007B681B889BB223F001039AB27B681A8056
:1047B0000023FB843B681A68444B9A4215D83B6837
:1047C0001B685B00FA69B2FBF3F3BB84BB8C032B61
:1047D00001D80423BB84FA8CBB8C1343FB847B8CF1
:1047E00001339AB27B681A8440E03B68DA884BF662
:1047F000FF739A4209D13B681A6813465B00134461
:10480000FA69B2FBF3F3BB840EE03B681A68134607
:104810009B0013449A001344FA69B2FBF3F3BB8480
:10482000BB8C43F48043BB84BB8CC3F30B03002BD2
:1048300003D1BB8C43F00103BB84BA8CFB8C1343C4
:104840009BB26FEA43436FEA5343FB847B8C4FF484
:10485000967202FB03F31E4A82FB03129211DB17CE
:10486000D31A9BB201339AB27B681A847B68FA8CA4
:104870009A837B681B889BB243F001039AB27B68E2
:104880001A807B681B88FB84FB8C23F4816323F0F4
:104890000203FB843B689A883B685B8913439AB2A6
:1048A000FB8C1343FB847B68FA8C1A803B689A89E3
:1048B0003B681B8913439AB27B681A812837BD462F
:1048C00080BD00BF00127A0083DE1B43A08601007A
:1048D000D34D621080B483B000AF78600B46FB709C
:1048E000FB78002B08D07B681B889BB243F0010348
:1048F0009AB27B681A8007E07B681B889BB223F022
:1049000001039AB27B681A800C37BD465DF8047BC0
:10491000704700BF80B483B000AF78600B46FB7077
:10492000FB78002B08D07B681B889BB243F4807314
:104930009AB27B681A8007E07B681B889BB223F4DD
:1049400080739AB27B681A800C37BD465DF8047B91
:10495000704700BF80B483B000AF78600B46FB7037
:10496000FB78002B08D07B681B889BB243F4007354
:104970009AB27B681A8007E07B681B889BB223F49D
:1049800000739AB27B681A800C37BD465DF8047BD1
:10499000704700BF80B483B000AF78600B46FB70F7
:1049A000FB78002B08D07B681B889BB243F48063A4
:1049B0009AB27B681A8007E07B681B889BB223F45D
:1049C00080639AB27B681A800C37BD465DF8047B21
:1049D000704700BF80B483B000AF78600B46FB70B7
:1049E000FB789AB27B681A820C37BD465DF8047B6F
:1049F000704700BF80B483B000AF78607B681B8ACB
:104A00009BB2DBB218460C37BD465DF8047B70479D
:104A100080B483B000AF786013460A46FA70BB706A
:104A2000BB78002B04D0FB7843F00103FB7003E05C
:104A3000FB7823F00103FB70FB789AB27B681A8243
:104A40000C37BD465DF8047B704700BF80B483B06F
:104A500000AF78600B467B807B88B3F5006F08D190
:104A60007B681B889BB243F400639AB27B681A8010
:104A700007E07B681B889BB223F400639AB27B68D3
:104A80001A800C37BD465DF8047B704780B487B050
:104A900000AF7860396000233B610023FB60002396
:104AA000BB600023FB757B689B8A9BB2FB607B68C5
:104AB0001B8B9BB2BB60BB681B04BB60FA68BB6806
:104AC000134323F07F433B613A693B681A403B68DC
:104AD0009A4202D10123FB7501E00023FB75FB7DA7
:104AE00018461C37BD465DF8047B704780B487B01C
:104AF00000AF786039600023FB7500233B61002321
:104B0000FB607B68FB603B681B0F3B613B6823F0ED
:104B10007F433B603B69002B03D0FB681433FB6091
:104B200005E03B681B0C3B60FB681833FB60FB68CF
:104B30001A683B681340002B02D00123FB7501E08B
:104B40000023FB75FB7D18461C37BD465DF8047BD2
:104B5000704700BF80B489B000AF7860396000232F
:104B6000FB6100233B610023BB610023FB6000234A
:104B70007B610023BB603B68DB7803F00F03FB61C4
:104B80003B68DB7803F01003002B04D03B689B7874
:104B9000FA691343FB613B681B88DBB2002B44D0EE
:104BA0007B681B687B610023BB6138E0BB69012225
:104BB00002FA03F3FB603B681B881A46FB6813404C
:104BC0003B613A69FB689A4226D1BB699B00FB6056
:104BD000FB680F2202FA03F3BB60BB68DB437A6910
:104BE00013407B61FB68FA6902FA03F37A691343A5
:104BF0007B613B68DB78282B05D1BB6901229A4099
:104C00007B685A6108E03B68DB78482B04D1BB69BC
:104C100001229A407B681A61BB690133BB61BB69A1
:104C2000072BC3D97B687A691A603B681B88FF2B06
:104C300046D97B685B687B610023BB613AE0BB6956
:104C40000833012202FA03F3FB603B681B881A4613
:104C5000FB6813403B613A69FB689A4227D1BB6904
:104C60009B00FB60FB680F2202FA03F3BB60BB688A
:104C7000DB437A6913407B61FB68FA6902FA03F34C
:104C80007A6913437B613B68DB78282B05D1BB69CC
:104C9000083301229A407B685A613B68DB78482BD5
:104CA00005D1BB69083301229A407B681A61BB6950
:104CB0000133BB61BB69072BC1D97B687A695A6034
:104CC0002437BD465DF8047B704700BF80B485B0D3
:104CD00000AF78600B467B800023FB737B689A688B
:104CE0007B881340002B02D00123FB7301E00023DB
:104CF000FB73FB7B18461437BD465DF8047B704799
:104D000080B483B000AF78600B467B807A887B6884
:104D10001A610C37BD465DF8047B704780B483B0E0
:104D200000AF78600B467B807A887B685A610C37CD
:104D3000BD465DF8047B704790B484B000AF024676
:104D40000B46FA71BB710023FB60BB7903F00303D0
:104D50009B000F2202FA03F3FB60154BBA7992080D
:104D6000D2B21349B8798008C0B2023051F820009D
:104D7000F968C9430140023243F822100C4BBA795A
:104D80009208D2B20A49B8798008C0B2023051F80C
:104D90002000FC79B97901F00301890004FA01F1DE
:104DA0000143023243F822101037BD4690BC7047D1
:104DB0000000014080B485B000AF78600023FB6044
:104DC000324BFB607B689B79002B4DD02F4B2F4AD9
:104DD00011687A681268D2430A401A602B4B2B4A3A
:104DE00051687A681268D2430A405A607B681B791E
:104DF000FA681344FB60FB68FA6811687A68126805
:104E00000A431A60214B214A91687A681268D2439A
:104E10000A409A601D4B1D4AD1687A681268D243D5
:104E20000A40DA607B685B79102B0ED1174B174A6A
:104E300091687A6812680A439A60144B134AD168E1
:104E40007A6812680A43DA601BE0104BFB607B68EB
:104E50005B79FA681344FB60FB68FA6811687A684A
:104E600012680A431A600CE07B681B79FA681344E5
:104E7000FB60FB68FA6811687A681268D2430A40DE
:104E80001A601437BD465DF8047B7047000401408A
:104E900080B485B000AF78600023FB730023BB6053
:104EA0000C4B1A687B681340BB600A4B5A697B68DD
:104EB0001340002B05D0BB68002B02D00123FB73ED
:104EC00001E00023FB73FB7B18461437BD465DF8F9
:104ED000047B70470004014080B483B000AF786069
:104EE000034B7A685A610C37BD465DF8047B704706
:104EF0000004014080B487B000AF786000237B617C
:104F000000233B610F23FB607B68DB78002B38D0EC
:104F1000264BDB68DB4303F4E0631B0A7B617B69A0
:104F2000C3F104033B617B69FA6822FA03F3FB6077
:104F30007B685B781A463B6902FA03F37B617B6806
:104F40009B781A46FB6813407A6913437B617B693F
:104F50001B017B6116497B681B787A69D2B20B44CE
:104F600083F80023124B7A6812785209D2B279681A
:104F7000097801F01F01012000FA01F143F8221025
:104F80000EE00B4B7A6812785209D2B27968097830
:104F900001F01F01012000FA01F1203243F8221034
:104FA0001C37BD465DF8047B704700BF00ED00E094
:104FB00000E100E070B50E4B0E4D0024ED1AAD106F
:104FC0001E46AC4204D056F8242090470134F8E73E
:104FD00000F080FC084D094B0024ED1AAD101E4670
:104FE000AC4204D056F8242090470134F8E770BD55
:104FF00060590008605900086859000860590008A5
:10500000024B0146186800F04FB800BF780000203E
:10501000024B0146186800F003B800BF780000207A
:1050200030B500293CD051F8042C0B1F1D49002A33
:10503000B8BF9B180A680C4612B95A600B6030BDA5
:1050400093420DD219685818904203D15A5811440E
:10505000426819605A60236030BD994203D80A46FD
:1050600051680029F9D1146815199D420AD11B68AD
:105070002344D0188842136012D108680344136097
:105080004B680CE002D90C23036030BD18681C1873
:105090008C4203D10C684968204418605960536001
:1050A00030BD00BF1C07002070B5CD1C25F00305E6
:1050B00008350C2D38BF0C25002D06463FDB8D42F0
:1050C0003DD3214B1C6818462146A1B10B685B1BE0
:1050D0000ED40B2B03D90B60CC18CD501FE08C42A3
:1050E00002D1626802601AE04B6863600C4616E009
:1050F0000C464968E9E7154C23681BB9304600F0B7
:1051000027F820602946304600F022F8431C01466B
:1051100015D0C41C24F0030484420AD1256004F194
:105120000B00231D20F00700C31A0BD05A42E25097
:1051300070BD3046611A00F00BF80130EED10C233F
:105140003360002070BD00BF1C070020180700203E
:1051500038B5064C002305460846236000F010F8D9
:10516000431C02D1236803B12B6038BD30070020F7
:10517000034613F8012B002AFBD1181A0138704797
:10518000094B1A680AB9094A1A601B686A4618442A
:10519000904205D9064B0C221A604FF0FF30704741
:1051A000014A10601846704720070020340700208D
:1051B0003007002030B5141E9BB0054604DA8B235F
:1051C00003604FF0FF301CE04FF402720091049135
:1051D000ADF80C2014BF04F1FF3121464FF6FF72E9
:1051E00002910591ADF80E2069461A461E9B00F00B
:1051F0009DF8431CBCBF8B232B6014B1009B002285
:105200001A701BB030BD000073B50093054B064605
:105210000D461446186831462A462346FFF7CAFF52
:1052200002B070BD7800002010B59AB000910491D2
:105230006FF00041029105914FF6FF71ADF80E102D
:105240004FF402746946ADF80C4000F06FF8009B13
:1052500000221A701AB010BD30B51346044A054634
:105260000C46106829462246BDE83040FFF7DCBFF7
:10527000780000202DE9F0478D688146AB420C464E
:1052800092461F4643D38B8913F4906F3DD0266816
:1052900009690222C1EB0608666906EB460696FB21
:1052A000F2F608F101023A44964238BF16465B0511
:1052B0000FD53146FFF7F8FE054698B12169424601
:1052C00000F0B4FAA38923F4906343F08003A38130
:1052D00013E0324600F0CEFA054670B9484621691F
:1052E000FFF79EFE0C23C9F80030A3894FF0FF3072
:1052F00043F04003A381BDE8F08725616661454422
:10530000C8EB06062560A6603D46AF4200D23D468A
:105310002A462068514600F092FAA36800205B1BE1
:10532000A36023681D442560BDE8F0872DE9F043A4
:105330009DB003938B8907461C060D4616460CD577
:105340000B6953B94021FFF7AFFE2860286110B9FF
:105350000C233B60C7E040236B61002309932023AB
:105360008DF8293030238DF82A3033461C4613F847
:10537000012B1AB9B4EB06090FD002E0252AF5D1AA
:10538000F8E73846294632464B46FFF773FF0130AF
:1053900000F0A480099B4B4409932378002B00F074
:1053A0009D8000234FF0FF320493079305920693EC
:1053B0008DF853301A9304F101094D4E4C46304696
:1053C0002178052200F024FA09F10109049B28B193
:1053D000861B0120B04003430493EEE7D90644BF87
:1053E00020228DF853201A0744BF2B228DF853201A
:1053F00022782A2A02D0079B21460EE0039A111D2B
:1054000012680391002A01DB079204E0524243F044
:1054100002030792049301340AE00C46227801311A
:10542000303A092A03D80A2000FB0323F5E7079343
:1054300023782E2B19D163782A2B09D1039B0234B0
:105440001A1D1B680392002BB8BF4FF0FF330BE00F
:10545000611C00230C4622780131303A092A03D816
:105460000A2000FB0323F5E70593224E21783046FE
:10547000032200F0CDF930B1861B4020B040049BE0
:1054800001340343049321781B480622661C8DF8DF
:10549000281000F0BDF988B1184B33B9039B0733CE
:1054A00023F007030833039314E003AB009338465B
:1054B00004A92A46124BAFF3008007E003AB009328
:1054C000384604A92A460E4B00F08EF8B0F1FF3F93
:1054D000804603D0099B4344099346E7AB895B06AA
:1054E00001D4099801E04FF0FF301DB0BDE8F08312
:1054F00022590008285900082C5900080000000013
:10550000755200082DE9F84315461F468A680B6955
:1055100006469A42A8BF13462B6091F843200C46DA
:10552000DDF820800AB101332B602368990602D58B
:105530002B6802332B60236813F006091DD094F802
:1055400043302268003318BF012392061FD5E118AB
:10555000302081F843005A1C94F84510224402334D
:1055600082F8431013E03046394604F11902012352
:10557000C047013007D009F10109E2682B68D31A4E
:105580009945F0DBDBE74FF0FF30BDE8F8833046AC
:10559000394604F14302C0470130F4D023682A6839
:1055A00003F00603E168042B08BFC2EB0105236981
:1055B000A2680CBF25EAE57500259A42C4BFC3EB7B
:1055C0000203ED184FF00009A9450ADA30463946C2
:1055D00004F11A020123C0470130D4D009F10109B6
:1055E000F2E70020BDE8F8832DE9FF470E7E8046F4
:1055F0006E2E0C4691469A460C9D01F1430000F038
:10560000A58011D8632E22D009D8002E00F0AF80DB
:10561000582E40F0BF8081F845607B4A4FE0642EF1
:105620001ED0692E1CD0B5E0732E00F0A48009D8DE
:105630006F2E2BD0702E40F0AD800B6843F020030E
:105640000B6038E0752E21D0782E34D0A2E02B6884
:1056500001F142071A1D1B682A6081F842309DE063
:1056600022682B6812F0800F03D01A1D2A601D6873
:1056700005E05106F9D51A1D2A60B3F90050002D36
:1056800039DA2D236D4284F8433034E022682B68E8
:1056900012F0800F03D01A1D2A601D6804E0520624
:1056A000F9D51A1D2A601D88237E574A6F2B14BF17
:1056B0000A2308231BE07823544A84F845302368E2
:1056C000296813F0800F01F104062E6001D00D68E7
:1056D00002E05F06FBD50D88DE0744BF43F02003E0
:1056E00023601DB9236823F02003236010230021C9
:1056F00084F8431001E0444A0A236668002EA6603D
:1057000003DB216821F00401216005B96EB104F1C9
:105710004201B5FBF3F603FB1655555D0F4601F844
:1057200001593546002EF4D100E00746082B0AD176
:105730002368DD0707D5626823699A4203DC3023BA
:1057400007F8013C013FC01B20612CE009682B6871
:1057500011F0800F626904D0191D29601B681A605E
:1057600005E04906F8D5191D29601B681A80002339
:105770002361074617E02B681A1D2A601F68384608
:10578000FFF7F6FC63682061984288BF23612369B4
:10579000636005E004F1420784F84260012323615D
:1057A000002384F84330CDF800A04046214603AAE8
:1057B0004B46FFF7A7FE013002D14FF0FF301FE04C
:1057C000404649463A462369D0470130F5D0236820
:1057D0009B0705D4E068039B9842B8BF18460FE0CA
:1057E0000025E268039BD31A9D42F3DA40464946FE
:1057F00004F119020123D0470130DED00135F0E772
:1058000004B0BDE8F08700BF3359000844590008D0
:1058100010B5C9B202449042034605D01C7801304D
:105820008C42F8D1184610BD002010BD10B50023E1
:10583000934203D0CC5CC4540133F9E710BD8142DC
:1058400070B501D300230EE08C18A042FAD285185F
:10585000134613F1FF3305D351426618F65C294411
:10586000CE54F6E770BD934203D0CC5CC4540133F0
:10587000F9E770BDF8B5064614460D4621B9114644
:10588000BDE8F840FFF710BC1AB9FFF7C9FB204686
:10589000F8BD00F015F8A0420ED230462146FFF7C1
:1058A00003FC074650B129462246FFF7BFFF3046AA
:1058B0002946FFF7B5FB01E02846F8BD3846F8BD9C
:1058C00051F8040C002802DA04390B581844043843
:1058D00070470000F8B500BFF8BC08BC9E46704792
:0C58E000F8B500BFF8BC08BC9E4670473D
:1058EC005A65726F65733A20256920092025692055
:1058FC0009202569200A0000416E676C6520783A02
:10590C002025692009793A20256920097A3A202531
:10591C0069200A004300232D302B2000686C4C00BA
:10592C006566674546470030313233343536373893
:10593C0039414243444546003031323334353637F1
:0C594C0038396162636465660000000089
:0859580080B7FF7F0100000091
:0859600035010008ED2E0008DE
:045968001101000821
:10596C0000A24A0400000000010203040102030427
:10597C0006070809020406080000000000000000E9
:10598C00000000000000000000000000000000000B
:10599C00000000000000000020590008000000007A
:1059AC0000000000000000000000000000000000EB
:1059BC0000000000000000000000000000000000DB
:1059CC0000000000000000000000000000000000CB
:0C59DC0000000000000000001800002087
:04000005080017D9FF
:00000001FF
