:020000040800F2
:1000000000500020410B0008E50A0008F10A000832
:10001000F90A0008010B0008090B000800000000A5
:10002000000000000000000000000000110B0008AC
:100030001D0B000800000000290B0008350B00080C
:10004000990B0008990B0008990B0008990B000800
:10005000990B0008990B0008990B0008990B0008F0
:10006000990B0008990B0008990B0008990B0008E0
:10007000990B0008990B0008990B0008990B0008D0
:10008000990B0008990B0008990B0008990B0008C0
:10009000990B0008990B0008990B0008990B0008B0
:1000A000990B0008990B0008990B0008990B0008A0
:1000B000990B0008990B0008990B0008990B000890
:1000C000990B0008990B0008990B0008990B000880
:1000D000990B0008990B0008990B0008990B000870
:1000E000990B0008990B0008990B0008000000000C
:1000F0000000000000000000000000000000000000
:0C01000000000000000000005FF808F1A3
:10010C0010B5054C237833B9044B13B10448AFF345
:10011C0000800123237010BD7C0000200000000033
:10012C000433000808B5034B1BB103480349AFF374
:10013C00008008BD0000000004330008800000208F
:10014C0081F0004102E000BF83F0004330B54FEA7C
:10015C0041044FEA430594EA050F08BF90EA020FE9
:10016C001FBF54EA000C55EA020C7FEA645C7FEA7C
:10017C00655C00F0E2804FEA5454D4EB5555B8BF9F
:10018C006D420CDD2C4480EA020281EA030382EA10
:10019C00000083EA010180EA020281EA0303362DA2
:1001AC0088BF30BD11F0004F4FEA01314FF4801C75
:1001BC004CEA113102D0404261EB410113F0004F87
:1001CC004FEA03334CEA133302D0524263EB43033E
:1001DC0094EA050F00F0A780A4F10104D5F1200EDC
:1001EC000DDB02FA0EFC22FA05F2801841F1000137
:1001FC0003FA0EF2801843FA05F359410EE0A5F10B
:10020C0020050EF1200E012A03FA0EFC28BF4CF03B
:10021C00020C43FA05F3C01851EBE37101F00045F1
:10022C0007D54FF0000EDCF1000C7EEB00006EEBFE
:10023C000101B1F5801F1BD3B1F5001F0CD3490888
:10024C005FEA30004FEA3C0C04F101044FEA4452DF
:10025C0012F5800F80F09A80BCF1004F08BF5FEA66
:10026C00500C50F1000041EB045141EA050130BD46
:10027C005FEA4C0C404141EB010111F4801FA4F1E9
:10028C000104E9D191F0000F04BF01460020B1FA3E
:10029C0081F308BF2033A3F10B03B3F120020CDA76
:1002AC000C3208DD02F1140CC2F10C0201FA0CF054
:1002BC0021FA02F10CE002F11402D8BFC2F1200CB9
:1002CC0001FA02F120FA0CFCDCBF41EA0C0190406F
:1002DC00E41AA2BF01EB0451294330BD6FEA0404B8
:1002EC001F3C1CDA0C340EDC04F11404C4F12002A3
:1002FC0020FA04F001FA02F340EA030021FA04F3B5
:10030C0045EA030130BDC4F10C04C4F1200220FA0B
:10031C0002F001FA04F340EA0300294630BD21FA49
:10032C0004F0294630BD94F0000F83F4801306BF0F
:10033C0081F480110134013D4EE77FEA645C18BF03
:10034C007FEA655C29D094EA050F08BF90EA020F9A
:10035C0005D054EA000C04BF1946104630BD91EA92
:10036C00030F1EBF0021002030BD5FEA545C05D195
:10037C004000494128BF41F0004130BD14F58004D4
:10038C003CBF01F5801130BD01F0004545F0FE4148
:10039C0041F470014FF0000030BD7FEA645C1ABF7D
:1003AC00194610467FEA655C1CBF0B46024650EAB4
:1003BC00013406BF52EA033591EA030F41F40021E0
:1003CC0030BD00BF90F0000F04BF0021704730B566
:1003DC004FF4806404F132044FF000054FF000013B
:1003EC0050E700BF90F0000F04BF0021704730B5FC
:1003FC004FF4806404F1320410F0004548BF4042D1
:10040C004FF000013EE700BF42004FEAE2014FEA25
:10041C0031014FEA02701FBF12F07F4393F07F4F00
:10042C0081F06051704792F0000F14BF93F07F4F32
:10043C00704730B54FF4607401F0004521F0004175
:10044C0020E700BF50EA010208BF704730B54FF0FB
:10045C0000050AE050EA010208BF704730B511F000
:10046C00004502D5404261EB41014FF4806404F138
:10047C0032045FEA915C3FF4DCAE4FF003025FEABA
:10048C00DC0C18BF03325FEADC0C18BF033202EB42
:10049C00DC02C2F1200300FA03FC20FA02F001FA9C
:1004AC0003FE40EA0E0021FA02F11444C1E600BF3B
:1004BC0070B54FF0FF0C4CF4E06C1CEA11541DBFEE
:1004CC001CEA135594EA0C0F95EA0C0F00F0DEF8B9
:1004DC002C4481EA030621EA4C5123EA4C5350EA9E
:1004EC00013518BF52EA033541F4801143F48013EF
:1004FC0038D0A0FB02CE4FF00005E1FB02E506F080
:10050C000042E0FB03E54FF00006E1FB03569CF0D4
:10051C00000F18BF4EF0010EA4F1FF04B6F5007FDA
:10052C0064F5407404D25FEA4E0E6D4146EB06064C
:10053C0042EAC62141EA55514FEAC52040EA5E50D5
:10054C004FEACE2EB4F1FD0C88BFBCF5E06F1ED87F
:10055C00BEF1004F08BF5FEA500E50F1000041EBB6
:10056C00045170BD06F0004646EA010140EA020063
:10057C0081EA0301B4EB5C04C2BFD4EB0C0541EA85
:10058C00045170BD41F480114FF0000E013C00F39A
:10059C00AB8014F1360FDEBF002001F0004170BDBE
:1005AC00C4F10004203C35DA0C341BDC04F11404D7
:1005BC00C4F1200500FA05F320FA04F001FA05F263
:1005CC0040EA020001F0004221F0004110EBD37030
:1005DC0021FA04F642EB06015EEA430E08BF20EA5C
:1005EC00D37070BDC4F10C04C4F1200500FA04F3FF
:1005FC0020FA05F001FA04F240EA020001F0004191
:10060C0010EBD37041F100015EEA430E08BF20EA03
:10061C00D37070BDC4F1200500FA05F24EEA020E4B
:10062C0020FA04F301FA05F243EA020321FA04F07A
:10063C0001F0004121FA04F220EA020000EBD37031
:10064C005EEA430E08BF20EAD37070BD94F0000F31
:10065C000FD101F00046400041EB010111F4801F65
:10066C0008BF013CF7D041EA060195F0000F18BF16
:10067C00704703F00046520043EB030313F4801F52
:10068C0008BF013DF7D043EA0603704794EA0C0F0C
:10069C000CEA135518BF95EA0C0F0CD050EA410622
:1006AC0018BF52EA4306D1D181EA030101F000419F
:1006BC004FF0000070BD50EA410606BF10461946C7
:1006CC0052EA430619D094EA0C0F02D150EA0136D3
:1006DC0013D195EA0C0F05D152EA03361CBF104614
:1006EC0019460AD181EA030101F0004141F0FE41B3
:1006FC0041F470014FF0000070BD41F0FE4141F437
:10070C00780170BD70B54FF0FF0C4CF4E06C1CEA36
:10071C0011541DBF1CEA135594EA0C0F95EA0C0FEB
:10072C0000F0A7F8A4EB050481EA030E52EA0335A6
:10073C004FEA013100F088804FEA03334FF08055C7
:10074C0045EA131343EA12634FEA022245EA1115F4
:10075C0045EA10654FEA00260EF000419D4208BFA5
:10076C00964244F1FD0404F5407402D25B084FEA52
:10077C003202B61A65EB03055B084FEA32024FF4FE
:10078C0080104FF4002CB6EB020E75EB030E22BF5B
:10079C00B61A754640EA0C005B084FEA3202B6EB1B
:1007AC00020E75EB030E22BFB61A754640EA5C00CA
:1007BC005B084FEA3202B6EB020E75EB030E22BF5A
:1007CC00B61A754640EA9C005B084FEA3202B6EB5B
:1007DC00020E75EB030E22BFB61A754640EADC001A
:1007EC0055EA060E18D04FEA051545EA16754FEA7C
:1007FC0006164FEAC30343EA52734FEAC2025FEA9A
:10080C001C1CC0D111F4801F0BD141EA00014FF028
:10081C0000004FF0004CB6E711F4801F04BF0143F9
:10082C000020B4F1FD0C88BFBCF5E06F3FF6AFAE15
:10083C00B5EB030C04BFB6EB020C5FEA500C50F1A5
:10084C00000041EB045170BD0EF0004E4EEA113128
:10085C0014EB5C04C2BFD4EB0C0541EA045170BD2F
:10086C0041F480114FF0000E013C90E645EA060E73
:10087C008DE60CEA135594EA0C0F08BF95EA0C0FA1
:10088C003FF43BAF94EA0C0F0AD150EA01347FF4E9
:10089C0034AF95EA0C0F7FF425AF104619462CE7C0
:1008AC0095EA0C0F06D152EA03353FF4FDAE104623
:1008BC00194622E750EA410618BF52EA43067FF474
:1008CC00C5AE50EA41047FF40DAF52EA43057FF404
:1008DC00EBAE12E74FEA410212F5001215D211D518
:1008EC006FF47873B3EB625212D94FEAC12343F021
:1008FC00004343EA505311F0004F23FA02F018BFA3
:10090C00404270474FF00000704750EA013005D16B
:10091C0011F0004008BF6FF0004070474FF000002E
:10092C00704700BF4A0011D212F5001211D20DD53A
:10093C006FF47873B3EB62520ED44FEAC12343F0D9
:10094C00004343EA505323FA02F070474FF0000083
:10095C00704750EA013002D14FF0FF3070474FF032
:10096C000000704780B500AF154B154A126842F075
:10097C0001021A60124A124B5968124B0B40536019
:10098C000F4A0F4B1B6823F0847323F480331360DE
:10099C000B4B0B4A126822F480221A60084B084A4F
:1009AC00526822F4FE025A60054B4FF41F029A6003
:1009BC0000F00CF8044B4FF000629A6080BD00BF51
:1009CC00001002400000FFF800ED00E080B500AF21
:1009DC0000F002F880BD00BF80B483B000AF0023EC
:1009EC007B6000233B603A4B394A126842F48032F8
:1009FC001A60374B1B6803F400333B607B68013390
:100A0C007B603B68002B03D17B68B3F5A06FF0D102
:100A1C002F4B1B6803F40033002B02D001233B60E7
:100A2C0001E000233B603B68012B4BD1294B294A49
:100A3C00126842F010021A60264B264A126822F005
:100A4C0003021A60234B234A126842F002021A6016
:100A5C001F4B1F4A52685A601D4B1D4A52685A6000
:100A6C001B4B1B4A526842F480625A60184B184A5E
:100A7C00526822F47C125A60154B154A526842F4A3
:100A8C00E8125A60124B124A126842F080721A60D5
:100A9C0000BF0F4B1B6803F00073002BF9D00C4BFD
:100AAC000B4A526822F003025A60094B084A5268FA
:100ABC0042F002025A6000BF054B5B6803F00C0366
:100ACC00082BF9D10C37BD465DF8047B704700BF8D
:100ADC00001002400020024080B400AFBD465DF81B
:100AEC00047B704780B400AFFEE700BF80B400AF5A
:100AFC00FEE700BF80B400AFFEE700BF80B400AFDC
:100B0C00FEE700BF80B400AFBD465DF8047B7047C4
:100B1C0080B400AFBD465DF8047B704780B400AF75
:100B2C00BD465DF8047B704780B500AF01F052FA0A
:100B3C0080BD00BFDFF83CD0002100F004B80E4BA4
:100B4C005B58435004310D480D4B42189A42FFF448
:100B5C00F6AF0C4A00F003B8002342F8043B0A4BF2
:100B6C009A42FFF4F9AFFFF7FDFE01F035FF00F0FC
:100B7C007DFE704700500020683300080000002004
:100B8C007C0000207C00002014060020FFF7FEBF34
:100B9C0080B483B000AF78607B6818460C37BD46D4
:100BAC005DF8047B704700BF80B582B000AF786001
:100BBC0039607B683A681A60786820210F2200F04F
:100BCC004DF978682321902200F048F90837BD468A
:100BDC0080BD00BF80B586B000AFF860B9607A60A8
:100BEC00F868B96800F00AF907F11403F8682321D2
:100BFC00012200F01DF93B7D1B11DBB203F0030356
:100C0C00FB75FB7D002B4BD1BB681B881BB21846B8
:100C1C00FFF7E8FB02460B46104619464FF0000260
:100C2C005D4BFFF76FFD02460B4610461946FFF76A
:100C3C0051FE03469AB27B681A80BB685B881BB274
:100C4C001846FFF7CFFB02460B46104619464FF0ED
:100C5C000002514BFFF756FD02460B461046194653
:100C6C00FFF738FE03469AB27B685A80BB689B88B4
:100C7C001BB21846FFF7B6FB02460B461046194648
:100C8C004FF00002444BFFF73DFD02460B46104669
:100C9C001946FFF71FFE03469AB27B689A8078E0EC
:100CAC00FB7D012B4BD1BB681B881BB21846FFF791
:100CBC0099FB02460B46104619464FF00002374B83
:100CCC00FFF720FD02460B4610461946FFF702FEC1
:100CDC0003469AB27B681A80BB685B881BB21846C5
:100CEC00FFF780FB02460B46104619464FF00002F8
:100CFC002A4BFFF707FD02460B4610461946FFF735
:100D0C00E9FD03469AB27B685A80BB689B881BB28C
:100D1C001846FFF767FB02460B46104619464FF084
:100D2C0000021E4BFFF7EEFC02460B46104619461E
:100D3C00FFF7D0FD03469AB27B689A8029E0FB7DD1
:100D4C00022B26D1BB681B881BB2154A82FB0312EF
:100D5C001A449211DB17D31A9AB27B681A80BB68BB
:100D6C005B881BB20E4A82FB03121A449211DB17EA
:100D7C00D31A9AB27B685A80BB689B881BB2084A0C
:100D8C0082FB03121A449211DB17D31A9AB27B68B6
:100D9C009A801837BD4680BD0080214000803140CC
:100DAC00EBA00EEA80B586B000AFF860B9607A604F
:100DBC003B6007F11003F868A821062200F038F810
:100DCC003B7C1A467B7C1B029BB213439AB2BB68DA
:100DDC001A80BB7C1A46FB7C1B029BB213439AB253
:100DEC007B681A803B7D1A467B7D1B029BB21343AA
:100DFC009AB23B681A801837BD4680BD80B584B066
:100E0C0000AF7860396007F10E0107F10C0207F1B1
:100E1C000A037868FFF7C6FFFA893B681A80BA891B
:100E2C003B685A807A893B689A801037BD4680BDF2
:100E3C0080B586B002AFF8607A603B600B46FB72FF
:100E4C00FB681A68FB7A39680091104669211A46CA
:100E5C007B6800F019FF1037BD4680BD80B582B0AD
:100E6C0000AF786013460A46FA70BB707B6819684D
:100E7C00FA78BB780846692100F06EFE0837BD464B
:100E8C0080BD00BF80B483B000AF78607B6818462B
:100E9C000C37BD465DF8047B704700BF80B588B049
:100EAC0002AFF860B9601346FB80FB68BA681A6041
:100EBC00FB68FA881A81FB689B6D9AB2FB685A81B1
:100ECC00FB681B6807F11402009218467721AA22CE
:100EDC00022300F0D9FE3B7D1B029AB27B7D1343AB
:100EEC009AB2FB689A81FB681B6807F114020092A6
:100EFC0018467721AC22022300F0C6FE3B7D1B0274
:100F0C009AB27B7D13439AB2FB68DA81FB681B684B
:100F1C0007F11402009218467721AE22022300F04A
:100F2C00B3FE3B7D1B029AB27B7D13439AB2FB68E6
:100F3C001A82FB681B6807F114020092184677218D
:100F4C00B022022300F0A0FE3B7D1B029AB27B7DF7
:100F5C0013439BB29AB2FB689A83FB681B6807F138
:100F6C001402009218467721B222022300F08CFE64
:100F7C003B7D1B029AB27B7D13439BB29AB2FB68FA
:100F8C00DA83FB681B6807F114020092184677217C
:100F9C00B422022300F078FE3B7D1B029AB27B7DCB
:100FAC0013439BB29AB2FB681A84FB681B6807F167
:100FBC001402009218467721B622022300F064FE38
:100FCC003B7D1B029AB27B7D13439AB2FB685A821B
:100FDC00FB681B6807F11402009218467721B822AF
:100FEC00022300F051FE3B7D1B029AB27B7D134322
:100FFC009AB2FB689A82FB681B6807F11402009294
:10100C0018467721BA22022300F03EFE3B7D1B02DC
:10101C009AB27B7D13439AB2FB68DA82FB681B6839
:10102C0007F11402009218467721BC22022300F02B
:10103C002BFE3B7D1B029AB27B7D13439AB2FB685D
:10104C001A83FB681B6807F114020092184677217B
:10105C00BE22022300F018FE3B7D1B029AB27B7D60
:10106C0013439AB2FB685A83FB6800229A65FB68AB
:10107C000122DA65FB6802221A66FB6803225A66B3
:10108C001837BD4680BD00BFB0B586B002AF7860E2
:10109C0039607B685B891AB27B689B6D9A4212D16E
:1010AC007B681B6818467721F4222E2300F054FD30
:1010BC0000F084FF02467B685A607B68DB6D9AB255
:1010CC007B685A81ECE27B685B891AB27B68DB6DCA
:1010DC009A4240F08C8000F071FF02467B685B689E
:1010EC00D31A052B94BF00230123DBB2002B7DD038
:1010FC007B681B6807F10C02009218467721F622D8
:10110C00022300F0C1FD3B7B1A027B7B1A447B68F7
:10111C005A647B685A6C7B681B8CD31A7A68D28BA6
:10112C0002FB03F31846FFF75DF902460B46104627
:10113C0019464FF000025D4BFFF7E4FA02460B46EE
:10114C0010461946FFF7C6FB02467B685A627B685D
:10115C001B8B1BB21846FFF745F902460B4610468F
:10116C0019464FF00002524BFFF7A2F902460B460C
:10117C0014461D467B685A6A7B685B8B1BB2134412
:10118C001846FFF72FF902460B4620462946FFF773
:10119C00B9FA02460B4610461946FFF79BFB02466E
:1011AC007B689A627B685A6A7B689B6A1A447B6884
:1011BC005A637B685B6B08331846FFF713F90246DA
:1011CC000B46104619464FF000023A4BFFF79AFABD
:1011DC0002460B4610461946FFF77CFB02467B681D
:1011EC009A637B681B6E9AB27B685A8158E27B6863
:1011FC005B891AB27B681B6E9A425DD17B681B8936
:10120C001BB2032B3AD801A252F823F02912000882
:10121C004112000859120008711200087B681B6803
:10122C0018467721F422342300F096FC7B680522C3
:10123C005A652FE07B681B6818467721F4227423CB
:10124C0000F08AFC7B6808225A6523E07B681B68E7
:10125C0018467721F422B42300F07EFC7B680E2222
:10126C005A6517E07B681B6818467721F422F42333
:10127C0000F072FC7B681A225A650BE07B681B68D5
:10128C0018467721F422342300F066FC7B68052293
:10129C005A6500BF00F092FE02467B685A607B687C
:1012AC005B6E9AB27B685A81FAE100BF0000E040A5
:1012BC000000A040000030407B685B891AB27B685C
:1012CC005B6E9A4240F0EC8100F078FE02467B683F
:1012DC005B68D21A7B685B6D9A4294BF0023012332
:1012EC00DBB2002B00F0DC817B681B6807F1080285
:1012FC00009218467721F622032300F0C5FC3B7AB6
:10130C001A047B7A1B021A44BB7A1A447B681B8929
:10131C001BB2C3F108031A417B689A647B685B6B50
:10132C00A3F57A627B68DA637B689B8A1BB21846EA
:10133C00FFF758F804460D467B68DB6B7A68D26B76
:10134C0002FB03F31846FFF74DF802460B46104616
:10135C0019464FF000027C4BFFF7D4F902460B46BE
:10136C0020462946FFF7A4F802460B4610461946BC
:10137C004FF00002754BFFF7C5F902460B461046BD
:10138C001946FFF7A7FA02467B685A627B68DB892D
:10139C001BB27A68D26B02FB03F31846FFF722F8F4
:1013AC0002460B46104619464FF00002674BFFF7FA
:1013BC00A9F902460B4610461946FFF78BFA02466E
:1013CC007B689A627B685A6A7B689B6A1A447B6862
:1013DC00DA627B689B891BB29A007B68DB6A1A44D1
:1013EC007B681B891BB202FA03F30233002B00DA71
:1013FC0003339B101A467B681A637B681B8A1BB2EB
:10140C007A68D26B02FB03F31846FEF7EBFF024639
:10141C000B46104619464FF000024D4BFFF772F980
:10142C0002460B4610461946FFF754FA02467B68F3
:10143C005A627B685B8A1BB21846FEF7D3FF0446E0
:10144C000D467B68DB6B7A68D26B02FB03F31846A4
:10145C00FEF7C8FF02460B46104619464FF0000235
:10146C00394BFFF74FF902460B4620462946FFF74A
:10147C001FF802460B46104619464FF00002354B3A
:10148C00FFF740F902460B4610461946FFF722FAC1
:10149C0002467B689A627B685A6A7B689B6A134433
:1014AC0002331846FEF79EFF02460B4610461946BD
:1014BC004FF00002284BFFF725F902460B46104669
:1014CC001946FFF707FA02467B68DA627B689B8B4A
:1014DC007A68D26A02F5004202FB03F31846FEF763
:1014EC0071FF02460B46104619464FF000021B4B8B
:1014FC00FFF708F902460B4610461946FFF712FA99
:10150C0002467B68DA647B689B6C1A467B681B6BB3
:10151C00D31A7A68128912B24CF2503141FA02F2A3
:10152C0002FB03F27B681A657B681B6D002B17DBD3
:10153C007B681B6D5A007B68DB6CB2FBF3F31A46BD
:10154C007B681A6416E000BF0000B0400000A040A9
:10155C000000C0400000F040000010400000E040DF
:10156C007B681A6D7B68DB6CB2FBF3F35B001A468D
:10157C007B681A647B681B6C1846FEF733FF0246C7
:10158C000B46104619464FF00002474BFFF7BAF8CE
:10159C0002460B4614461D467B681B6C1846FEF72C
:1015AC0021FF02460B46104619464FF000023E4BF7
:1015BC00FFF7A8F802460B4620462946FEF778FFAF
:1015CC0002460B4610461946FFF784F902467B6823
:1015DC005A627B685B6A40F6DE3202FB03F3184604
:1015EC00FEF700FF02460B46104619464FF000026C
:1015FC002E4BFFF787F802460B4610461946FFF7AD
:10160C0069F902467B685A627B681B6C284A02FBAC
:10161C0003F31846FEF7E6FE02460B461046194643
:10162C004FF00002214BFFF76DF802460B461046B7
:10163C001946FFF74FF902467B689A627B681B6C70
:10164C001846FEF7CFFE04460D467B685A6A7B6847
:10165C009B6A134403F6CF631846FEF7C3FE02469B
:10166C000B46104619464FF00002124BFFF74AF892
:10167C0002460B4620462946FEF768FD02460B46FD
:10168C0010461946FFF726F902467B681A647B68F8
:10169C001A6C3B681A607B689B6D9AB27B685A81A6
:1016AC001037BD46B0BD00BF000070400000F040D8
:1016BC0043E3FFFF0000304080B500AF13481449EE
:1016CC00144AFFF787FA00F079FC0246124B1B68AC
:1016DC00D31AB3F57A7F94BF00230123DBB2002B1E
:1016EC000ED00E4B1B680E48194600F067F900F03F
:1016FC0065FC0246084B1A60084B00221A6004E095
:10170C00064B1B685A1C054B1A6080BDC005002097
:10171C00EC050020F40500209C000020980000201F
:10172C001C33000880B500AF02480349FFF7ACFC3E
:10173C0080BD00BF58050020FC05002080B483B09C
:10174C0000AF786039600D4B1A680D4B796843F81F
:10175C0022100A4B1A684FF47A713B6891FBF3F331
:10176C001946084B43F82210044B1B685A1C034BB8
:10177C001A600C37BD465DF8047B7047A000002052
:10178C00C4030020A400002080B582B000AF002369
:10179C007B601BE000F012FC3860104B7A6853F849
:1017AC0022303A68D21A0E4B796853F821309A429B
:1017BC0009D30C4B7A6853F822309847074B7A6858
:1017CC00396843F822107B6801337B60064B1B6839
:1017DC007A689A42DEDB0837BD4680BD34020020B1
:1017EC00A4000020C4030020A000002080B582B01B
:1017FC0000AF786039607B68012B1CD13A684FF6DA
:10180C00FF739A4217D10D4800F038F90C48FFF7D6
:10181C0039FB0C48FFF7BCF90B4800F0FDFA0B48FC
:10182C0000F0FAFA0A4800F0F7FA0A4800F0F4FA65
:10183C00094800F0F1FA0837BD4680BD5405002078
:10184C0058050020C0050020C4050020CC05002050
:10185C00D4050020DC050020E405002080B500AF95
:10186C0001204FF6FF71FFF7C1FF80BD80B500AFBF
:10187C001E481F491F4A00F00DF91F481B4903223F
:10188C00FFF70CFB1D481949FFF78EF91C481D4941
:10189C001022102300F0CCFA1B481A4920221023E6
:1018AC0000F0C6FA19481A490222102300F0C0FAB7
:1018BC00184817492022102300F0BAFA164811498B
:1018CC000122482300F0B4FA14486421FFF736FFD4
:1018DC0013482821FFF732FF00F060FB4FF416503D
:1018EC0000F020F8FFF750FFFCE700BF5405002084
:1018FC0000540040801A060058050020C005002046
:10190C00C405002000080140CC050020D4050020AF
:10191C00000C0140DC050020E4050020C516000881
:10192C003117000880B58AB000AF786044F205002A
:10193C00012100F057FD4FF40073BB84182387F886
:10194C002730032387F8263007F12403194819465A
:10195C0000F086FF4FF48063BB84042387F82730A4
:10196C0007F124031348194600F07AFF07F10C0322
:10197C00184600F021FC07F10C030F48194600F043
:10198C00F1FB7B687B6100233B8300237B8300237B
:10199C00BB830C23FB8300233B8407F11403064811
:1019AC00194600F025FB0448012100F01BFC2837E8
:1019BC00BD4680BD00080140003801400FB480B521
:1019CC0084B000AF07F11C037B6000200021BA69D2
:1019DC007B6801F02BF9F860FB680133184601F0C5
:1019EC0021F80346BB60B868B9697A6801F046F91A
:1019FC000648B96800F026F8B86801F01BF800BF7B
:101A0C001037BD46BDE8804004B070470038014037
:101A1C0080B582B000AF78600B46FB7000BF084801
:101A2C00402100F011FC0346002BF8D0FB789BB250
:101A3C000348194600F0F6FB0837BD4680BD00BFD1
:101A4C000038014080B584B000AF78603960002365
:101A5C00FB600AE0FB683A6813441B787868194607
:101A6C00FFF7D6FFFB680133FB60FB683A68134451
:101A7C001B78002BEED11037BD4680BD80B483B0EF
:101A8C0000AF78607B6818460C37BD465DF8047B68
:101A9C00704700BF80B58AB000AFF860B9607A605B
:101AAC00FB68BA681A600820012100F09BFCFB68F7
:101ABC001A68264B9A4213D14FF40010012100F002
:101ACC00AFFCC023BB841C2387F82730032387F883
:101ADC00263007F124031E48194600F0C1FE18E019
:101AEC00FB681A681B4B9A4213D14FF480000121FA
:101AFC0000F096FC4FF44063BB841C2387F827301E
:101B0C00032387F8263007F124031148194600F007
:101B1C00A7FE00233B834FF480437B830023BB83CE
:101B2C004FF48063FB837B687B61FB681A6807F169
:101B3C0014031046194600F091FCFB681B6818460C
:101B4C00012100F04DFD2837BD4680BD00540040FA
:101B5C00000C01400058004080B582B000AF7860A6
:101B6C00F970BA707B707B681B681846012100F015
:101B7C0097FD00BF7B681B6818464FF4003100F0DE
:101B8C003BFE0346002B0CBF00230123DBB2002BD2
:101B9C00F0D17B681B681846012100F041FD00BFA5
:101BAC007B681B681846344900F026FE0346002B60
:101BBC0014BF00230123DBB2002BF1D17B681A6820
:101BCC00FB785B00DBB210461946002200F0A6FD44
:101BDC0000BF7B681B681846284900F0DDFD0346F2
:101BEC00002B14BF00230123DBB2002BF1D17B6847
:101BFC001A68BB781046194600F072FD00BF7B686E
:101C0C001B6818461E4900F0C7FD0346002B14BF85
:101C1C0000230123DBB2002BF1D17B681A687B789F
:101C2C001046194600F05CFD00BF7B681B68184627
:101C3C00134900F0B1FD0346002B14BF0023012310
:101C4C00DBB2002BF1D17B681B681846012100F038
:101C5C0007FD00BF7B681B6818460A4900F0CCFDE5
:101C6C000346002B0CBF00230123DBB2002BF1D168
:101C7C000837BD4680BD00BF010000108200070080
:101C8C00840007001000001090B587B000AFF8601A
:101C9C007B600B46FB721346BB725848012100F067
:101CAC00FFFC00BF55484FF4003100F0A5FD034682
:101CBC00002B0CBF00230123DBB2002BF2D14F48C9
:101CCC00012100F0ADFC00BF4C484D4900F094FDE3
:101CDC000346002B14BF00230123DBB2002BF3D1EE
:101CEC00FB7A5B00DBB245481946002200F016FD7A
:101CFC0000BF4248434900F04FFD0346002B14BF80
:101D0C0000230123DBB2002BF3D1BB7A3B481946ED
:101D1C0000F0E6FC00BF39483B4900F03DFD0346AE
:101D2C00002B14BF00230123DBB2002BF3D133486B
:101D3C00012100F075FC00BF3048314900F05CFD1A
:101D4C000346002B14BF00230123DBB2002BF3D17D
:101D5C00FB7A5B00DBB229481946012200F0DEFC5D
:101D6C0000BF2648294900F017FD0346002B14BF7D
:101D7C0000230123DBB2002BF3D100237B6125E090
:101D8C0000BF1E48224900F007FD0346002B14BF7C
:101D9C0000230123DBB2002BF3D17B69BA6AD41880
:101DAC00164800F0ADFC034623707B689A1E7B69D5
:101DBC009A4208D11148002100F072FC0F484FF2F2
:101DCC00FF7100F0C9FC7B6901337B617A697B6828
:101DDC009A42D5DB0948012100F042FC00BF0748BC
:101DEC000C4900F009FD0346002B0CBF0023012316
:101DFC00DBB2002BF3D11C37BD4690BD0054004024
:101E0C00010000108200070084000700020003009C
:101E1C00400003001000001080B483B000AF786065
:101E2C007B6818460C37BD465DF8047B704700BFD5
:101E3C0080B586B000AFF860B960FA807B71FB6842
:101E4C00BA681A60FB68FA889A80FB687A799A718A
:101E5C00FB681A68254B9A4204D10420012100F03A
:101E6C00C1FA30E0FB681A68214B9A4204D1082071
:101E7C00012100F0B7FA26E0FB681A681D4B9A4264
:101E8C0004D11020012100F0ADFA1CE0FB681A68A7
:101E9C00194B9A4204D12020012100F0A3FA12E040
:101EAC00FB681A68154B9A4204D14020012100F0BE
:101EBC0099FA08E0FB681A68114B9A4203D180200A
:101ECC00012100F08FFAFB689B79FB75FB689B88FE
:101EDC00BB820323BB75FB681A6807F11403104619
:101EEC00194600F0BDFC1837BD4680BD0008014006
:101EFC00000C01400010014000140140001801408A
:101F0C00001C014080B483B000AF03463960FB7104
:101F1C0097F90730002B0BDA0D49FB7903F00F030F
:101F2C00043B3A68D2B21201D2B20B441A7609E0E1
:101F3C00084997F907303A68D2B21201D2B20B4471
:101F4C0083F800230C37BD465DF8047B704700BF57
:101F5C0000ED00E000E100E080B582B000AF7860F9
:101F6C007B68B3F1807F01D3012311E00A4B7A68BF
:101F7C0022F07F42013A5A604FF0FF300F21FFF7F9
:101F8C00C1FF054B00229A60034B07221A60002305
:101F9C0018460837BD4680BD10E000E080B500AFA4
:101FAC00044B1A68044BA3FB02139B091846FFF75A
:101FBC00D3FF80BD00000020D34D621080B400AF71
:101FCC00034B1B681846BD465DF8047B704700BF89
:101FDC000C06002080B400AF044B1B685A1C034B4A
:101FEC001A60BD465DF8047B704700BF0C060020EC
:101FFC0080B58CB000AF786039600023FB620023A1
:10200C00BB6200237B6200233B620023FB617B6885
:10201C00FB617B681B8A9BB2FB62FA6A4CF6FF730E
:10202C001340FB623B68DB88FA6A1343FB62FB6A72
:10203C009AB27B681A827B689B899BB2FB62FA6AB4
:10204C004EF6F3131340FB623B689A883B681B897E
:10205C0013439AB23B685B8913439BB2FA6A1343EE
:10206C00FB62FB6A9AB27B689A817B689B8A9BB203
:10207C00FB62FA6A4FF6FF431340FB623B689B8995
:10208C00FA6A1343FB62FB6A9AB27B689A8207F185
:10209C000803184600F0F4F8FA69304B9A4202D162
:1020AC007B69BB6201E03B69BB627B689B899BB22D
:1020BC009BB21BB2002B0CDABA6A13469B0013447A
:1020CC009A001A443B681B685B00B2FBF3F37B621B
:1020DC000BE0BA6A13469B0013449A001A443B68FF
:1020EC001B689B00B2FBF3F37B627A6A1C4BA3FB6D
:1020FC0002135B091B01FB62FB6A1B09642202FBD6
:10210C0003F37A6AD31A3B627B689B899BB29BB2BE
:10211C001BB2002B0DDA3B6ADB0003F13202104BD1
:10212C00A3FB02135B0903F00703FA6A1343FB6278
:10213C000CE03B6A1B0103F13202094BA3FB0213B7
:10214C005B0903F00F03FA6A1343FB62FB6A9AB252
:10215C007B681A813037BD4680BD00BF0038014016
:10216C001F85EB5180B485B000AF786039600023D7
:10217C00FB607B681B8A9BB2FB60FA684FF2FF0323
:10218C001340FB603B681A883B685B8813439AB228
:10219C003B689B8813439AB23B68DB8813439BB222
:1021AC00FA681343FB60FB689AB27B681A82143797
:1021BC00BD465DF8047B704780B483B000AF786097
:1021CC007B6800221A807B6800225A807B68002280
:1021DC009A807B680022DA800C37BD465DF8047B60
:1021EC00704700BF80B483B000AF78600B46FB70C3
:1021FC00FB78002B08D07B689B899BB243F400537F
:10220C009AB27B689A8107E07B689B899BB223F426
:10221C0000539AB27B689A810C37BD465DF8047BFB
:10222C00704700BF80B483B000AF78600B467B80F2
:10223C007B88C3F308039AB27B689A800C37BD463F
:10224C005DF8047B704700BF80B485B000AF786048
:10225C000B467B800023FB737B681B889AB27B88C0
:10226C0013409BB2002B02D00123FB7301E000232F
:10227C00FB73FB7B18461437BD465DF8047B704737
:10228C0080B487B000AF786000237B6100233B6192
:10229C000023FB600023BB604D4B5B6803F00C0319
:1022AC007B617B69042B07D0082B09D0002B34D120
:1022BC007B68484A1A6034E07B68464A1A6030E012
:1022CC00434B5B6803F470133B61414B5B6803F455
:1022DC008033FB603B699B0C02333B61FB68002B3A
:1022EC0006D13B693C4A02FB03F27B681A6013E09F
:1022FC00374B5B6803F40033002B06D03B69364A3E
:10230C0002FB03F27B681A6006E03B69314A02FB70
:10231C0003F27B681A6004E003E07B682D4A1A60C4
:10232C0000BF2B4B5B6803F0F0037B617B691B09DF
:10233C007B612A4A7B6913441B78DBB2BB607B68E8
:10234C001A68BB68DA407B685A60214B5B6803F4FF
:10235C00E0637B617B691B0A7B61204A7B691344C8
:10236C001B78DBB2BB607B685A68BB68DA407B6861
:10237C009A60174B5B6803F460537B617B69DB0AE3
:10238C007B61164A7B6913441B78DBB2BB607B68AC
:10239C005A68BB68DA407B68DA600D4B5B6803F403
:1023AC0040437B617B699B0B7B610D4A7B691344CA
:1023BC001B78DBB2BB607B68DA68BB68B2FBF3F2FC
:1023CC007B681A611C37BD465DF8047B704700BF03
:1023DC000010024000127A0000093D0004000020A9
:1023EC001400002080B483B000AF78600B46FB7003
:1023FC00FB78002B06D0094B084A91697A680A438E
:10240C009A6106E0054B054A91697A68D2430A4005
:10241C009A610C37BD465DF8047B70470010024092
:10242C0080B483B000AF78600B46FB70FB78002B58
:10243C0006D0094B084AD1697A680A43DA6106E08A
:10244C00054B054AD1697A68D2430A40DA610C37E8
:10245C00BD465DF8047B70470010024080B58AB021
:10246C0000AF786039600023FB8400237B84042355
:10247C00BB84574BFB617B689B88FB84FB8C23F0F4
:10248C003F03FB8407F108031846FFF7F9FE3B698D
:10249C00FB61FA694F4BA3FB02139B0C7B84FA8CF8
:1024AC007B8C1343FB847B68FA8C9A807B681B883B
:1024BC009BB223F001039AB27B681A800023FB8441
:1024CC003B681A68444B9A4215D83B681B685B0002
:1024DC00FA69B2FBF3F3BB84BB8C032B01D8042346
:1024EC00BB84FA8CBB8C1343FB847B8C01339AB278
:1024FC007B681A8440E03B68DA884BF6FF739A429B
:10250C0009D13B681A6813465B001344FA69B2FBA5
:10251C00F3F3BB840EE03B681A6813469B0013442C
:10252C009A001344FA69B2FBF3F3BB84BB8C43F4FB
:10253C008043BB84BB8CC3F30B03002B03D1BB8C3C
:10254C0043F00103BB84BA8CFB8C13439BB26FEA40
:10255C0043436FEA5343FB847B8C4FF4967202FB2C
:10256C0003F31E4A82FB03129211DB17D31A9BB2A0
:10257C0001339AB27B681A847B68FA8C9A837B68E5
:10258C001B889BB243F001039AB27B681A807B686C
:10259C001B88FB84FB8C23F4816323F00203FB84F4
:1025AC003B689A883B685B8913439AB2FB8C134354
:1025BC00FB847B68FA8C1A803B689A893B681B8980
:1025CC0013439AB27B681A812837BD4680BD00BF81
:1025DC0000127A0083DE1B43A0860100D34D6210EB
:1025EC0080B483B000AF78600B46FB70FB78002B97
:1025FC0008D07B681B889BB243F001039AB27B68BE
:10260C001A8007E07B681B889BB223F001039AB207
:10261C007B681A800C37BD465DF8047B704700BFA1
:10262C0080B483B000AF78600B46FB70FB78002B56
:10263C0008D07B681B889BB243F480739AB27B688A
:10264C001A8007E07B681B889BB223F480739AB2D4
:10265C007B681A800C37BD465DF8047B704700BF61
:10266C0080B483B000AF78600B46FB70FB78002B16
:10267C0008D07B681B889BB243F400739AB27B68CA
:10268C001A8007E07B681B889BB223F400739AB214
:10269C007B681A800C37BD465DF8047B704700BF21
:1026AC0080B483B000AF78600B46FB70FB78002BD6
:1026BC0008D07B681B889BB243F480639AB27B681A
:1026CC001A8007E07B681B889BB223F480639AB264
:1026DC007B681A800C37BD465DF8047B704700BFE1
:1026EC0080B483B000AF78600B46FB70FB789AB275
:1026FC007B681A820C37BD465DF8047B704700BFBF
:10270C0080B483B000AF78607B681B8A9BB2DBB26D
:10271C0018460C37BD465DF8047B704780B483B017
:10272C0000AF786013460A46FA70BB70BB78002B7A
:10273C0004D0FB7843F00103FB7003E0FB7823F03B
:10274C000103FB70FB789AB27B681A820C37BD468A
:10275C005DF8047B704700BF80B483B000AF786035
:10276C000B467B807B88B3F5006F08D17B681B8898
:10277C009BB243F400639AB27B681A8007E07B68D3
:10278C001B889BB223F400639AB27B681A800C37C7
:10279C00BD465DF8047B704780B487B000AF7860AD
:1027AC00396000233B610023FB600023BB600023E6
:1027BC00FB757B689B8A9BB2FB607B681B8B9BB217
:1027CC00BB60BB681B04BB60FA68BB68134323F097
:1027DC007F433B613A693B681A403B689A4202D19D
:1027EC000123FB7501E00023FB75FB7D18461C37AC
:1027FC00BD465DF8047B704780B487B000AF78604D
:10280C0039600023FB7500233B610023FB607B6870
:10281C00FB603B681B0F3B613B6823F07F433B60D5
:10282C003B69002B03D0FB681433FB6005E03B686D
:10283C001B0C3B60FB681833FB60FB681A683B6839
:10284C001340002B02D00123FB7501E00023FB7524
:10285C00FB7D18461C37BD465DF8047B704700BFF6
:10286C0080B489B000AF786039600023FB6100232D
:10287C003B610023BB610023FB6000237B610023D1
:10288C00BB603B68DB7803F00F03FB613B68DB78D4
:10289C0003F01003002B04D03B689B78FA691343B8
:1028AC00FB613B681B88DBB2002B44D07B681B6848
:1028BC007B610023BB6138E0BB69012202FA03F3A0
:1028CC00FB603B681B881A46FB6813403B613A6906
:1028DC00FB689A4226D1BB699B00FB60FB680F2208
:1028EC0002FA03F3BB60BB68DB437A6913407B617C
:1028FC00FB68FA6902FA03F37A6913437B613B685C
:10290C00DB78282B05D1BB6901229A407B685A6180
:10291C0008E03B68DB78482B04D1BB6901229A4064
:10292C007B681A61BB690133BB61BB69072BC3D9D7
:10293C007B687A691A603B681B88FF2B46D97B68D9
:10294C005B687B610023BB613AE0BB690833012201
:10295C0002FA03F3FB603B681B881A46FB681340C2
:10296C003B613A69FB689A4227D1BB699B00FB60CB
:10297C00FB680F2202FA03F3BB60BB68DB437A6986
:10298C0013407B61FB68FA6902FA03F37A6913431B
:10299C007B613B68DB78282B05D1BB6908330122AE
:1029AC009A407B685A613B68DB78482B05D1BB6940
:1029BC00083301229A407B681A61BB690133BB6101
:1029CC00BB69072BC1D97B687A695A602437BD462D
:1029DC005DF8047B704700BF70B50E4B0E4D0024A4
:1029EC00ED1AAD101E46AC4204D056F82420904788
:1029FC000134F8E700F080FC084D094B0024ED1A77
:102A0C00AD101E46AC4204D056F824209047013439
:102A1C00F8E770BD5C3300085C33000864330008D1
:102A2C005C330008024B0146186800F04FB800BF39
:102A3C0078000020024B0146186800F003B800BF74
:102A4C007800002030B500293CD051F8042C0B1F25
:102A5C001D49002AB8BF9B180A680C4612B95A6067
:102A6C000B6030BD93420DD219685818904203D1B7
:102A7C005A581144426819605A60236030BD99421B
:102A8C0003D80A4651680029F9D1146815199D42DA
:102A9C000AD11B682344D0188842136012D10868ED
:102AAC00034413604B680CE002D90C23036030BD67
:102ABC0018681C188C4203D10C68496820441860B3
:102ACC005960536030BD00BF0406002070B5CD1CAA
:102ADC0025F0030508350C2D38BF0C25002D0646B6
:102AEC003FDB8D423DD3214B1C6818462146A1B1DA
:102AFC000B685B1B0ED40B2B03D90B60CC18CD5081
:102B0C001FE08C4202D1626802601AE04B6863607D
:102B1C000C4616E00C464968E9E7154C23681BB9CE
:102B2C00304600F027F820602946304600F022F8A5
:102B3C00431C014615D0C41C24F0030484420AD162
:102B4C00256004F10B00231D20F00700C31A0BD0E5
:102B5C005A42E25070BD3046611A00F00BF8013059
:102B6C00EED10C233360002070BD00BF04060020A2
:102B7C000006002038B5064C0023054608462360A5
:102B8C0000F010F8431C02D1236803B12B6038BD50
:102B9C0010060020034613F8012B002AFBD1181A4B
:102BAC0001387047094B1A680AB9094A1A601B6840
:102BBC006A461844904205D9064B0C221A604FF015
:102BCC00FF307047014A1060184670470806002015
:102BDC00140600201006002030B5141E9BB00546CC
:102BEC0004DA8B2303604FF0FF301CE04FF40272C9
:102BFC0000910491ADF80C2014BF04F1FF31214673
:102C0C004FF6FF7202910591ADF80E2069461A46F7
:102C1C001E9B00F09DF8431CBCBF8B232B6014B192
:102C2C00009B00221A701BB030BD000073B50093DE
:102C3C00054B06460D461446186831462A4623466F
:102C4C00FFF7CAFF02B070BD7800002010B59AB033
:102C5C00009104916FF00041029105914FF6FF71C4
:102C6C00ADF80E104FF402746946ADF80C4000F04C
:102C7C006FF8009B00221A701AB010BD30B51346C5
:102C8C00044A05460C46106829462246BDE83040E9
:102C9C00FFF7DCBF780000202DE9F0478D688146F6
:102CAC00AB420C4692461F4643D38B8913F4906F6C
:102CBC003DD0266809690222C1EB0608666906EB5D
:102CCC00460696FBF2F608F101023A44964238BFEA
:102CDC0016465B050FD53146FFF7F8FE054698B151
:102CEC002169424600F0B4FAA38923F4906343F0BF
:102CFC008003A38113E0324600F0CEFA054670B98A
:102D0C0048462169FFF79EFE0C23C9F80030A389C1
:102D1C004FF0FF3043F04003A381BDE8F0872561FD
:102D2C0066614544C8EB06062560A6603D46AF4289
:102D3C0000D23D462A462068514600F092FAA3681C
:102D4C0000205B1BA36023681D442560BDE8F08751
:102D5C002DE9F0439DB003938B8907461C060D4665
:102D6C0016460CD50B6953B94021FFF7AFFE28600E
:102D7C00286110B90C233B60C7E040236B61002332
:102D8C00099320238DF8293030238DF82A303346CF
:102D9C001C4613F8012B1AB9B4EB06090FD002E04C
:102DAC00252AF5D1F8E73846294632464B46FFF737
:102DBC0073FF013000F0A480099B4B4409932378E6
:102DCC00002B00F09D8000234FF0FF3204930793FB
:102DDC00059206938DF853301A9304F101094D4E68
:102DEC004C4630462178052200F024FA09F10109FD
:102DFC00049B28B1861B0120B04003430493EEE7EB
:102E0C00D90644BF20228DF853201A0744BF2B2229
:102E1C008DF8532022782A2A02D0079B21460EE0F7
:102E2C00039A111D12680391002A01DB079204E03A
:102E3C00524243F002030792049301340AE00C4619
:102E4C0022780131303A092A03D80A2000FB0323E7
:102E5C00F5E7079323782E2B19D163782A2B09D108
:102E6C00039B02341A1D1B680392002BB8BF4FF052
:102E7C00FF330BE0611C00230C4622780131303A01
:102E8C00092A03D80A2000FB0323F5E70593224EF9
:102E9C0021783046032200F0CDF930B1861B40205A
:102EAC00B040049B01340343049321781B48062251
:102EBC00661C8DF8281000F0BDF988B1184B33B999
:102ECC00039B073323F007030833039314E003AB8E
:102EDC000093384604A92A46124BAFF3008007E052
:102EEC0003AB0093384604A92A460E4B00F08EF82B
:102EFC00B0F1FF3F804603D0099B4344099346E75A
:102F0C00AB895B0601D4099801E04FF0FF301DB08E
:102F1C00BDE8F083263300082C330008303300085A
:102F2C0000000000A52C00082DE9F84315461F46AB
:102F3C008A680B6906469A42A8BF13462B6091F823
:102F4C0043200C46DDF820800AB101332B60236846
:102F5C00990602D52B6802332B60236813F00609FF
:102F6C001DD094F843302268003318BF0123920619
:102F7C001FD5E118302081F843005A1C94F84510F5
:102F8C002244023382F8431013E03046394604F1F0
:102F9C0019020123C047013007D009F10109E26889
:102FAC002B68D31A9945F0DBDBE74FF0FF30BDE817
:102FBC00F8833046394604F14302C0470130F4D05F
:102FCC0023682A6803F00603E168042B08BFC2EBF0
:102FDC0001052369A2680CBF25EAE57500259A4214
:102FEC00C4BFC3EB0203ED184FF00009A9450ADA80
:102FFC003046394604F11A020123C0470130D4D0BF
:10300C0009F10109F2E70020BDE8F8832DE9FF473B
:10301C000E7E80466E2E0C4691469A460C9D01F112
:10302C00430000F0A58011D8632E22D009D8002EC1
:10303C0000F0AF80582E40F0BF8081F845607B4A8D
:10304C004FE0642E1ED0692E1CD0B5E0732E00F01C
:10305C00A48009D86F2E2BD0702E40F0AD800B6859
:10306C0043F020030B6038E0752E21D0782E34D03D
:10307C00A2E02B6801F142071A1D1B682A6081F837
:10308C0042309DE022682B6812F0800F03D01A1D8D
:10309C002A601D6805E05106F9D51A1D2A60B3F99E
:1030AC000050002D39DA2D236D4284F8433034E082
:1030BC0022682B6812F0800F03D01A1D2A601D683D
:1030CC0004E05206F9D51A1D2A601D88237E574A42
:1030DC006F2B14BF0A2308231BE07823544A84F86F
:1030EC0045302368296813F0800F01F104062E6027
:1030FC0001D00D6802E05F06FBD50D88DE0744BFEA
:10310C0043F0200323601DB9236823F020032360C0
:10311C001023002184F8431001E0444A0A23666816
:10312C00002EA66003DB216821F00401216005B9A3
:10313C006EB104F14201B5FBF3F603FB1655555D78
:10314C000F4601F801593546002EF4D100E0074630
:10315C00082B0AD12368DD0707D5626823699A42D8
:10316C0003DC302307F8013C013FC01B20612CE03D
:10317C0009682B6811F0800F626904D0191D296051
:10318C001B681A6005E04906F8D5191D29601B68F3
:10319C001A8000232361074617E02B681A1D2A604A
:1031AC001F683846FFF7F6FC63682061984288BFB9
:1031BC0023612369636005E004F1420784F84260EF
:1031CC0001232361002384F84330CDF800A040464E
:1031DC00214603AA4B46FFF7A7FE013002D14FF060
:1031EC00FF301FE0404649463A462369D04701303C
:1031FC00F5D023689B0705D4E068039B9842B8BFC1
:10320C0018460FE00025E268039BD31A9D42F3DABF
:10321C004046494604F119020123D0470130DED063
:10322C000135F0E704B0BDE8F08700BF3733000884
:10323C004833000810B5C9B202449042034605D089
:10324C001C7801308C42F8D1184610BD002010BDFE
:10325C0010B50023934203D0CC5CC4540133F9E77E
:10326C0010BD814270B501D300230EE08C18A04232
:10327C00FAD28518134613F1FF3305D35142661861
:10328C00F65C2944CE54F6E770BD934203D0CC5C77
:10329C00C4540133F9E770BDF8B5064614460D4623
:1032AC0021B91146BDE8F840FFF710BC1AB9FFF779
:1032BC00C9FB2046F8BD00F015F8A0420ED23046EE
:1032CC002146FFF703FC074650B129462246FFF77B
:1032DC00BFFF30462946FFF7B5FB01E02846F8BD95
:1032EC003846F8BD51F8040C002802DA04390B58A2
:1032FC001844043870470000F8B500BFF8BC08BC8F
:10330C009E467047F8B500BFF8BC08BC9E46704797
:10331C00487A3A2025690A004300232D302B2000DF
:10332C00686C4C0065666745464700303132333473
:10333C003536373839414243444546003031323313
:10334C0034353637383961626364656600000000D5
:08335C003101000869180008A6
:043364000D0100084F
:1033680000A24A0400000000010203040102030451
:103378000607080902040608000000000000000013
:103388000000000000000000000000000000000035
:1033980000000000000000002433000800000000C6
:1033A8000000000000000000000000000000000015
:1033B8000000000000000000000000000000000005
:1033C80000000000000000000000000000000000F5
:0C33D800000000000000000018000020B1
:0400000508000B41A3
:00000001FF
