:020000040800F2
:1000000000500020410B0008E50A0008F10A000832
:10001000F90A0008010B0008090B000800000000A5
:10002000000000000000000000000000110B0008AC
:100030001D0B000800000000290B0008350B00080C
:10004000990B0008990B0008990B0008990B000800
:10005000990B0008990B0008990B0008990B0008F0
:10006000990B0008990B0008990B0008990B0008E0
:10007000990B0008990B0008990B0008990B0008D0
:10008000990B0008990B0008990B0008990B0008C0
:10009000990B0008990B0008990B0008990B0008B0
:1000A000990B0008990B0008990B0008990B0008A0
:1000B000990B0008990B0008990B0008990B000890
:1000C000990B0008990B0008990B0008990B000880
:1000D000990B0008990B0008990B0008990B000870
:1000E000990B0008990B0008990B0008000000000C
:1000F0000000000000000000000000000000000000
:0C01000000000000000000005FF808F1A3
:10010C0010B5054C237833B9044B13B10448AFF345
:10011C0000800123237010BD24000020000000008B
:10012C003C27000808B5034B1BB103480349AFF348
:10013C00008008BD000000003C27000828000020BB
:10014C0081F0004102E000BF83F0004330B54FEA7C
:10015C0041044FEA430594EA050F08BF90EA020FE9
:10016C001FBF54EA000C55EA020C7FEA645C7FEA7C
:10017C00655C00F0E2804FEA5454D4EB5555B8BF9F
:10018C006D420CDD2C4480EA020281EA030382EA10
:10019C00000083EA010180EA020281EA0303362DA2
:1001AC0088BF30BD11F0004F4FEA01314FF4801C75
:1001BC004CEA113102D0404261EB410113F0004F87
:1001CC004FEA03334CEA133302D0524263EB43033E
:1001DC0094EA050F00F0A780A4F10104D5F1200EDC
:1001EC000DDB02FA0EFC22FA05F2801841F1000137
:1001FC0003FA0EF2801843FA05F359410EE0A5F10B
:10020C0020050EF1200E012A03FA0EFC28BF4CF03B
:10021C00020C43FA05F3C01851EBE37101F00045F1
:10022C0007D54FF0000EDCF1000C7EEB00006EEBFE
:10023C000101B1F5801F1BD3B1F5001F0CD3490888
:10024C005FEA30004FEA3C0C04F101044FEA4452DF
:10025C0012F5800F80F09A80BCF1004F08BF5FEA66
:10026C00500C50F1000041EB045141EA050130BD46
:10027C005FEA4C0C404141EB010111F4801FA4F1E9
:10028C000104E9D191F0000F04BF01460020B1FA3E
:10029C0081F308BF2033A3F10B03B3F120020CDA76
:1002AC000C3208DD02F1140CC2F10C0201FA0CF054
:1002BC0021FA02F10CE002F11402D8BFC2F1200CB9
:1002CC0001FA02F120FA0CFCDCBF41EA0C0190406F
:1002DC00E41AA2BF01EB0451294330BD6FEA0404B8
:1002EC001F3C1CDA0C340EDC04F11404C4F12002A3
:1002FC0020FA04F001FA02F340EA030021FA04F3B5
:10030C0045EA030130BDC4F10C04C4F1200220FA0B
:10031C0002F001FA04F340EA0300294630BD21FA49
:10032C0004F0294630BD94F0000F83F4801306BF0F
:10033C0081F480110134013D4EE77FEA645C18BF03
:10034C007FEA655C29D094EA050F08BF90EA020F9A
:10035C0005D054EA000C04BF1946104630BD91EA92
:10036C00030F1EBF0021002030BD5FEA545C05D195
:10037C004000494128BF41F0004130BD14F58004D4
:10038C003CBF01F5801130BD01F0004545F0FE4148
:10039C0041F470014FF0000030BD7FEA645C1ABF7D
:1003AC00194610467FEA655C1CBF0B46024650EAB4
:1003BC00013406BF52EA033591EA030F41F40021E0
:1003CC0030BD00BF90F0000F04BF0021704730B566
:1003DC004FF4806404F132044FF000054FF000013B
:1003EC0050E700BF90F0000F04BF0021704730B5FC
:1003FC004FF4806404F1320410F0004548BF4042D1
:10040C004FF000013EE700BF42004FEAE2014FEA25
:10041C0031014FEA02701FBF12F07F4393F07F4F00
:10042C0081F06051704792F0000F14BF93F07F4F32
:10043C00704730B54FF4607401F0004521F0004175
:10044C0020E700BF50EA010208BF704730B54FF0FB
:10045C0000050AE050EA010208BF704730B511F000
:10046C00004502D5404261EB41014FF4806404F138
:10047C0032045FEA915C3FF4DCAE4FF003025FEABA
:10048C00DC0C18BF03325FEADC0C18BF033202EB42
:10049C00DC02C2F1200300FA03FC20FA02F001FA9C
:1004AC0003FE40EA0E0021FA02F11444C1E600BF3B
:1004BC0070B54FF0FF0C4CF4E06C1CEA11541DBFEE
:1004CC001CEA135594EA0C0F95EA0C0F00F0DEF8B9
:1004DC002C4481EA030621EA4C5123EA4C5350EA9E
:1004EC00013518BF52EA033541F4801143F48013EF
:1004FC0038D0A0FB02CE4FF00005E1FB02E506F080
:10050C000042E0FB03E54FF00006E1FB03569CF0D4
:10051C00000F18BF4EF0010EA4F1FF04B6F5007FDA
:10052C0064F5407404D25FEA4E0E6D4146EB06064C
:10053C0042EAC62141EA55514FEAC52040EA5E50D5
:10054C004FEACE2EB4F1FD0C88BFBCF5E06F1ED87F
:10055C00BEF1004F08BF5FEA500E50F1000041EBB6
:10056C00045170BD06F0004646EA010140EA020063
:10057C0081EA0301B4EB5C04C2BFD4EB0C0541EA85
:10058C00045170BD41F480114FF0000E013C00F39A
:10059C00AB8014F1360FDEBF002001F0004170BDBE
:1005AC00C4F10004203C35DA0C341BDC04F11404D7
:1005BC00C4F1200500FA05F320FA04F001FA05F263
:1005CC0040EA020001F0004221F0004110EBD37030
:1005DC0021FA04F642EB06015EEA430E08BF20EA5C
:1005EC00D37070BDC4F10C04C4F1200500FA04F3FF
:1005FC0020FA05F001FA04F240EA020001F0004191
:10060C0010EBD37041F100015EEA430E08BF20EA03
:10061C00D37070BDC4F1200500FA05F24EEA020E4B
:10062C0020FA04F301FA05F243EA020321FA04F07A
:10063C0001F0004121FA04F220EA020000EBD37031
:10064C005EEA430E08BF20EAD37070BD94F0000F31
:10065C000FD101F00046400041EB010111F4801F65
:10066C0008BF013CF7D041EA060195F0000F18BF16
:10067C00704703F00046520043EB030313F4801F52
:10068C0008BF013DF7D043EA0603704794EA0C0F0C
:10069C000CEA135518BF95EA0C0F0CD050EA410622
:1006AC0018BF52EA4306D1D181EA030101F000419F
:1006BC004FF0000070BD50EA410606BF10461946C7
:1006CC0052EA430619D094EA0C0F02D150EA0136D3
:1006DC0013D195EA0C0F05D152EA03361CBF104614
:1006EC0019460AD181EA030101F0004141F0FE41B3
:1006FC0041F470014FF0000070BD41F0FE4141F437
:10070C00780170BD70B54FF0FF0C4CF4E06C1CEA36
:10071C0011541DBF1CEA135594EA0C0F95EA0C0FEB
:10072C0000F0A7F8A4EB050481EA030E52EA0335A6
:10073C004FEA013100F088804FEA03334FF08055C7
:10074C0045EA131343EA12634FEA022245EA1115F4
:10075C0045EA10654FEA00260EF000419D4208BFA5
:10076C00964244F1FD0404F5407402D25B084FEA52
:10077C003202B61A65EB03055B084FEA32024FF4FE
:10078C0080104FF4002CB6EB020E75EB030E22BF5B
:10079C00B61A754640EA0C005B084FEA3202B6EB1B
:1007AC00020E75EB030E22BFB61A754640EA5C00CA
:1007BC005B084FEA3202B6EB020E75EB030E22BF5A
:1007CC00B61A754640EA9C005B084FEA3202B6EB5B
:1007DC00020E75EB030E22BFB61A754640EADC001A
:1007EC0055EA060E18D04FEA051545EA16754FEA7C
:1007FC0006164FEAC30343EA52734FEAC2025FEA9A
:10080C001C1CC0D111F4801F0BD141EA00014FF028
:10081C0000004FF0004CB6E711F4801F04BF0143F9
:10082C000020B4F1FD0C88BFBCF5E06F3FF6AFAE15
:10083C00B5EB030C04BFB6EB020C5FEA500C50F1A5
:10084C00000041EB045170BD0EF0004E4EEA113128
:10085C0014EB5C04C2BFD4EB0C0541EA045170BD2F
:10086C0041F480114FF0000E013C90E645EA060E73
:10087C008DE60CEA135594EA0C0F08BF95EA0C0FA1
:10088C003FF43BAF94EA0C0F0AD150EA01347FF4E9
:10089C0034AF95EA0C0F7FF425AF104619462CE7C0
:1008AC0095EA0C0F06D152EA03353FF4FDAE104623
:1008BC00194622E750EA410618BF52EA43067FF474
:1008CC00C5AE50EA41047FF40DAF52EA43057FF404
:1008DC00EBAE12E74FEA410212F5001215D211D518
:1008EC006FF47873B3EB625212D94FEAC12343F021
:1008FC00004343EA505311F0004F23FA02F018BFA3
:10090C00404270474FF00000704750EA013005D16B
:10091C0011F0004008BF6FF0004070474FF000002E
:10092C00704700BF4A0011D212F5001211D20DD53A
:10093C006FF47873B3EB62520ED44FEAC12343F0D9
:10094C00004343EA505323FA02F070474FF0000083
:10095C00704750EA013002D14FF0FF3070474FF032
:10096C000000704780B500AF154B154A126842F075
:10097C0001021A60124A124B5968124B0B40536019
:10098C000F4A0F4B1B6823F0847323F480331360DE
:10099C000B4B0B4A126822F480221A60084B084A4F
:1009AC00526822F4FE025A60054B4FF41F029A6003
:1009BC0000F00CF8044B4FF000629A6080BD00BF51
:1009CC00001002400000FFF800ED00E080B500AF21
:1009DC0000F002F880BD00BF80B483B000AF0023EC
:1009EC007B6000233B603A4B394A126842F48032F8
:1009FC001A60374B1B6803F400333B607B68013390
:100A0C007B603B68002B03D17B68B3F5A06FF0D102
:100A1C002F4B1B6803F40033002B02D001233B60E7
:100A2C0001E000233B603B68012B4BD1294B294A49
:100A3C00126842F010021A60264B264A126822F005
:100A4C0003021A60234B234A126842F002021A6016
:100A5C001F4B1F4A52685A601D4B1D4A52685A6000
:100A6C001B4B1B4A526842F480625A60184B184A5E
:100A7C00526822F47C125A60154B154A526842F4A3
:100A8C00E8125A60124B124A126842F080721A60D5
:100A9C0000BF0F4B1B6803F00073002BF9D00C4BFD
:100AAC000B4A526822F003025A60094B084A5268FA
:100ABC0042F002025A6000BF054B5B6803F00C0366
:100ACC00082BF9D10C37BD465DF8047B704700BF8D
:100ADC00001002400020024080B400AFBD465DF81B
:100AEC00047B704780B400AFFEE700BF80B400AF5A
:100AFC00FEE700BF80B400AFFEE700BF80B400AFDC
:100B0C00FEE700BF80B400AFBD465DF8047B7047C4
:100B1C0080B400AFBD465DF8047B704780B400AF75
:100B2C00BD465DF8047B704780B500AF01F006F957
:100B3C0080BD00BFDFF83CD0002100F004B80E4BA4
:100B4C005B58435004310D480D4B42189A42FFF448
:100B5C00F6AF0C4A00F003B8002342F8043B0A4BF2
:100B6C009A42FFF4F9AFFFF7FDFE01F0BBFD00F078
:100B7C008DFD704700500020602700080000002009
:100B8C002400002024000020C8000020FFF7FEBF36
:100B9C0080B483B000AF786039607B683A681A60C3
:100BAC007B6818460C37BD465DF8047B704700BF68
:100BBC0080B582B000AF7860786820210F2200F0F9
:100BCC0037F978682321902200F032F90837BD46B6
:100BDC0080BD00BF80B586B000AFF860B9607A60A8
:100BEC003B6007F11403F8682321012200F00AF995
:100BFC00F868B9687A683B6800F0D8F83B7D1B113F
:100C0C00DBB203F00303FB75FB7D002B4BD1BB6800
:100C1C001B881BB21846FFF7E5FB02460B46104635
:100C2C0019464FF000025E4BFFF76CFD02460B4677
:100C3C0010461946FFF74EFE03469AB2BB681A805F
:100C4C007B681B881BB21846FFF7CCFB02460B4691
:100C5C00104619464FF00002514BFFF753FD024668
:100C6C000B4610461946FFF735FE03469AB27B68D1
:100C7C001A803B681B881BB21846FFF7B3FB024671
:100C8C000B46104619464FF00002454BFFF73AFD54
:100C9C0002460B4610461946FFF71CFE03469AB255
:100CAC003B681A8078E0FB7D012B4BD1BB681B881D
:100CBC001BB21846FFF796FB02460B461046194628
:100CCC004FF00002374BFFF71DFD02460B46104656
:100CDC001946FFF7FFFD03469AB2BB681A807B6882
:100CEC001B881BB21846FFF77DFB02460B461046CD
:100CFC0019464FF000022B4BFFF704FD02460B4642
:100D0C0010461946FFF7E6FD03469AB27B681A8037
:100D1C003B681B881BB21846FFF764FB02460B4668
:100D2C00104619464FF000021E4BFFF7EBFC024633
:100D3C000B4610461946FFF7CDFD03469AB23B68A9
:100D4C001A8029E0FB7D022B26D1BB681B881BB2C5
:100D5C00154A82FB03121A449211DB17D31A9AB26A
:100D6C00BB681A807B681B881BB20F4A82FB03127C
:100D7C001A449211DB17D31A9AB27B681A803B681B
:100D8C001B881BB2084A82FB03121A449211DB1710
:100D9C00D31A9AB23B681A801837BD4680BD00BF83
:100DAC000080214000803140EBA00EEA80B586B077
:100DBC0000AFF860B9607A603B6007F11003F86827
:100DCC00A821062200F01EF83B7C1A467B7C1B02F5
:100DDC009BB213439AB2BB681A80BB7C1A46FB7C4D
:100DEC001B029BB213439AB27B681A803B7D1A4656
:100DFC007B7D1B029BB213439AB23B681A80183757
:100E0C00BD4680BD80B586B002AFF8607A603B60AD
:100E1C000B46FB72FB681A68FB7A39680091104626
:100E2C0069211A467B6800F0EDFD1037BD4680BD88
:100E3C0080B582B000AF786013460A46FA70BB707A
:100E4C007B681968FA78BB780846692100F042FD86
:100E5C000837BD4680BD00BF80B485B000AFF860D8
:100E6C00B9601346FB80FB68BA681A60FB68FA88A5
:100E7C001A81FB6818461437BD465DF8047B704731
:100E8C0080B586B002AF78606D4B1B689AB27B68F8
:100E9C005A817B681B6807F10C0200921846772177
:100EAC00AA22022300F0AEFD3B7B1B029AB27B7B95
:100EBC0013439AB27B689A817B681B6807F10C021A
:100ECC00009218467721AC22022300F09BFD3B7B5D
:100EDC001B029AB27B7B13439AB27B68DA817B68E4
:100EEC001B6807F10C02009218467721AE220223F0
:100EFC0000F088FD3B7B1B029AB27B7B13439AB2BA
:100F0C007B681A827B681B6807F10C0200921846FA
:100F1C007721B022022300F075FD3B7B1B029AB2B5
:100F2C007B7B13439BB29AB27B689A837B681B686A
:100F3C0007F10C02009218467721B222022300F02E
:100F4C0061FD3B7B1B029AB27B7B13439BB29AB233
:100F5C007B68DA837B681B6807F10C0200921846E9
:100F6C007721B422022300F04DFD3B7B1B029AB289
:100F7C007B7B13439BB29AB27B681A847B681B6899
:100F8C0007F10C02009218467721B622022300F0DA
:100F9C0039FD3B7B1B029AB27B7B13439AB27B6875
:100FAC005A827B681B6807F10C0200921846772165
:100FBC00B822022300F026FD3B7B1B029AB27B7BFE
:100FCC0013439AB27B689A827B681B6807F10C0208
:100FDC00009218467721BA22022300F013FD3B7BC6
:100FEC001B029AB27B7B13439AB27B68DA827B68D2
:100FFC001B6807F10C02009218467721BC220223D1
:10100C0000F000FD3B7B1B029AB27B7B13439AB230
:10101C007B681A837B681B6807F10C0200921846E8
:10102C007721BE22022300F0EDFC3B7B1B029AB21F
:10103C007B7B13439AB27B685A831037BD4680BDC5
:10104C0040000020B0B586B002AF786039607B6894
:10105C005B891AB2844B1B689A4212D17B681B685D
:10106C0018467721F4222E2300F034FC00F05AFEAF
:10107C0002467B685A607D4B1B689AB27B685A812A
:10108C00F7E27B685B891AB2784B1B689A4240F096
:10109C008C8000F047FE02467B685B68D31A052BF8
:1010AC0094BF00230123DBB2002B7DD07B681B682F
:1010BC0007F10C02009218467721F622022300F069
:1010CC00A1FC3B7B1A027B7B1A447B685A647B68CD
:1010DC005A6C7B681B8CD31A7A68D28B02FB03F395
:1010EC001846FFF77FF902460B46104619464FF09B
:1010FC0000025F4BFFF706FB02460B4610461946F3
:10110C00FFF7E8FB02467B685A627B681B8B1BB2BD
:10111C001846FFF767F902460B46104619464FF082
:10112C000002544BFFF7C4F902460B4614461D4609
:10113C007B685A6A7B685B8B1BB213441846FFF7BB
:10114C0051F902460B4620462946FFF7DBFA0246C8
:10115C000B4610461946FFF7BDFB02467B689A62A8
:10116C007B685A6A7B689B6A1A447B685A637B6803
:10117C005B6B08331846FFF735F902460B461046F1
:10118C0019464FF000023C4BFFF7BCFA02460B46E7
:10119C0010461946FFF79EFB02467B689A63374B55
:1011AC001B689AB27B685A8163E27B685B891AB2CE
:1011BC00324B1B689A4265D17B681B891BB2032B8F
:1011CC003AD801A252F823F0E5110008FD110008ED
:1011DC00151200082D1200087B681B681846772131
:1011EC00F422342300F076FB7B6805225A652FE04D
:1011FC007B681B6818467721F422742300F06AFB85
:10120C007B6808225A6523E07B681B6818467721A7
:10121C00F422B42300F05EFB7B680E225A6517E0C3
:10122C007B681B6818467721F422F42300F052FBEC
:10123C007B681A225A650BE07B681B68184677217D
:10124C00F422342300F046FB7B6805225A6500BF6C
:10125C0000F068FD02467B685A60094B1B689AB225
:10126C007B685A8105E200BF40000020040000208A
:10127C000000E0400000A0400000304008000020CA
:10128C000C0000207B685B891AB29D4B1B689A424C
:10129C0040F0EF8100F046FD02467B685B68D21A95
:1012AC007B685B6D9A4294BF00230123DBB2002B59
:1012BC0000F0DF817B681B6807F10802009218467A
:1012CC007721F622032300F09DFB3B7A1A047B7AEC
:1012DC001B021A44BB7A1A447B681B891BB2C3F1EC
:1012EC0008031A417B689A647B685B6BA3F57A628E
:1012FC007B68DA637B689B8A1BB21846FFF772F82F
:10130C0004460D467B68DB6B7A68D26B02FB03F3F9
:10131C001846FFF767F802460B46104619464FF081
:10132C000002784BFFF7EEF902460B4620462946A1
:10133C00FFF7BEF802460B46104619464FF0000266
:10134C00714BFFF7DFF902460B4610461946FFF7C3
:10135C00C1FA02467B685A627B68DB891BB27A68E9
:10136C00D26B02FB03F31846FFF73CF802460B4620
:10137C00104619464FF00002634BFFF7C3F90246C3
:10138C000B4610461946FFF7A5FA02467B689A628F
:10139C007B685A6A7B689B6A1A447B68DA627B6852
:1013AC009B891BB29A007B68DB6A1A447B681B8999
:1013BC001BB202FA03F30233002B00DA03339B1047
:1013CC001A467B681A637B681B8A1BB27A68D26BDD
:1013DC0002FB03F31846FFF705F802460B461046CE
:1013EC0019464FF00002494BFFF78CF902460B46A9
:1013FC0010461946FFF76EFA02467B685A627B6804
:10140C005B8A1BB21846FEF7EDFF04460D467B685F
:10141C00DB6B7A68D26B02FB03F31846FEF7E2FF34
:10142C0002460B46104619464FF00002354BFFF7AB
:10143C0069F902460B4620462946FFF739F8024661
:10144C000B46104619464FF00002314BFFF75AF984
:10145C0002460B4610461946FFF73CFA02467B68DB
:10146C009A627B685A6A7B689B6A134402331846FB
:10147C00FEF7B8FF02460B46104619464FF0000225
:10148C00244BFFF73FF902460B4610461946FFF76F
:10149C0021FA02467B68DA627B689B8B7A68D26A97
:1014AC0002F5004202FB03F31846FEF78BFF0246DF
:1014BC000B46104619464FF00002174BFFF722F966
:1014CC0002460B4610461946FFF72CFA02467B687B
:1014DC00DA647B689B6C1A467B681B6BD31A7A6840
:1014EC00128912B24CF2503141FA02F202FB03F2B1
:1014FC007B681A657B681B6D002B1ADB0EE000BF46
:10150C000C0000200000B0400000A0400000C040D3
:10151C000000F040000010400000E0407B681B6DB4
:10152C005A007B68DB6CB2FBF3F31A467B681A64D7
:10153C0009E07B681A6D7B68DB6CB2FBF3F35B0034
:10154C001A467B681A647B681B6C1846FEF74AFFC8
:10155C0002460B46104619464FF00002464BFFF769
:10156C00D1F802460B4614461D467B681B6C184688
:10157C00FEF738FF02460B46104619464FF00002A4
:10158C003D4BFFF7BFF802460B4620462946FEF7B7
:10159C008FFF02460B4610461946FFF79BF9024691
:1015AC007B685A627B685B6A40F6DE3202FB03F3AF
:1015BC001846FEF717FF02460B46104619464FF029
:1015CC0000022E4BFFF79EF802460B4610461946BA
:1015DC00FFF780F902467B685A627B681B6C284ACD
:1015EC0002FB03F31846FEF7FDFE02460B461046BF
:1015FC0019464FF00002214BFFF784F802460B46C8
:10160C0010461946FFF766F902467B689A627B68BA
:10161C001B6C1846FEF7E6FE04460D467B685A6ABC
:10162C007B689B6A134403F6CF631846FEF7DAFE19
:10163C0002460B46104619464FF00002114BFFF7BD
:10164C0061F802460B4620462946FEF77FFD02460E
:10165C000B4610461946FFF73DF902467B681A64A3
:10166C007B681A6C3B681A60074B1B689AB27B68E4
:10167C005A811037BD46B0BD000070400000F040EC
:10168C0043E3FFFF000030404000002080B584B0F1
:10169C0000AF00F037FB4FF4165000F06BF80A481F
:1016AC00FFF7EEFB0948FFF783FA07F10C03064836
:1016BC001946FFF7C7FC07F10A0107F10802BB1D29
:1016CC000248FFF787FAF0E748000020A00000204E
:1016DC0080B582B000AF786039607B68012B2AD16D
:1016EC003A684FF6FF739A4225D114481449154AAB
:1016FC0000F08CF8144811490322FFF7ADFB134896
:10170C000E49FFF745FA124812490222102300F045
:10171C0041FA11480F490222102300F03BFA0F48FE
:10172C000C490222102300F035FA0D480949022217
:10173C00482300F02FFA0837BD4680BD4400002036
:10174C0000540040A086010048000020A0000020AA
:10175C00A4000020000C0140AC000020B4000020CC
:10176C00BC00002080B500AF01204FF6FF71FFF7E1
:10177C00AFFF80BD80B58AB000AF786044F2050041
:10178C00012100F0B5FC4FF40073BB84182387F8DB
:10179C002730032387F8263007F12403194819460C
:1017AC0000F0E4FE4FF48063BB84042387F82730F9
:1017BC0007F124031348194600F0D8FE07F10C0377
:1017CC00184600F0ADFB07F10C030F48194600F06A
:1017DC007DFB7B687B6100233B8300237B830023A1
:1017EC00BB830C23FB8300233B8407F114030648C3
:1017FC00194600F0B1FA0448012100F0A7FB283784
:10180C00BD4680BD000801400038014080B58AB05B
:10181C0000AFF860B9607A60FB68BA681A6008209B
:10182C00012100F065FCFB681A68274B9A4213D122
:10183C004FF40010012100F079FCC023BB841C2361
:10184C0087F82730032387F8263007F124031F4835
:10185C00194600F08BFE18E0FB681A681C4B9A4284
:10186C0013D14FF48000012100F060FC4FF4406371
:10187C00BB841C2387F82730032387F8263007F115
:10188C0024031248194600F071FE00233B834FF4E9
:10189C0080437B830023BB834FF48063FB837B6893
:1018AC007B61FB681A6807F114031046194600F0B7
:1018BC005BFCFB681B681846012100F017FDFB68F8
:1018CC0018462837BD4680BD00540040000C01402E
:1018DC000058004080B582B000AF7860F970BA70E3
:1018EC007B707B681B681846012100F05FFD00BF10
:1018FC007B681B6818464FF4003100F003FE03466A
:10190C00002B0CBF00230123DBB2002BF0D17B6832
:10191C001B681846012100F009FD00BF7B681B689D
:10192C001846344900F0EEFD0346002B14BF00238B
:10193C000123DBB2002BF1D17B681A68FB785B00CA
:10194C00DBB210461946002200F06EFD00BF7B682A
:10195C001B681846284900F0A5FD0346002B14BF50
:10196C0000230123DBB2002BF1D17B681A68BB7812
:10197C001046194600F03AFD00BF7B681B681846FC
:10198C001E4900F08FFD0346002B14BF00230123DA
:10199C00DBB2002BF1D17B681A687B7810461946B4
:1019AC0000F024FD00BF7B681B681846134900F04B
:1019BC0079FD0346002B14BF00230123DBB2002B5F
:1019CC00F1D17B681B681846012100F0CFFC00BFE9
:1019DC007B681B6818460A4900F094FD0346002BEF
:1019EC000CBF00230123DBB2002BF1D10837BD461D
:1019FC0080BD00BF010000108200070084000700BA
:101A0C001000001090B587B000AFF8607B600B46FB
:101A1C00FB721346BB725848012100F0C7FC00BF93
:101A2C0055484FF4003100F06DFD0346002B0CBF00
:101A3C0000230123DBB2002BF2D14F48012100F02F
:101A4C0075FC00BF4C484D4900F05CFD0346002B73
:101A5C0014BF00230123DBB2002BF3D1FB7A5B0014
:101A6C00DBB245481946002200F0DEFC00BF4248BC
:101A7C00434900F017FD0346002B14BF002301233C
:101A8C00DBB2002BF3D1BB7A3B48194600F0AEFC1D
:101A9C0000BF39483B4900F005FD0346002B14BF3D
:101AAC0000230123DBB2002BF3D13348012100F0DA
:101ABC003DFC00BF3048314900F024FD0346002BAB
:101ACC0014BF00230123DBB2002BF3D1FB7A5B00A4
:101ADC00DBB229481946012200F0A6FC00BF2648BB
:101AEC00294900F0DFFC0346002B14BF002301231F
:101AFC00DBB2002BF3D100237B6125E000BF1E4835
:101B0C00224900F0CFFC0346002B14BF0023012315
:101B1C00DBB2002BF3D17B69BA6AD418164800F0FB
:101B2C0075FC034623707B689A1E7B699A4208D128
:101B3C001148002100F03AFC0F484FF2FF7100F001
:101B4C0091FC7B6901337B617A697B689A42D5DBB6
:101B5C000948012100F00AFC00BF07480C4900F0BD
:101B6C00D1FC0346002B0CBF00230123DBB2002B5E
:101B7C00F3D11C37BD4690BD00540040010000104D
:101B8C0082000700840007000200030040000300ED
:101B9C001000001080B586B000AFF860B960FA7123
:101BAC00BB71FB68BA681A60FB68FA791A71FB683A
:101BBC00BA795A71FB681A68264B9A4204D10420F0
:101BCC00012100F095FA30E0FB681A68224B9A422A
:101BDC0004D10820012100F08BFA26E0FB681A687A
:101BEC001E4B9A4204D11020012100F081FA1CE016
:101BFC00FB681A681A4B9A4204D12020012100F08C
:101C0C0077FA12E0FB681A68164B9A4204D140200E
:101C1C00012100F06DFA08E0FB681A68124B9A4239
:101C2C0003D18020012100F063FAFB685B79FB751E
:101C3C00FB681B79BB820323BB75FB681A6807F131
:101C4C0014031046194600F091FCFB68184618372F
:101C5C00BD4680BD00080140000C01400010014051
:101C6C000014014000180140001C014080B483B0F6
:101C7C0000AF03463960FB7197F90730002B0BDA84
:101C8C000D49FB7903F00F03043B3A68D2B2120101
:101C9C00D2B20B441A7609E0084997F907303A6832
:101CAC00D2B21201D2B20B4483F800230C37BD46DA
:101CBC005DF8047B704700BF00ED00E000E100E040
:101CCC0080B582B000AF78607B68B3F1807F01D3C0
:101CDC00012311E00A4B7A6822F07F42013A5A60E4
:101CEC004FF0FF300F21FFF7C1FF054B00229A6028
:101CFC00034B07221A60002318460837BD4680BDE7
:101D0C0010E000E080B500AF044B1A68044BA3FB55
:101D1C0002139B091846FFF7D3FF80BD000000207B
:101D2C00D34D621080B400AF034B1B681846BD4600
:101D3C005DF8047B704700BFC400002080B400AF86
:101D4C00044B1B685A1C034B1A60BD465DF8047BA0
:101D5C00704700BFC400002080B58CB000AF786025
:101D6C0039600023FB620023BB6200237B620023EB
:101D7C003B620023FB617B68FB617B681B8A9BB227
:101D8C00FB62FA6A4CF6FF731340FB623B68DB881C
:101D9C00FA6A1343FB62FB6A9AB27B681A827B680D
:101DAC009B899BB2FB62FA6A4EF6F3131340FB62FB
:101DBC003B689A883B681B8913439AB23B685B89E2
:101DCC0013439BB2FA6A1343FB62FB6A9AB27B68B9
:101DDC009A817B689B8A9BB2FB62FA6A4FF6FF433F
:101DEC001340FB623B689B89FA6A1343FB62FB6AF4
:101DFC009AB27B689A8207F10803184600F0C6F87D
:101E0C00FA69304B9A4202D17B69BB6201E03B69B3
:101E1C00BB627B689B899BB29BB21BB2002B0CDA1A
:101E2C00BA6A13469B0013449A001A443B681B6819
:101E3C005B00B2FBF3F37B620BE0BA6A13469B00C8
:101E4C0013449A001A443B681B689B00B2FBF3F3E3
:101E5C007B627A6A1C4BA3FB02135B091B01FB62BE
:101E6C00FB6A1B09642202FB03F37A6AD31A3B62F6
:101E7C007B689B899BB29BB21BB2002B0DDA3B6A31
:101E8C00DB0003F13202104BA3FB02135B0903F0DE
:101E9C000703FA6A1343FB620CE03B6A1B0103F174
:101EAC003202094BA3FB02135B0903F00F03FA6A1E
:101EBC001343FB62FB6A9AB27B681A813037BD46CA
:101ECC0080BD00BF003801401F85EB5180B485B048
:101EDC0000AF786039600023FB607B681B8A9BB283
:101EEC00FB60FA684FF2FF031340FB603B681A88F3
:101EFC003B685B8813439AB23B689B8813439AB246
:101F0C003B68DB8813439BB2FA681343FB60FB68A6
:101F1C009AB27B681A821437BD465DF8047B704711
:101F2C0080B483B000AF78607B6800221A807B6835
:101F3C0000225A807B6800229A807B680022DA801B
:101F4C000C37BD465DF8047B704700BF80B483B08E
:101F5C0000AF78600B46FB70FB78002B08D07B68D9
:101F6C009B899BB243F400539AB27B689A8107E039
:101F7C007B689B899BB223F400539AB27B689A814D
:101F8C000C37BD465DF8047B704700BF80B487B04A
:101F9C0000AF786000237B6100233B610023FB6072
:101FAC000023BB604D4B5B6803F00C037B617B69CA
:101FBC00042B07D0082B09D0002B34D17B68484A5E
:101FCC001A6034E07B68464A1A6030E0434B5B6829
:101FDC0003F470133B61414B5B6803F48033FB608B
:101FEC003B699B0C02333B61FB68002B06D13B69C0
:101FFC003C4A02FB03F27B681A6013E0374B5B68C8
:10200C0003F40033002B06D03B69364A02FB03F283
:10201C007B681A6006E03B69314A02FB03F27B687D
:10202C001A6004E003E07B682D4A1A6000BF2B4B5A
:10203C005B6803F0F0037B617B691B097B612A4AB7
:10204C007B6913441B78DBB2BB607B681A68BB6886
:10205C00DA407B685A60214B5B6803F4E0637B6178
:10206C007B691B0A7B61204A7B6913441B78DBB2BA
:10207C00BB607B685A68BB68DA407B689A60174B18
:10208C005B6803F460537B617B69DB0A7B61164AF6
:10209C007B6913441B78DBB2BB607B685A68BB68F6
:1020AC00DA407B68DA600D4B5B6803F440437B617C
:1020BC007B699B0B7B610D4A7B6913441B78DBB2FC
:1020CC00BB607B68DA68BB68B2FBF3F27B681A61B1
:1020DC001C37BD465DF8047B704700BF0010024002
:1020EC0000127A0000093D001000002020000020A2
:1020FC0080B483B000AF78600B46FB70FB78002B8C
:10210C0006D0094B084A91697A680A439A6106E03D
:10211C00054B054A91697A68D2430A409A610C379B
:10212C00BD465DF8047B70470010024080B483B05C
:10213C0000AF78600B46FB70FB78002B06D0094B88
:10214C00084AD1697A680A43DA6106E0054B054A08
:10215C00D1697A68D2430A40DA610C37BD465DF822
:10216C00047B70470010024080B58AB000AF7860E5
:10217C0039600023FB8400237B840423BB84574BEE
:10218C00FB617B689B88FB84FB8C23F03F03FB8407
:10219C0007F108031846FFF7F9FE3B69FB61FA6982
:1021AC004F4BA3FB02139B0C7B84FA8C7B8C13434D
:1021BC00FB847B68FA8C9A807B681B889BB223F02B
:1021CC0001039AB27B681A800023FB843B681A686F
:1021DC00444B9A4215D83B681B685B00FA69B2FB0A
:1021EC00F3F3BB84BB8C032B01D80423BB84FA8C84
:1021FC00BB8C1343FB847B8C01339AB27B681A84AF
:10220C0040E03B68DA884BF6FF739A4209D13B6891
:10221C001A6813465B001344FA69B2FBF3F3BB84F0
:10222C000EE03B681A6813469B0013449A00134453
:10223C00FA69B2FBF3F3BB84BB8C43F48043BB84DD
:10224C00BB8CC3F30B03002B03D1BB8C43F00103FA
:10225C00BB84BA8CFB8C13439BB26FEA43436FEA8B
:10226C005343FB847B8C4FF4967202FB03F31E4AA0
:10227C0082FB03129211DB17D31A9BB201339AB271
:10228C007B681A847B68FA8C9A837B681B889BB268
:10229C0043F001039AB27B681A807B681B88FB842D
:1022AC00FB8C23F4816323F00203FB843B689A8844
:1022BC003B685B8913439AB2FB8C1343FB847B68AA
:1022CC00FA8C1A803B689A893B681B8913439AB233
:1022DC007B681A812837BD4680BD00BF00127A008A
:1022EC0083DE1B43A0860100D34D621080B483B003
:1022FC0000AF78600B46FB70FB78002B08D07B6836
:10230C001B889BB243F001039AB27B681A8007E0EA
:10231C007B681B889BB223F001039AB27B681A80FE
:10232C000C37BD465DF8047B704700BF80B483B0AA
:10233C0000AF78600B46FB70FB78002B08D07B68F5
:10234C001B889BB243F480739AB27B681A8007E0B7
:10235C007B681B889BB223F480739AB27B681A80CB
:10236C000C37BD465DF8047B704700BF80B483B06A
:10237C0000AF78600B46FB70FB78002B08D07B68B5
:10238C001B889BB243F400739AB27B681A8007E0F7
:10239C007B681B889BB223F400739AB27B681A800B
:1023AC000C37BD465DF8047B704700BF80B483B02A
:1023BC0000AF78600B46FB70FB78002B08D07B6875
:1023CC001B889BB243F480639AB27B681A8007E047
:1023DC007B681B889BB223F480639AB27B681A805B
:1023EC000C37BD465DF8047B704700BF80B483B0EA
:1023FC0000AF78600B46FB70FB789AB27B681A8250
:10240C000C37BD465DF8047B704700BF80B483B0C9
:10241C0000AF78607B681B8A9BB2DBB218460C3726
:10242C00BD465DF8047B704780B483B000AF786024
:10243C0013460A46FA70BB70BB78002B04D0FB78AD
:10244C0043F00103FB7003E0FB7823F00103FB7006
:10245C00FB789AB27B681A820C37BD465DF8047B18
:10246C00704700BF80B483B000AF78600B467B80B0
:10247C007B88B3F5006F08D17B681B889BB243F453
:10248C0000639AB27B681A8007E07B681B889BB25A
:10249C0023F400639AB27B681A800C37BD465DF852
:1024AC00047B704780B487B000AF7860396000233C
:1024BC003B610023FB600023BB600023FB757B6842
:1024CC009B8A9BB2FB607B681B8B9BB2BB60BB681F
:1024DC001B04BB60FA68BB68134323F07F433B616A
:1024EC003A693B681A403B689A4202D10123FB755A
:1024FC0001E00023FB75FB7D18461C37BD465DF8DB
:10250C00047B704780B487B000AF786039600023DB
:10251C00FB7500233B610023FB607B68FB603B6821
:10252C001B0F3B613B6823F07F433B603B69002BF7
:10253C0003D0FB681433FB6005E03B681B0C3B606D
:10254C00FB681833FB60FB681A683B681340002B70
:10255C0002D00123FB7501E00023FB75FB7D1846BF
:10256C001C37BD465DF8047B704700BF80B489B052
:10257C0000AF786039600023FB6100233B610023CE
:10258C00BB610023FB6000237B610023BB603B68C5
:10259C00DB7803F00F03FB613B68DB7803F010037F
:1025AC00002B04D03B689B78FA691343FB613B68B2
:1025BC001B88DBB2002B44D07B681B687B6100233B
:1025CC00BB6138E0BB69012202FA03F3FB603B6894
:1025DC001B881A46FB6813403B613A69FB689A42B8
:1025EC0026D1BB699B00FB60FB680F2202FA03F348
:1025FC00BB60BB68DB437A6913407B61FB68FA699B
:10260C0002FA03F37A6913437B613B68DB78282B6E
:10261C0005D1BB6901229A407B685A6108E03B688E
:10262C00DB78482B04D1BB6901229A407B681A6184
:10263C00BB690133BB61BB69072BC3D97B687A6962
:10264C001A603B681B88FF2B46D97B685B687B61F3
:10265C000023BB613AE0BB690833012202FA03F3A1
:10266C00FB603B681B881A46FB6813403B613A6968
:10267C00FB689A4227D1BB699B00FB60FB680F2269
:10268C0002FA03F3BB60BB68DB437A6913407B61DE
:10269C00FB68FA6902FA03F37A6913437B613B68BE
:1026AC00DB78282B05D1BB69083301229A407B6863
:1026BC005A613B68DB78482B05D1BB690833012292
:1026CC009A407B681A61BB690133BB61BB69072BFC
:1026DC00C1D97B687A695A602437BD465DF8047BA2
:1026EC00704700BF70B50E4B0E4D0024ED1AAD10A7
:1026FC001E46AC4204D056F8242090470134F8E72B
:10270C0000F016F8084D094B0024ED1AAD101E46CA
:10271C00AC4204D056F8242090470134F8E770BD41
:10272C0054270008542700085C2700085427000889
:10273C00F8B500BFF8BC08BC9E467047F8B500BFA2
:08274C00F8BC08BC9E46704772
:082754003101000871170008B3
:04275C000D01000863
:1027600000A24A0401000000020000000300000073
:102770000000000001020304010203040607080927
:042780000204060841
:0400000508000B41A3
:00000001FF
