:020000040800F2
:1000000000500020410B0008E50A0008F10A000832
:10001000F90A0008010B0008090B000800000000A5
:10002000000000000000000000000000110B0008AC
:100030001D0B000800000000290B0008350B00080C
:10004000990B0008990B0008990B0008990B000800
:10005000990B0008990B0008990B0008990B0008F0
:10006000990B0008990B0008990B0008990B0008E0
:10007000990B0008990B0008990B0008990B0008D0
:10008000990B0008990B0008990B0008990B0008C0
:10009000990B0008990B0008990B0008990B0008B0
:1000A000990B0008990B0008990B0008990B0008A0
:1000B000990B0008990B0008990B0008990B000890
:1000C000990B0008990B0008990B0008990B000880
:1000D000990B0008990B0008990B0008990B000870
:1000E000990B0008990B0008990B0008000000000C
:1000F0000000000000000000000000000000000000
:0C01000000000000000000005FF808F1A3
:10010C0010B5054C237833B9044B13B10448AFF345
:10011C0000800123237010BD24000020000000008B
:10012C00D827000808B5034B1BB103480349AFF3AC
:10013C00008008BD00000000D8270008280000201F
:10014C0081F0004102E000BF83F0004330B54FEA7C
:10015C0041044FEA430594EA050F08BF90EA020FE9
:10016C001FBF54EA000C55EA020C7FEA645C7FEA7C
:10017C00655C00F0E2804FEA5454D4EB5555B8BF9F
:10018C006D420CDD2C4480EA020281EA030382EA10
:10019C00000083EA010180EA020281EA0303362DA2
:1001AC0088BF30BD11F0004F4FEA01314FF4801C75
:1001BC004CEA113102D0404261EB410113F0004F87
:1001CC004FEA03334CEA133302D0524263EB43033E
:1001DC0094EA050F00F0A780A4F10104D5F1200EDC
:1001EC000DDB02FA0EFC22FA05F2801841F1000137
:1001FC0003FA0EF2801843FA05F359410EE0A5F10B
:10020C0020050EF1200E012A03FA0EFC28BF4CF03B
:10021C00020C43FA05F3C01851EBE37101F00045F1
:10022C0007D54FF0000EDCF1000C7EEB00006EEBFE
:10023C000101B1F5801F1BD3B1F5001F0CD3490888
:10024C005FEA30004FEA3C0C04F101044FEA4452DF
:10025C0012F5800F80F09A80BCF1004F08BF5FEA66
:10026C00500C50F1000041EB045141EA050130BD46
:10027C005FEA4C0C404141EB010111F4801FA4F1E9
:10028C000104E9D191F0000F04BF01460020B1FA3E
:10029C0081F308BF2033A3F10B03B3F120020CDA76
:1002AC000C3208DD02F1140CC2F10C0201FA0CF054
:1002BC0021FA02F10CE002F11402D8BFC2F1200CB9
:1002CC0001FA02F120FA0CFCDCBF41EA0C0190406F
:1002DC00E41AA2BF01EB0451294330BD6FEA0404B8
:1002EC001F3C1CDA0C340EDC04F11404C4F12002A3
:1002FC0020FA04F001FA02F340EA030021FA04F3B5
:10030C0045EA030130BDC4F10C04C4F1200220FA0B
:10031C0002F001FA04F340EA0300294630BD21FA49
:10032C0004F0294630BD94F0000F83F4801306BF0F
:10033C0081F480110134013D4EE77FEA645C18BF03
:10034C007FEA655C29D094EA050F08BF90EA020F9A
:10035C0005D054EA000C04BF1946104630BD91EA92
:10036C00030F1EBF0021002030BD5FEA545C05D195
:10037C004000494128BF41F0004130BD14F58004D4
:10038C003CBF01F5801130BD01F0004545F0FE4148
:10039C0041F470014FF0000030BD7FEA645C1ABF7D
:1003AC00194610467FEA655C1CBF0B46024650EAB4
:1003BC00013406BF52EA033591EA030F41F40021E0
:1003CC0030BD00BF90F0000F04BF0021704730B566
:1003DC004FF4806404F132044FF000054FF000013B
:1003EC0050E700BF90F0000F04BF0021704730B5FC
:1003FC004FF4806404F1320410F0004548BF4042D1
:10040C004FF000013EE700BF42004FEAE2014FEA25
:10041C0031014FEA02701FBF12F07F4393F07F4F00
:10042C0081F06051704792F0000F14BF93F07F4F32
:10043C00704730B54FF4607401F0004521F0004175
:10044C0020E700BF50EA010208BF704730B54FF0FB
:10045C0000050AE050EA010208BF704730B511F000
:10046C00004502D5404261EB41014FF4806404F138
:10047C0032045FEA915C3FF4DCAE4FF003025FEABA
:10048C00DC0C18BF03325FEADC0C18BF033202EB42
:10049C00DC02C2F1200300FA03FC20FA02F001FA9C
:1004AC0003FE40EA0E0021FA02F11444C1E600BF3B
:1004BC0070B54FF0FF0C4CF4E06C1CEA11541DBFEE
:1004CC001CEA135594EA0C0F95EA0C0F00F0DEF8B9
:1004DC002C4481EA030621EA4C5123EA4C5350EA9E
:1004EC00013518BF52EA033541F4801143F48013EF
:1004FC0038D0A0FB02CE4FF00005E1FB02E506F080
:10050C000042E0FB03E54FF00006E1FB03569CF0D4
:10051C00000F18BF4EF0010EA4F1FF04B6F5007FDA
:10052C0064F5407404D25FEA4E0E6D4146EB06064C
:10053C0042EAC62141EA55514FEAC52040EA5E50D5
:10054C004FEACE2EB4F1FD0C88BFBCF5E06F1ED87F
:10055C00BEF1004F08BF5FEA500E50F1000041EBB6
:10056C00045170BD06F0004646EA010140EA020063
:10057C0081EA0301B4EB5C04C2BFD4EB0C0541EA85
:10058C00045170BD41F480114FF0000E013C00F39A
:10059C00AB8014F1360FDEBF002001F0004170BDBE
:1005AC00C4F10004203C35DA0C341BDC04F11404D7
:1005BC00C4F1200500FA05F320FA04F001FA05F263
:1005CC0040EA020001F0004221F0004110EBD37030
:1005DC0021FA04F642EB06015EEA430E08BF20EA5C
:1005EC00D37070BDC4F10C04C4F1200500FA04F3FF
:1005FC0020FA05F001FA04F240EA020001F0004191
:10060C0010EBD37041F100015EEA430E08BF20EA03
:10061C00D37070BDC4F1200500FA05F24EEA020E4B
:10062C0020FA04F301FA05F243EA020321FA04F07A
:10063C0001F0004121FA04F220EA020000EBD37031
:10064C005EEA430E08BF20EAD37070BD94F0000F31
:10065C000FD101F00046400041EB010111F4801F65
:10066C0008BF013CF7D041EA060195F0000F18BF16
:10067C00704703F00046520043EB030313F4801F52
:10068C0008BF013DF7D043EA0603704794EA0C0F0C
:10069C000CEA135518BF95EA0C0F0CD050EA410622
:1006AC0018BF52EA4306D1D181EA030101F000419F
:1006BC004FF0000070BD50EA410606BF10461946C7
:1006CC0052EA430619D094EA0C0F02D150EA0136D3
:1006DC0013D195EA0C0F05D152EA03361CBF104614
:1006EC0019460AD181EA030101F0004141F0FE41B3
:1006FC0041F470014FF0000070BD41F0FE4141F437
:10070C00780170BD70B54FF0FF0C4CF4E06C1CEA36
:10071C0011541DBF1CEA135594EA0C0F95EA0C0FEB
:10072C0000F0A7F8A4EB050481EA030E52EA0335A6
:10073C004FEA013100F088804FEA03334FF08055C7
:10074C0045EA131343EA12634FEA022245EA1115F4
:10075C0045EA10654FEA00260EF000419D4208BFA5
:10076C00964244F1FD0404F5407402D25B084FEA52
:10077C003202B61A65EB03055B084FEA32024FF4FE
:10078C0080104FF4002CB6EB020E75EB030E22BF5B
:10079C00B61A754640EA0C005B084FEA3202B6EB1B
:1007AC00020E75EB030E22BFB61A754640EA5C00CA
:1007BC005B084FEA3202B6EB020E75EB030E22BF5A
:1007CC00B61A754640EA9C005B084FEA3202B6EB5B
:1007DC00020E75EB030E22BFB61A754640EADC001A
:1007EC0055EA060E18D04FEA051545EA16754FEA7C
:1007FC0006164FEAC30343EA52734FEAC2025FEA9A
:10080C001C1CC0D111F4801F0BD141EA00014FF028
:10081C0000004FF0004CB6E711F4801F04BF0143F9
:10082C000020B4F1FD0C88BFBCF5E06F3FF6AFAE15
:10083C00B5EB030C04BFB6EB020C5FEA500C50F1A5
:10084C00000041EB045170BD0EF0004E4EEA113128
:10085C0014EB5C04C2BFD4EB0C0541EA045170BD2F
:10086C0041F480114FF0000E013C90E645EA060E73
:10087C008DE60CEA135594EA0C0F08BF95EA0C0FA1
:10088C003FF43BAF94EA0C0F0AD150EA01347FF4E9
:10089C0034AF95EA0C0F7FF425AF104619462CE7C0
:1008AC0095EA0C0F06D152EA03353FF4FDAE104623
:1008BC00194622E750EA410618BF52EA43067FF474
:1008CC00C5AE50EA41047FF40DAF52EA43057FF404
:1008DC00EBAE12E74FEA410212F5001215D211D518
:1008EC006FF47873B3EB625212D94FEAC12343F021
:1008FC00004343EA505311F0004F23FA02F018BFA3
:10090C00404270474FF00000704750EA013005D16B
:10091C0011F0004008BF6FF0004070474FF000002E
:10092C00704700BF4A0011D212F5001211D20DD53A
:10093C006FF47873B3EB62520ED44FEAC12343F0D9
:10094C00004343EA505323FA02F070474FF0000083
:10095C00704750EA013002D14FF0FF3070474FF032
:10096C000000704780B500AF154B154A126842F075
:10097C0001021A60124A124B5968124B0B40536019
:10098C000F4A0F4B1B6823F0847323F480331360DE
:10099C000B4B0B4A126822F480221A60084B084A4F
:1009AC00526822F4FE025A60054B4FF41F029A6003
:1009BC0000F00CF8044B4FF000629A6080BD00BF51
:1009CC00001002400000FFF800ED00E080B500AF21
:1009DC0000F002F880BD00BF80B483B000AF0023EC
:1009EC007B6000233B603A4B394A126842F48032F8
:1009FC001A60374B1B6803F400333B607B68013390
:100A0C007B603B68002B03D17B68B3F5A06FF0D102
:100A1C002F4B1B6803F40033002B02D001233B60E7
:100A2C0001E000233B603B68012B4BD1294B294A49
:100A3C00126842F010021A60264B264A126822F005
:100A4C0003021A60234B234A126842F002021A6016
:100A5C001F4B1F4A52685A601D4B1D4A52685A6000
:100A6C001B4B1B4A526842F480625A60184B184A5E
:100A7C00526822F47C125A60154B154A526842F4A3
:100A8C00E8125A60124B124A126842F080721A60D5
:100A9C0000BF0F4B1B6803F00073002BF9D00C4BFD
:100AAC000B4A526822F003025A60094B084A5268FA
:100ABC0042F002025A6000BF054B5B6803F00C0366
:100ACC00082BF9D10C37BD465DF8047B704700BF8D
:100ADC00001002400020024080B400AFBD465DF81B
:100AEC00047B704780B400AFFEE700BF80B400AF5A
:100AFC00FEE700BF80B400AFFEE700BF80B400AFDC
:100B0C00FEE700BF80B400AFBD465DF8047B7047C4
:100B1C0080B400AFBD465DF8047B704780B400AF75
:100B2C00BD465DF8047B704780B500AF00F01EFD3C
:100B3C0080BD00BFDFF83CD0002100F004B80E4BA4
:100B4C005B58435004310D480D4B42189A42FFF448
:100B5C00F6AF0C4A00F003B8002342F8043B0A4BF2
:100B6C009A42FFF4F9AFFFF7FDFE01F009FE00F029
:100B7C000FF8704700500020FC27000800000020F0
:100B8C002400002024000020B0000020FFF7FEBF4E
:100B9C0080B584B000AF00F0B7FC4FF4165000F0F5
:100BAC0067F8134800F004FD124800F0BDF8124835
:100BBC0000F03EFC07F10C030D48194600F0DAFD7D
:100BCC0007F10A0107F10802BB1D0A4800F0BEF844
:100BDC00094800F02DFC4FF4FA7000F0B1FC064807
:100BEC0000F036FC4FF4FA7000F0AAFCE2E700BF0C
:100BFC00440000209C000020A000002080B582B0A2
:100C0C0000AF786039607B68012B18D13A684FF6D9
:100C1C00FF739A4213D10B480B490C4A00F0D8F9D8
:100C2C000B480849032200F0AFFC0A48054900F0C4
:100C3C006BF8094809490222102300F08DFB083794
:100C4C00BD4680BD4000002000540040A08601003D
:100C5C00440000209C000020A0000020000C01405B
:100C6C0080B500AF01204FF6FF71FFF7C7FF80BDC5
:100C7C0080B58AB000AF786044F20500012101F024
:100C8C0069FA4FF40073BB84182387F827300323C9
:100C9C0087F8263007F124031948194601F098FC0F
:100CAC004FF48063BB84042387F8273007F12403B7
:100CBC001348194601F08CFC07F10C03184601F09F
:100CCC0061F907F10C030F48194601F031F97B6803
:100CDC007B6100233B8300237B830023BB830C239A
:100CEC00FB8300233B8407F114030648194601F0EB
:100CFC0065F80448012101F05BF92837BD4680BD39
:100D0C00000801400038014080B483B000AF786027
:100D1C0039607B683A681A607B6818460C37BD46A8
:100D2C005DF8047B704700BF80B582B000AF78607F
:100D3C00786820210F2200F037F97868232190225F
:100D4C0000F032F90837BD4680BD00BF80B586B0D3
:100D5C0000AFF860B9607A603B6007F11403F86883
:100D6C002321012200F00AF9F868B9687A683B6817
:100D7C0000F0D8F83B7D1B11DBB203F00303FB75CD
:100D8C00FB7D002B4BD1BB681B881BB21846FFF7B1
:100D9C0029FB02460B46104619464FF000025E4BEB
:100DAC00FFF7B0FC02460B4610461946FFF792FDC2
:100DBC0003469AB2BB681A807B681B881BB2184624
:100DCC00FFF710FB02460B46104619464FF0000287
:100DDC00514BFFF797FC02460B4610461946FFF79E
:100DEC0079FD03469AB27B681A803B681B881BB25C
:100DFC001846FFF7F7FA02460B46104619464FF015
:100E0C000002454BFFF77EFC02460B461046194686
:100E1C00FFF760FD03469AB23B681A8078E0FB7DD1
:100E2C00012B4BD1BB681B881BB21846FFF7DAFAB3
:100E3C0002460B46104619464FF00002374BFFF79F
:100E4C0061FC02460B4610461946FFF743FD03466C
:100E5C009AB2BB681A807B681B881BB21846FFF7D6
:100E6C00C1FA02460B46104619464FF000022B4BB6
:100E7C00FFF748FC02460B4610461946FFF72AFDC1
:100E8C0003469AB27B681A803B681B881BB21846D3
:100E9C00FFF7A8FA02460B46104619464FF000021F
:100EAC001E4BFFF72FFC02460B4610461946FFF768
:100EBC0011FD03469AB23B681A8029E0FB7D022B98
:100ECC0026D1BB681B881BB2154A82FB03121A443D
:100EDC009211DB17D31A9AB2BB681A807B681B88F5
:100EEC001BB20F4A82FB03121A449211DB17D31A5E
:100EFC009AB27B681A803B681B881BB2084A82FB3B
:100F0C0003121A449211DB17D31A9AB23B681A8057
:100F1C001837BD4680BD00BF0080214000803140A5
:100F2C00EBA00EEA80B586B000AFF860B9607A60CD
:100F3C003B6007F11003F868A821062200F01EF8A8
:100F4C003B7C1A467B7C1B029BB213439AB2BB6858
:100F5C001A80BB7C1A46FB7C1B029BB213439AB2D1
:100F6C007B681A803B7D1A467B7D1B029BB2134328
:100F7C009AB23B681A801837BD4680BD80B586B0E2
:100F8C0002AFF8607A603B600B46FB72FB681A6834
:100F9C00FB7A39680091104669211A467B6800F08B
:100FAC0013F91037BD4680BD80B582B000AF7860B4
:100FBC0013460A46FA70BB707B681968FA78BB78DE
:100FCC000846692100F068F80837BD4680BD00BFAF
:100FDC0080B58AB000AFF860B9607A60FB68BA6817
:100FEC001A600820012101F0B5F8FB681A68274B3C
:100FFC009A4213D14FF40010012101F0C9F8C0231B
:10100C00BB841C2387F82730032387F8263007F18D
:10101C0024031F48194601F0DBFA18E0FB681A6834
:10102C001C4B9A4213D14FF48000012101F0B0F80F
:10103C004FF44063BB841C2387F82730032387F8C5
:10104C00263007F124031248194601F0C1FA002397
:10105C003B834FF480437B830023BB834FF480633B
:10106C00FB837B687B61FB681A6807F114031046ED
:10107C00194601F0ABF8FB681B681846012101F01A
:10108C0067F9FB6818462837BD4680BD0054004000
:10109C00000C01400058004080B582B000AF786071
:1010AC00F970BA707B707B681B681846012101F0DF
:1010BC00AFF900BF7B681B6818464FF4003101F094
:1010CC0053FA0346002B0CBF00230123DBB2002B89
:1010DC00F0D17B681B681846012101F059F900BF5B
:1010EC007B681B681846344901F03EFA0346002B16
:1010FC0014BF00230123DBB2002BF1D17B681A68EB
:10110C00FB785B00DBB210461946002201F0BEF9F9
:10111C0000BF7B681B681846284901F0F5F90346A7
:10112C00002B14BF00230123DBB2002BF1D17B6811
:10113C001A68BB781046194601F08AF900BF7B6823
:10114C001B6818461E4901F0DFF90346002B14BF3B
:10115C0000230123DBB2002BF1D17B681A687B786A
:10116C001046194601F074F900BF7B681B681846DD
:10117C00134901F0C9F90346002B14BF00230123C6
:10118C00DBB2002BF1D17B681B681846012101F002
:10119C001FF900BF7B681B6818460A4901F0E4F987
:1011AC000346002B0CBF00230123DBB2002BF1D133
:1011BC000837BD4680BD00BF01000010820007004B
:1011CC00840007001000001090B587B000AFF860E5
:1011DC007B600B46FB721346BB725848012101F031
:1011EC0017F900BF55484FF4003101F0BDF9034623
:1011FC00002B0CBF00230123DBB2002BF2D14F4894
:10120C00012101F0C5F800BF4C484D4901F0ACF983
:10121C000346002B14BF00230123DBB2002BF3D1B8
:10122C00FB7A5B00DBB245481946002201F02EF92F
:10123C0000BF4248434901F067F90346002B14BF35
:10124C0000230123DBB2002BF3D1BB7A3B481946B8
:10125C0001F0FEF800BF39483B4901F055F903464F
:10126C00002B14BF00230123DBB2002BF3D1334836
:10127C00012101F08DF800BF3048314901F074F9BB
:10128C000346002B14BF00230123DBB2002BF3D148
:10129C00FB7A5B00DBB229481946012201F0F6F813
:1012AC0000BF2648294901F02FF90346002B14BF33
:1012BC0000230123DBB2002BF3D100237B6125E05B
:1012CC0000BF1E48224901F01FF90346002B14BF32
:1012DC0000230123DBB2002BF3D17B69BA6AD4184B
:1012EC00164801F0C5F8034623707B689A1E7B698B
:1012FC009A4208D11148002101F08AF80F484FF2A8
:10130C00FF7101F0E1F87B6901337B617A697B68DD
:10131C009A42D5DB0948012101F05AF800BF074871
:10132C000C4901F021F90346002B0CBF00230123CB
:10133C00DBB2002BF3D11C37BD4690BD00540040EE
:10134C000100001082000700840007000200030067
:10135C00400003001000001080B586B000AFF860AC
:10136C00B960FA71BB71FB68BA681A60FB68FA79EC
:10137C001A71FB68BA795A71FB681A68264B9A4243
:10138C0004D10420012100F0E5FE30E0FB681A686E
:10139C00224B9A4204D10820012100F0DBFE26E00A
:1013AC00FB681A681E4B9A4204D11020012100F0F0
:1013BC00D1FE1CE0FB681A681A4B9A4204D120201B
:1013CC00012100F0C7FE12E0FB681A68164B9A4226
:1013DC0004D14020012100F0BDFE08E0FB681A6832
:1013EC00124B9A4203D18020012100F0B3FEFB681E
:1013FC005B79FB75FB681B79BB820323BB75FB68B0
:10140C001A6807F114031046194601F0E1F8FB685D
:10141C0018461837BD4680BD00080140000C01403D
:10142C00001001400014014000180140001C014054
:10143C0080B582B000AF78607B681A687B681B79D6
:10144C001046194601F080F90837BD4680BD00BF33
:10145C0080B582B000AF78607B681A687B681B79B6
:10146C001046194601F07EF90837BD4680BD00BF15
:10147C0080B483B000AF03463960FB7197F9073035
:10148C00002B0BDA0D49FB7903F00F03043B3A6890
:10149C00D2B21201D2B20B441A7609E0084997F97C
:1014AC0007303A68D2B21201D2B20B4483F800234F
:1014BC000C37BD465DF8047B704700BF00ED00E0C3
:1014CC0000E100E080B582B000AF78607B68B3F1DA
:1014DC00807F01D3012311E00A4B7A6822F07F420E
:1014EC00013A5A604FF0FF300F21FFF7C1FF054B57
:1014FC0000229A60034B07221A6000231846083713
:10150C00BD4680BD10E000E080B500AF044B1A680A
:10151C00044BA3FB02139B091846FFF7D3FF80BDB6
:10152C0000000020D34D621080B400AF034B1B6849
:10153C001846BD465DF8047B704700BFAC00002028
:10154C0080B584B000AF78600023FB60FFF7ECFF40
:10155C00F86000BFFFF7E8FF0246FB68D21A7B6811
:10156C009A42F7D31037BD4680BD00BF80B400AFA0
:10157C00044B1B685A1C034B1A60BD465DF8047B78
:10158C00704700BFAC00002080B485B000AFF8609D
:10159C00B9601346FB80FB68BA681A60FB68FA886E
:1015AC001A81FB6818461437BD465DF8047B7047FA
:1015BC0080B586B002AF78606D4B1B689AB27B68C1
:1015CC005A817B681B6807F10C0200921846772140
:1015DC00AA220223FFF7F8FD3B7B1B029AB27B7B0E
:1015EC0013439AB27B689A817B681B6807F10C02E3
:1015FC00009218467721AC220223FFF7E5FD3B7BD6
:10160C001B029AB27B7B13439AB27B68DA817B68AC
:10161C001B6807F10C02009218467721AE220223B8
:10162C00FFF7D2FD3B7B1B029AB27B7B13439AB232
:10163C007B681A827B681B6807F10C0200921846C3
:10164C007721B0220223FFF7BFFD3B7B1B029AB22E
:10165C007B7B13439BB29AB27B689A837B681B6833
:10166C0007F10C02009218467721B2220223FFF7F1
:10167C00ABFD3B7B1B029AB27B7B13439BB29AB2B2
:10168C007B68DA837B681B6807F10C0200921846B2
:10169C007721B4220223FFF797FD3B7B1B029AB202
:1016AC007B7B13439BB29AB27B681A847B681B6862
:1016BC0007F10C02009218467721B6220223FFF79D
:1016CC0083FD3B7B1B029AB27B7B13439AB27B68F4
:1016DC005A827B681B6807F10C020092184677212E
:1016EC00B8220223FFF770FD3B7B1B029AB27B7B77
:1016FC0013439AB27B689A827B681B6807F10C02D1
:10170C00009218467721BA220223FFF75DFD3B7B3E
:10171C001B029AB27B7B13439AB27B68DA827B689A
:10172C001B6807F10C02009218467721BC22022399
:10173C00FFF74AFD3B7B1B029AB27B7B13439AB2A9
:10174C007B681A837B681B6807F10C0200921846B1
:10175C007721BE220223FFF737FD3B7B1B029AB297
:10176C007B7B13439AB27B685A831037BD4680BD8E
:10177C00A8000020B0B586B002AF786039607B68F5
:10178C005B891AB2844B1B689A4212D17B681B6826
:10179C0018467721F4222E23FFF77EFCFFF7C4FEB8
:1017AC0002467B685A607D4B1B689AB27B685A81F3
:1017BC00F7E27B685B891AB2784B1B689A4240F05F
:1017CC008C80FFF7B1FE02467B685B68D31A052B51
:1017DC0094BF00230123DBB2002B7DD07B681B68F8
:1017EC0007F10C02009218467721F6220223FFF72C
:1017FC00EBFC3B7B1A027B7B1A447B685A647B684C
:10180C005A6C7B681B8CD31A7A68D28B02FB03F35D
:10181C001846FEF7E7FD02460B46104619464FF0F8
:10182C0000025F4BFEF76EFF02460B461046194650
:10183C00FFF750F802467B685A627B681B8B1BB221
:10184C001846FEF7CFFD02460B46104619464FF0E0
:10185C000002544BFEF72CFE02460B4614461D4666
:10186C007B685A6A7B685B8B1BB213441846FEF785
:10187C00B9FD02460B4620462946FEF743FF0246B9
:10188C000B4610461946FFF725F802467B689A620C
:10189C007B685A6A7B689B6A1A447B685A637B68CC
:1018AC005B6B08331846FEF79DFD02460B4610464F
:1018BC0019464FF000023C4BFEF724FF02460B4644
:1018CC0010461946FFF706F802467B689A63374BB9
:1018DC001B689AB27B685A8163E27B685B891AB297
:1018EC00324B1B689A4265D17B681B891BB2032B58
:1018FC003AD801A252F823F0151900082D19000846
:10190C00451900085D1900087B681B68184677218B
:10191C00F4223423FFF7C0FB7B6805225A652FE0C5
:10192C007B681B6818467721F4227423FFF7B4FBFD
:10193C007B6808225A6523E07B681B681846772170
:10194C00F422B423FFF7A8FB7B680E225A6517E03C
:10195C007B681B6818467721F422F423FFF79CFB65
:10196C007B681A225A650BE07B681B681846772146
:10197C00F4223423FFF790FB7B6805225A6500BFE5
:10198C00FFF7D2FD02467B685A60094B1B689AB27E
:10199C007B685A8105E200BFA800002004000020EB
:1019AC000000E0400000A040000030400800002093
:1019BC000C0000207B685B891AB29D4B1B689A4215
:1019CC0040F0EF81FFF7B0FD02467B685B68D21AEE
:1019DC007B685B6D9A4294BF00230123DBB2002B22
:1019EC0000F0DF817B681B6807F108020092184643
:1019FC007721F6220323FFF7E7FB3B7A1A047B7A65
:101A0C001B021A44BB7A1A447B681B891BB2C3F1B4
:101A1C0008031A417B689A647B685B6BA3F57A6256
:101A2C007B68DA637B689B8A1BB21846FEF7DAFC8C
:101A3C0004460D467B68DB6B7A68D26B02FB03F3C2
:101A4C001846FEF7CFFC02460B46104619464FF0DF
:101A5C000002784BFEF756FE02460B4620462946FE
:101A6C00FEF726FD02460B46104619464FF00002C3
:101A7C00714BFEF747FE02460B4610461946FEF721
:101A8C0029FF02467B685A627B68DB891BB27A6845
:101A9C00D26B02FB03F31846FEF7A4FC02460B467E
:101AAC00104619464FF00002634BFEF72BFE024620
:101ABC000B4610461946FEF70DFF02467B689A62EC
:101ACC007B685A6A7B689B6A1A447B68DA627B681B
:101ADC009B891BB29A007B68DB6A1A447B681B8962
:101AEC001BB202FA03F30233002B00DA03339B1010
:101AFC001A467B681A637B681B8A1BB27A68D26BA6
:101B0C0002FB03F31846FEF76DFC02460B4610462B
:101B1C0019464FF00002494BFEF7F4FD02460B4606
:101B2C0010461946FEF7D6FE02467B685A627B6861
:101B3C005B8A1BB21846FEF755FC04460D467B68C3
:101B4C00DB6B7A68D26B02FB03F31846FEF74AFC98
:101B5C0002460B46104619464FF00002354BFEF775
:101B6C00D1FD02460B4620462946FEF7A1FC024653
:101B7C000B46104619464FF00002314BFEF7C2FDE2
:101B8C0002460B4610461946FEF7A4FE02467B6839
:101B9C009A627B685A6A7B689B6A134402331846C4
:101BAC00FEF720FC02460B46104619464FF0000289
:101BBC00244BFEF7A7FD02460B4610461946FEF7CE
:101BCC0089FE02467B68DA627B689B8B7A68D26AF4
:101BDC0002F5004202FB03F31846FEF7F3FB024644
:101BEC000B46104619464FF00002174BFEF78AFDC4
:101BFC0002460B4610461946FEF794FE02467B68D9
:101C0C00DA647B689B6C1A467B681B6BD31A7A6808
:101C1C00128912B24CF2503141FA02F202FB03F279
:101C2C007B681A657B681B6D002B1ADB0EE000BF0E
:101C3C000C0000200000B0400000A0400000C0409C
:101C4C000000F040000010400000E0407B681B6D7D
:101C5C005A007B68DB6CB2FBF3F31A467B681A64A0
:101C6C0009E07B681A6D7B68DB6CB2FBF3F35B00FD
:101C7C001A467B681A647B681B6C1846FEF7B2FB2D
:101C8C0002460B46104619464FF00002464BFEF733
:101C9C0039FD02460B4614461D467B681B6C1846E4
:101CAC00FEF7A0FB02460B46104619464FF0000209
:101CBC003D4BFEF727FD02460B4620462946FEF714
:101CCC00F7FB02460B4610461946FEF703FE02468A
:101CDC007B685A627B685B6A40F6DE3202FB03F378
:101CEC001846FEF77FFB02460B46104619464FF08E
:101CFC0000022E4BFEF706FD02460B461046194617
:101D0C00FEF7E8FD02467B685A627B681B6C284A2A
:101D1C0002FB03F31846FEF765FB02460B46104622
:101D2C0019464FF00002214BFEF7ECFC02460B4625
:101D3C0010461946FEF7CEFD02467B689A627B6818
:101D4C001B6C1846FEF74EFB04460D467B685A6A20
:101D5C007B689B6A134403F6CF631846FEF742FB7D
:101D6C0002460B46104619464FF00002114BFEF787
:101D7C00C9FC02460B4620462946FEF7E7F9024607
:101D8C000B4610461946FEF7A5FD02467B681A6401
:101D9C007B681A6C3B681A60074B1B689AB27B68AD
:101DAC005A811037BD46B0BD000070400000F040B5
:101DBC0043E3FFFF00003040A800002080B58CB04A
:101DCC0000AF786039600023FB620023BB62002304
:101DDC007B6200233B620023FB617B68FB617B68B9
:101DEC001B8A9BB2FB62FA6A4CF6FF731340FB62D0
:101DFC003B68DB88FA6A1343FB62FB6A9AB27B6826
:101E0C001A827B689B899BB2FB62FA6A4EF6F313CB
:101E1C001340FB623B689A883B681B8913439AB258
:101E2C003B685B8913439BB2FA6A1343FB62FB6A00
:101E3C009AB27B689A817B689B8A9BB2FB62FA6A36
:101E4C004FF6FF431340FB623B689B89FA6A1343CE
:101E5C00FB62FB6A9AB27B689A8207F10803184608
:101E6C0000F0C6F8FA69304B9A4202D17B69BB622A
:101E7C0001E03B69BB627B689B899BB29BB21BB246
:101E8C00002B0CDABA6A13469B0013449A001A44CE
:101E9C003B681B685B00B2FBF3F37B620BE0BA6A36
:101EAC0013469B0013449A001A443B681B689B0022
:101EBC00B2FBF3F37B627A6A1C4BA3FB02135B0944
:101ECC001B01FB62FB6A1B09642202FB03F37A6AA7
:101EDC00D31A3B627B689B899BB29BB21BB2002BD3
:101EEC000DDA3B6ADB0003F13202104BA3FB021349
:101EFC005B0903F00703FA6A1343FB620CE03B6ACD
:101F0C001B0103F13202094BA3FB02135B0903F023
:101F1C000F03FA6A1343FB62FB6A9AB27B681A815D
:101F2C003037BD4680BD00BF003801401F85EB51E6
:101F3C0080B485B000AF786039600023FB607B68AB
:101F4C001B8A9BB2FB60FA684FF2FF031340FB60E5
:101F5C003B681A883B685B8813439AB23B689B8842
:101F6C0013439AB23B68DB8813439BB2FA68134362
:101F7C00FB60FB689AB27B681A821437BD465DF829
:101F8C00047B704780B483B000AF78607B6800221C
:101F9C001A807B6800225A807B6800229A807B68BA
:101FAC000022DA800C37BD465DF8047B704700BF19
:101FBC0080B483B000AF78600B46FB70FB78002BCD
:101FCC0008D07B689B899BB243F400539AB27B6820
:101FDC009A8107E07B689B899BB223F400539AB2E9
:101FEC007B689A810C37BD465DF8047B704700BF57
:101FFC0080B487B000AF786000237B6100233B6125
:10200C000023FB600023BB604D4B5B6803F00C03AB
:10201C007B617B69042B07D0082B09D0002B34D1B2
:10202C007B68484A1A6034E07B68464A1A6030E0A4
:10203C00434B5B6803F470133B61414B5B6803F4E7
:10204C008033FB603B699B0C02333B61FB68002BCC
:10205C0006D13B693C4A02FB03F27B681A6013E031
:10206C00374B5B6803F40033002B06D03B69364AD0
:10207C0002FB03F27B681A6006E03B69314A02FB03
:10208C0003F27B681A6004E003E07B682D4A1A6057
:10209C0000BF2B4B5B6803F0F0037B617B691B0972
:1020AC007B612A4A7B6913441B78DBB2BB607B687B
:1020BC001A68BB68DA407B685A60214B5B6803F492
:1020CC00E0637B617B691B0A7B61204A7B6913445B
:1020DC001B78DBB2BB607B685A68BB68DA407B68F4
:1020EC009A60174B5B6803F460537B617B69DB0A76
:1020FC007B61164A7B6913441B78DBB2BB607B683F
:10210C005A68BB68DA407B68DA600D4B5B6803F495
:10211C0040437B617B699B0B7B610D4A7B6913445C
:10212C001B78DBB2BB607B68DA68BB68B2FBF3F28E
:10213C007B681A611C37BD465DF8047B704700BF95
:10214C000010024000127A0000093D00100000202F
:10215C002000002080B483B000AF78600B46FB7089
:10216C00FB78002B06D0094B084A91697A680A4320
:10217C009A6106E0054B054A91697A68D2430A4098
:10218C009A610C37BD465DF8047B70470010024025
:10219C0080B483B000AF78600B46FB70FB78002BEB
:1021AC0006D0094B084AD1697A680A43DA6106E01D
:1021BC00054B054AD1697A68D2430A40DA610C377B
:1021CC00BD465DF8047B70470010024080B58AB0B4
:1021DC0000AF786039600023FB8400237B840423E8
:1021EC00BB84574BFB617B689B88FB84FB8C23F087
:1021FC003F03FB8407F108031846FFF7F9FE3B6920
:10220C00FB61FA694F4BA3FB02139B0C7B84FA8C8A
:10221C007B8C1343FB847B68FA8C9A807B681B88CD
:10222C009BB223F001039AB27B681A800023FB84D3
:10223C003B681A68444B9A4215D83B681B685B0094
:10224C00FA69B2FBF3F3BB84BB8C032B01D80423D8
:10225C00BB84FA8CBB8C1343FB847B8C01339AB20A
:10226C007B681A8440E03B68DA884BF6FF739A422D
:10227C0009D13B681A6813465B001344FA69B2FB38
:10228C00F3F3BB840EE03B681A6813469B001344BF
:10229C009A001344FA69B2FBF3F3BB84BB8C43F48E
:1022AC008043BB84BB8CC3F30B03002B03D1BB8CCF
:1022BC0043F00103BB84BA8CFB8C13439BB26FEAD3
:1022CC0043436FEA5343FB847B8C4FF4967202FBBF
:1022DC0003F31E4A82FB03129211DB17D31A9BB233
:1022EC0001339AB27B681A847B68FA8C9A837B6878
:1022FC001B889BB243F001039AB27B681A807B68FF
:10230C001B88FB84FB8C23F4816323F00203FB8486
:10231C003B689A883B685B8913439AB2FB8C1343E6
:10232C00FB847B68FA8C1A803B689A893B681B8912
:10233C0013439AB27B681A812837BD4680BD00BF13
:10234C0000127A0083DE1B43A0860100D34D62107D
:10235C0080B483B000AF78600B46FB70FB78002B29
:10236C0008D07B681B889BB243F001039AB27B6850
:10237C001A8007E07B681B889BB223F001039AB29A
:10238C007B681A800C37BD465DF8047B704700BF34
:10239C0080B483B000AF78600B46FB70FB78002BE9
:1023AC0008D07B681B889BB243F480739AB27B681D
:1023BC001A8007E07B681B889BB223F480739AB267
:1023CC007B681A800C37BD465DF8047B704700BFF4
:1023DC0080B483B000AF78600B46FB70FB78002BA9
:1023EC0008D07B681B889BB243F400739AB27B685D
:1023FC001A8007E07B681B889BB223F400739AB2A7
:10240C007B681A800C37BD465DF8047B704700BFB3
:10241C0080B483B000AF78600B46FB70FB78002B68
:10242C0008D07B681B889BB243F480639AB27B68AC
:10243C001A8007E07B681B889BB223F480639AB2F6
:10244C007B681A800C37BD465DF8047B704700BF73
:10245C0080B483B000AF78600B46FB70FB789AB207
:10246C007B681A820C37BD465DF8047B704700BF51
:10247C0080B483B000AF78607B681B8A9BB2DBB200
:10248C0018460C37BD465DF8047B704780B483B0AA
:10249C0000AF786013460A46FA70BB70BB78002B0D
:1024AC0004D0FB7843F00103FB7003E0FB7823F0CE
:1024BC000103FB70FB789AB27B681A820C37BD461D
:1024CC005DF8047B704700BF80B483B000AF7860C8
:1024DC000B467B807B88B3F5006F08D17B681B882B
:1024EC009BB243F400639AB27B681A8007E07B6866
:1024FC001B889BB223F400639AB27B681A800C375A
:10250C00BD465DF8047B704780B487B000AF78603F
:10251C00396000233B610023FB600023BB60002378
:10252C00FB757B689B8A9BB2FB607B681B8B9BB2A9
:10253C00BB60BB681B04BB60FA68BB68134323F029
:10254C007F433B613A693B681A403B689A4202D12F
:10255C000123FB7501E00023FB75FB7D18461C373E
:10256C00BD465DF8047B704780B487B000AF7860DF
:10257C0039600023FB7500233B610023FB607B6803
:10258C00FB603B681B0F3B613B6823F07F433B6068
:10259C003B69002B03D0FB681433FB6005E03B6800
:1025AC001B0C3B60FB681833FB60FB681A683B68CC
:1025BC001340002B02D00123FB7501E00023FB75B7
:1025CC00FB7D18461C37BD465DF8047B704700BF89
:1025DC0080B489B000AF786039600023FB610023C0
:1025EC003B610023BB610023FB6000237B61002364
:1025FC00BB603B68DB7803F00F03FB613B68DB7867
:10260C0003F01003002B04D03B689B78FA6913434A
:10261C00FB613B681B88DBB2002B44D07B681B68DA
:10262C007B610023BB6138E0BB69012202FA03F332
:10263C00FB603B681B881A46FB6813403B613A6998
:10264C00FB689A4226D1BB699B00FB60FB680F229A
:10265C0002FA03F3BB60BB68DB437A6913407B610E
:10266C00FB68FA6902FA03F37A6913437B613B68EE
:10267C00DB78282B05D1BB6901229A407B685A6113
:10268C0008E03B68DB78482B04D1BB6901229A40F7
:10269C007B681A61BB690133BB61BB69072BC3D96A
:1026AC007B687A691A603B681B88FF2B46D97B686C
:1026BC005B687B610023BB613AE0BB690833012294
:1026CC0002FA03F3FB603B681B881A46FB68134055
:1026DC003B613A69FB689A4227D1BB699B00FB605E
:1026EC00FB680F2202FA03F3BB60BB68DB437A6919
:1026FC0013407B61FB68FA6902FA03F37A691343AE
:10270C007B613B68DB78282B05D1BB690833012240
:10271C009A407B685A613B68DB78482B05D1BB69D2
:10272C00083301229A407B681A61BB690133BB6193
:10273C00BB69072BC1D97B687A695A602437BD46BF
:10274C005DF8047B704700BF80B483B000AF786045
:10275C000B467B807A887B681A610C37BD465DF826
:10276C00047B704780B483B000AF78600B467B80ED
:10277C007A887B685A610C37BD465DF8047B7047DC
:10278C0070B50E4B0E4D0024ED1AAD101E46AC422A
:10279C0004D056F8242090470134F8E700F016F8DE
:1027AC00084D094B0024ED1AAD101E46AC4204D066
:1027BC0056F8242090470134F8E770BDF027000844
:1027CC00F0270008F8270008F0270008F8B500BF2C
:1027DC00F8BC08BC9E467047F8B500BFF8BC08BCF6
:0427EC009E4670474E
:0827F000310100086D0C000826
:0427F8000D010008C7
:1027FC0000A24A04010000000200000003000000D7
:10280C00000000000102030401020304060708098A
:04281C0002040608A4
:0400000508000B41A3
:00000001FF
